{
  "contracts/Land.sol": {
    "Land": {
      "abi": [
        {
          "inputs": [],
          "stateMutability": "nonpayable",
          "type": "constructor"
        },
        {
          "inputs": [
            {
              "internalType": "uint256",
              "name": "",
              "type": "uint256"
            }
          ],
          "name": "LandRequestMapping",
          "outputs": [
            {
              "internalType": "uint256",
              "name": "reqId",
              "type": "uint256"
            },
            {
              "internalType": "address payable",
              "name": "sellerId",
              "type": "address"
            },
            {
              "internalType": "address payable",
              "name": "buyerId",
              "type": "address"
            },
            {
              "internalType": "uint256",
              "name": "landId",
              "type": "uint256"
            },
            {
              "internalType": "enum Land.reqStatus",
              "name": "requestStatus",
              "type": "uint8"
            },
            {
              "internalType": "bool",
              "name": "isPaymentDone",
              "type": "bool"
            }
          ],
          "stateMutability": "view",
          "type": "function"
        },
        {
          "inputs": [],
          "name": "ReturnAllLandList",
          "outputs": [
            {
              "internalType": "uint256[]",
              "name": "",
              "type": "uint256[]"
            }
          ],
          "stateMutability": "view",
          "type": "function"
        },
        {
          "inputs": [],
          "name": "ReturnAllUserList",
          "outputs": [
            {
              "internalType": "address[]",
              "name": "",
              "type": "address[]"
            }
          ],
          "stateMutability": "view",
          "type": "function"
        },
        {
          "inputs": [
            {
              "internalType": "address",
              "name": "",
              "type": "address"
            }
          ],
          "name": "UserMapping",
          "outputs": [
            {
              "internalType": "address",
              "name": "id",
              "type": "address"
            },
            {
              "internalType": "string",
              "name": "name",
              "type": "string"
            },
            {
              "internalType": "uint256",
              "name": "age",
              "type": "uint256"
            },
            {
              "internalType": "string",
              "name": "city",
              "type": "string"
            },
            {
              "internalType": "string",
              "name": "aadharNumber",
              "type": "string"
            },
            {
              "internalType": "string",
              "name": "panNumber",
              "type": "string"
            },
            {
              "internalType": "string",
              "name": "document",
              "type": "string"
            },
            {
              "internalType": "string",
              "name": "email",
              "type": "string"
            },
            {
              "internalType": "bool",
              "name": "isUserVerified",
              "type": "bool"
            }
          ],
          "stateMutability": "view",
          "type": "function"
        },
        {
          "inputs": [
            {
              "internalType": "uint256",
              "name": "_requestId",
              "type": "uint256"
            }
          ],
          "name": "acceptRequest",
          "outputs": [],
          "stateMutability": "nonpayable",
          "type": "function"
        },
        {
          "inputs": [
            {
              "internalType": "uint256",
              "name": "_area",
              "type": "uint256"
            },
            {
              "internalType": "string",
              "name": "_address",
              "type": "string"
            },
            {
              "internalType": "uint256",
              "name": "landPrice",
              "type": "uint256"
            },
            {
              "internalType": "string",
              "name": "_allLatiLongi",
              "type": "string"
            },
            {
              "internalType": "uint256",
              "name": "_propertyPID",
              "type": "uint256"
            },
            {
              "internalType": "string",
              "name": "_surveyNum",
              "type": "string"
            },
            {
              "internalType": "string",
              "name": "_document",
              "type": "string"
            }
          ],
          "name": "addLand",
          "outputs": [],
          "stateMutability": "nonpayable",
          "type": "function"
        },
        {
          "inputs": [
            {
              "internalType": "address",
              "name": "_addr",
              "type": "address"
            }
          ],
          "name": "changeContractOwner",
          "outputs": [],
          "stateMutability": "nonpayable",
          "type": "function"
        },
        {
          "inputs": [],
          "name": "documentId",
          "outputs": [
            {
              "internalType": "uint256",
              "name": "",
              "type": "uint256"
            }
          ],
          "stateMutability": "view",
          "type": "function"
        },
        {
          "inputs": [
            {
              "internalType": "address",
              "name": "_addr",
              "type": "address"
            }
          ],
          "name": "isContractOwner",
          "outputs": [
            {
              "internalType": "bool",
              "name": "",
              "type": "bool"
            }
          ],
          "stateMutability": "view",
          "type": "function"
        },
        {
          "inputs": [
            {
              "internalType": "uint256",
              "name": "id",
              "type": "uint256"
            }
          ],
          "name": "isLandVerified",
          "outputs": [
            {
              "internalType": "bool",
              "name": "",
              "type": "bool"
            }
          ],
          "stateMutability": "view",
          "type": "function"
        },
        {
          "inputs": [
            {
              "internalType": "address",
              "name": "_addr",
              "type": "address"
            }
          ],
          "name": "isUserRegistered",
          "outputs": [
            {
              "internalType": "bool",
              "name": "",
              "type": "bool"
            }
          ],
          "stateMutability": "view",
          "type": "function"
        },
        {
          "inputs": [
            {
              "internalType": "address",
              "name": "id",
              "type": "address"
            }
          ],
          "name": "isUserVerified",
          "outputs": [
            {
              "internalType": "bool",
              "name": "",
              "type": "bool"
            }
          ],
          "stateMutability": "view",
          "type": "function"
        },
        {
          "inputs": [
            {
              "internalType": "uint256",
              "name": "id",
              "type": "uint256"
            }
          ],
          "name": "landPrices",
          "outputs": [
            {
              "internalType": "uint256",
              "name": "",
              "type": "uint256"
            }
          ],
          "stateMutability": "view",
          "type": "function"
        },
        {
          "inputs": [
            {
              "internalType": "uint256",
              "name": "",
              "type": "uint256"
            }
          ],
          "name": "lands",
          "outputs": [
            {
              "internalType": "uint256",
              "name": "id",
              "type": "uint256"
            },
            {
              "internalType": "uint256",
              "name": "area",
              "type": "uint256"
            },
            {
              "internalType": "string",
              "name": "landAddress",
              "type": "string"
            },
            {
              "internalType": "uint256",
              "name": "landPrice",
              "type": "uint256"
            },
            {
              "internalType": "string",
              "name": "allLatitudeLongitude",
              "type": "string"
            },
            {
              "internalType": "uint256",
              "name": "propertyPID",
              "type": "uint256"
            },
            {
              "internalType": "string",
              "name": "physicalSurveyNumber",
              "type": "string"
            },
            {
              "internalType": "string",
              "name": "document",
              "type": "string"
            },
            {
              "internalType": "bool",
              "name": "isforSell",
              "type": "bool"
            },
            {
              "internalType": "address payable",
              "name": "ownerAddress",
              "type": "address"
            },
            {
              "internalType": "bool",
              "name": "isLandVerified",
              "type": "bool"
            }
          ],
          "stateMutability": "view",
          "type": "function"
        },
        {
          "inputs": [],
          "name": "landsCount",
          "outputs": [
            {
              "internalType": "uint256",
              "name": "",
              "type": "uint256"
            }
          ],
          "stateMutability": "view",
          "type": "function"
        },
        {
          "inputs": [
            {
              "internalType": "uint256",
              "name": "_requestId",
              "type": "uint256"
            }
          ],
          "name": "makePayment",
          "outputs": [],
          "stateMutability": "payable",
          "type": "function"
        },
        {
          "inputs": [
            {
              "internalType": "address payable",
              "name": "_reveiver",
              "type": "address"
            }
          ],
          "name": "makePaymentTestFun",
          "outputs": [],
          "stateMutability": "payable",
          "type": "function"
        },
        {
          "inputs": [
            {
              "internalType": "address",
              "name": "id",
              "type": "address"
            }
          ],
          "name": "myAllLands",
          "outputs": [
            {
              "internalType": "uint256[]",
              "name": "",
              "type": "uint256[]"
            }
          ],
          "stateMutability": "view",
          "type": "function"
        },
        {
          "inputs": [],
          "name": "myReceivedLandRequests",
          "outputs": [
            {
              "internalType": "uint256[]",
              "name": "",
              "type": "uint256[]"
            }
          ],
          "stateMutability": "view",
          "type": "function"
        },
        {
          "inputs": [],
          "name": "mySentLandRequests",
          "outputs": [
            {
              "internalType": "uint256[]",
              "name": "",
              "type": "uint256[]"
            }
          ],
          "stateMutability": "view",
          "type": "function"
        },
        {
          "inputs": [
            {
              "internalType": "string",
              "name": "_name",
              "type": "string"
            },
            {
              "internalType": "uint256",
              "name": "_age",
              "type": "uint256"
            },
            {
              "internalType": "string",
              "name": "_city",
              "type": "string"
            },
            {
              "internalType": "string",
              "name": "_aadharNumber",
              "type": "string"
            },
            {
              "internalType": "string",
              "name": "_panNumber",
              "type": "string"
            },
            {
              "internalType": "string",
              "name": "_document",
              "type": "string"
            },
            {
              "internalType": "string",
              "name": "_email",
              "type": "string"
            }
          ],
          "name": "registerUser",
          "outputs": [],
          "stateMutability": "nonpayable",
          "type": "function"
        },
        {
          "inputs": [
            {
              "internalType": "uint256",
              "name": "_requestId",
              "type": "uint256"
            }
          ],
          "name": "rejectRequest",
          "outputs": [],
          "stateMutability": "nonpayable",
          "type": "function"
        },
        {
          "inputs": [
            {
              "internalType": "uint256",
              "name": "id",
              "type": "uint256"
            }
          ],
          "name": "requesteStatus",
          "outputs": [
            {
              "internalType": "bool",
              "name": "",
              "type": "bool"
            }
          ],
          "stateMutability": "view",
          "type": "function"
        },
        {
          "inputs": [
            {
              "internalType": "uint256",
              "name": "_landId",
              "type": "uint256"
            }
          ],
          "name": "requestforBuy",
          "outputs": [],
          "stateMutability": "nonpayable",
          "type": "function"
        },
        {
          "inputs": [],
          "name": "returnPaymentDoneList",
          "outputs": [
            {
              "internalType": "uint256[]",
              "name": "",
              "type": "uint256[]"
            }
          ],
          "stateMutability": "view",
          "type": "function"
        },
        {
          "inputs": [
            {
              "internalType": "uint256",
              "name": "_requestId",
              "type": "uint256"
            },
            {
              "internalType": "string",
              "name": "documentUrl",
              "type": "string"
            }
          ],
          "name": "transferOwnership",
          "outputs": [
            {
              "internalType": "bool",
              "name": "",
              "type": "bool"
            }
          ],
          "stateMutability": "nonpayable",
          "type": "function"
        },
        {
          "inputs": [],
          "name": "userCount",
          "outputs": [
            {
              "internalType": "uint256",
              "name": "",
              "type": "uint256"
            }
          ],
          "stateMutability": "view",
          "type": "function"
        },
        {
          "inputs": [
            {
              "internalType": "uint256",
              "name": "_id",
              "type": "uint256"
            }
          ],
          "name": "verifyLand",
          "outputs": [],
          "stateMutability": "nonpayable",
          "type": "function"
        },
        {
          "inputs": [
            {
              "internalType": "address",
              "name": "_userId",
              "type": "address"
            }
          ],
          "name": "verifyUser",
          "outputs": [],
          "stateMutability": "nonpayable",
          "type": "function"
        }
      ],
      "devdoc": {
        "kind": "dev",
        "methods": {},
        "version": 1
      },
      "evm": {
        "bytecode": {
          "linkReferences": {},
          "object": "608060405234801561001057600080fd5b50600160008190555033600160006101000a81548173ffffffffffffffffffffffffffffffffffffffff021916908373ffffffffffffffffffffffffffffffffffffffff16021790555061339b806100696000396000f3fe6080604052600436106101c25760003560e01c8063995a8d96116100f7578063d3b368c011610095578063e261f1e511610064578063e261f1e51461067f578063edfbe247146106c6578063f9c43bdf146106ef578063fa02454914610718576101c2565b8063d3b368c014610597578063d61ff68c146105c0578063d8513de414610605578063de11768814610642576101c2565b8063ace417e0116100d1578063ace417e0146104b2578063b10a30ed146104ef578063ccfdc19b14610531578063d196ebf21461055a576101c2565b8063995a8d96146104405780639c32e3b41461045c578063a846fc8f14610487576101c2565b80634ba1f09811610164578063553a998d1161013e578063553a998d146103705780636cbf6cf81461039b57806378f7c83f146103d85780637bb2d6db14610403576101c2565b80634ba1f098146103025780634d8131201461032b5780635114cb5214610354576101c2565b806323393d77116101a057806323393d771461025a5780632d7788db146102855780633ead67b5146102ae578063499701b2146102d7576101c2565b806307973ccf146101c7578063163f7522146101f25780631c9afd0f1461022f575b600080fd5b3480156101d357600080fd5b506101dc610755565b6040516101e99190612720565b60405180910390f35b3480156101fe57600080fd5b50610219600480360381019061021491906127ad565b61075b565b60405161022691906127f5565b60405180910390f35b34801561023b57600080fd5b506102446107c2565b6040516102519190612720565b60405180910390f35b34801561026657600080fd5b5061026f6107c8565b60405161027c91906128ce565b60405180910390f35b34801561029157600080fd5b506102ac60048036038101906102a7919061291c565b610832565b005b3480156102ba57600080fd5b506102d560048036038101906102d091906127ad565b6108e2565b005b3480156102e357600080fd5b506102ec6109b6565b6040516102f991906128ce565b60405180910390f35b34801561030e57600080fd5b506103296004803603810190610324919061291c565b610a4b565b005b34801561033757600080fd5b50610352600480360381019061034d91906127ad565b610afb565b005b61036e6004803603810190610369919061291c565b610b59565b005b34801561037c57600080fd5b50610385610d59565b6040516103929190612a07565b60405180910390f35b3480156103a757600080fd5b506103c260048036038101906103bd919061291c565b610df9565b6040516103cf91906127f5565b60405180910390f35b3480156103e457600080fd5b506103ed610e26565b6040516103fa9190612720565b60405180910390f35b34801561040f57600080fd5b5061042a6004803603810190610425919061291c565b610e2c565b6040516104379190612720565b60405180910390f35b61045a60048036038101906104559190612a67565b610e4c565b005b34801561046857600080fd5b50610471610e96565b60405161047e91906128ce565b60405180910390f35b34801561049357600080fd5b5061049c610f2b565b6040516104a991906128ce565b60405180910390f35b3480156104be57600080fd5b506104d960048036038101906104d491906127ad565b610f95565b6040516104e691906127f5565b60405180910390f35b3480156104fb57600080fd5b506105166004803603810190610511919061291c565b610fee565b60405161052896959493929190612b1a565b60405180910390f35b34801561053d57600080fd5b5061055860048036038101906105539190612cc1565b611084565b005b34801561056657600080fd5b50610581600480360381019061057c91906127ad565b6112c7565b60405161058e91906128ce565b60405180910390f35b3480156105a357600080fd5b506105be60048036038101906105b9919061291c565b61135e565b005b3480156105cc57600080fd5b506105e760048036038101906105e291906127ad565b611653565b6040516105fc99989796959493929190612e6a565b60405180910390f35b34801561061157600080fd5b5061062c6004803603810190610627919061291c565b6119fe565b60405161063991906127f5565b60405180910390f35b34801561064e57600080fd5b50610669600480360381019061066491906127ad565b611a2b565b60405161067691906127f5565b60405180910390f35b34801561068b57600080fd5b506106a660048036038101906106a1919061291c565b611a96565b6040516106bd9b9a99989796959493929190612f21565b60405180910390f35b3480156106d257600080fd5b506106ed60048036038101906106e89190612fe8565b611d4a565b005b3480156106fb57600080fd5b506107166004803603810190610711919061291c565b61209e565b005b34801561072457600080fd5b5061073f600480360381019061073a9190613132565b6120d0565b60405161074c91906127f5565b60405180910390f35b60025481565b6000600960008373ffffffffffffffffffffffffffffffffffffffff1673ffffffffffffffffffffffffffffffffffffffff16815260200190815260200160002060009054906101000a900460ff16156107b857600190506107bd565b600090505b919050565b60035481565b6060600f60006001815260200190815260200160002080548060200260200160405190810160405280929190818152602001828054801561082857602002820191906000526020600020905b815481526020019060010190808311610814575b5050505050905090565b3373ffffffffffffffffffffffffffffffffffffffff16600c600083815260200190815260200160002060010160009054906101000a900473ffffffffffffffffffffffffffffffffffffffff1673ffffffffffffffffffffffffffffffffffffffff16146108a057600080fd5b6002600c600083815260200190815260200160002060040160006101000a81548160ff021916908360048111156108da576108d9612aa3565b5b021790555050565b600160009054906101000a900473ffffffffffffffffffffffffffffffffffffffff1673ffffffffffffffffffffffffffffffffffffffff163373ffffffffffffffffffffffffffffffffffffffff1614610972576040517f08c379a0000000000000000000000000000000000000000000000000000000008152600401610969906131da565b60405180910390fd5b80600160006101000a81548173ffffffffffffffffffffffffffffffffffffffff021916908373ffffffffffffffffffffffffffffffffffffffff16021790555050565b6060600d60003373ffffffffffffffffffffffffffffffffffffffff1673ffffffffffffffffffffffffffffffffffffffff168152602001908152602001600020805480602002602001604051908101604052809291908181526020018280548015610a4157602002820191906000526020600020905b815481526020019060010190808311610a2d575b5050505050905090565b3373ffffffffffffffffffffffffffffffffffffffff16600c600083815260200190815260200160002060010160009054906101000a900473ffffffffffffffffffffffffffffffffffffffff1673ffffffffffffffffffffffffffffffffffffffff1614610ab957600080fd5b6001600c600083815260200190815260200160002060040160006101000a81548160ff02191690836004811115610af357610af2612aa3565b5b021790555050565b6001600660008373ffffffffffffffffffffffffffffffffffffffff1673ffffffffffffffffffffffffffffffffffffffff16815260200190815260200160002060080160006101000a81548160ff02191690831515021790555050565b3373ffffffffffffffffffffffffffffffffffffffff16600c600083815260200190815260200160002060020160009054906101000a900473ffffffffffffffffffffffffffffffffffffffff1673ffffffffffffffffffffffffffffffffffffffff16148015610c11575060016004811115610bd957610bd8612aa3565b5b600c600083815260200190815260200160002060040160009054906101000a900460ff166004811115610c0f57610c0e612aa3565b5b145b610c1a57600080fd5b6003600c600083815260200190815260200160002060040160006101000a81548160ff02191690836004811115610c5457610c53612aa3565b5b0217905550600b6000600c600084815260200190815260200160002060030154815260200190815260200160002060080160019054906101000a900473ffffffffffffffffffffffffffffffffffffffff1673ffffffffffffffffffffffffffffffffffffffff166108fc349081150290604051600060405180830381858888f19350505050158015610ceb573d6000803e3d6000fd5b506001600c600083815260200190815260200160002060040160016101000a81548160ff021916908315150217905550601060006001815260200190815260200160002081908060018154018082558091505060019003906000526020600020016000909190919091505550565b60606008600060018152602001908152602001600020805480602002602001604051908101604052809291908181526020018280548015610def57602002820191906000526020600020905b8160009054906101000a900473ffffffffffffffffffffffffffffffffffffffff1673ffffffffffffffffffffffffffffffffffffffff1681526020019060010190808311610da5575b5050505050905090565b6000600b600083815260200190815260200160002060080160159054906101000a900460ff169050919050565b60045481565b6000600b6000838152602001908152602001600020600301549050919050565b8073ffffffffffffffffffffffffffffffffffffffff166108fc349081150290604051600060405180830381858888f19350505050158015610e92573d6000803e3d6000fd5b5050565b6060600e60003373ffffffffffffffffffffffffffffffffffffffff1673ffffffffffffffffffffffffffffffffffffffff168152602001908152602001600020805480602002602001604051908101604052809291908181526020018280548015610f2157602002820191906000526020600020905b815481526020019060010190808311610f0d575b5050505050905090565b60606010600060018152602001908152602001600020805480602002602001604051908101604052809291908181526020018280548015610f8b57602002820191906000526020600020905b815481526020019060010190808311610f77575b5050505050905090565b6000600660008373ffffffffffffffffffffffffffffffffffffffff1673ffffffffffffffffffffffffffffffffffffffff16815260200190815260200160002060080160009054906101000a900460ff169050919050565b600c6020528060005260406000206000915090508060000154908060010160009054906101000a900473ffffffffffffffffffffffffffffffffffffffff16908060020160009054906101000a900473ffffffffffffffffffffffffffffffffffffffff16908060030154908060040160009054906101000a900460ff16908060040160019054906101000a900460ff16905086565b61108d33610f95565b61109657600080fd5b600360008154809291906110a990613229565b919050555060405180610160016040528060035481526020018881526020018781526020018681526020018581526020018481526020018381526020018281526020016000151581526020013373ffffffffffffffffffffffffffffffffffffffff16815260200160001515815250600b600060035481526020019081526020016000206000820151816000015560208201518160010155604082015181600201908051906020019061115d929190612664565b50606082015181600301556080820151816004019080519060200190611184929190612664565b5060a0820151816005015560c08201518160060190805190602001906111ab929190612664565b5060e08201518160070190805190602001906111c8929190612664565b506101008201518160080160006101000a81548160ff0219169083151502179055506101208201518160080160016101000a81548173ffffffffffffffffffffffffffffffffffffffff021916908373ffffffffffffffffffffffffffffffffffffffff1602179055506101408201518160080160156101000a81548160ff021916908315150217905550905050600a60003373ffffffffffffffffffffffffffffffffffffffff1673ffffffffffffffffffffffffffffffffffffffff168152602001908152602001600020600354908060018154018082558091505060019003906000526020600020016000909190919091505550505050505050565b6060600a60008373ffffffffffffffffffffffffffffffffffffffff1673ffffffffffffffffffffffffffffffffffffffff16815260200190815260200160002080548060200260200160405190810160405280929190818152602001828054801561135257602002820191906000526020600020905b81548152602001906001019080831161133e575b50505050509050919050565b61136733610f95565b8015611378575061137781610df9565b5b61138157600080fd5b6005600081548092919061139490613229565b91905055506040518060c001604052806005548152602001600b600084815260200190815260200160002060080160019054906101000a900473ffffffffffffffffffffffffffffffffffffffff1673ffffffffffffffffffffffffffffffffffffffff1681526020013373ffffffffffffffffffffffffffffffffffffffff1681526020018281526020016000600481111561143457611433612aa3565b5b815260200160001515815250600c600060055481526020019081526020016000206000820151816000015560208201518160010160006101000a81548173ffffffffffffffffffffffffffffffffffffffff021916908373ffffffffffffffffffffffffffffffffffffffff16021790555060408201518160020160006101000a81548173ffffffffffffffffffffffffffffffffffffffff021916908373ffffffffffffffffffffffffffffffffffffffff1602179055506060820151816003015560808201518160040160006101000a81548160ff0219169083600481111561152257611521612aa3565b5b021790555060a08201518160040160016101000a81548160ff021916908315150217905550905050600d6000600b600084815260200190815260200160002060080160019054906101000a900473ffffffffffffffffffffffffffffffffffffffff1673ffffffffffffffffffffffffffffffffffffffff1673ffffffffffffffffffffffffffffffffffffffff1681526020019081526020016000206005549080600181540180825580915050600190039060005260206000200160009091909190915055600e60003373ffffffffffffffffffffffffffffffffffffffff1673ffffffffffffffffffffffffffffffffffffffff168152602001908152602001600020600554908060018154018082558091505060019003906000526020600020016000909190919091505550565b60066020528060005260406000206000915090508060000160009054906101000a900473ffffffffffffffffffffffffffffffffffffffff169080600101805461169c906132a1565b80601f01602080910402602001604051908101604052809291908181526020018280546116c8906132a1565b80156117155780601f106116ea57610100808354040283529160200191611715565b820191906000526020600020905b8154815290600101906020018083116116f857829003601f168201915b505050505090806002015490806003018054611730906132a1565b80601f016020809104026020016040519081016040528092919081815260200182805461175c906132a1565b80156117a95780601f1061177e576101008083540402835291602001916117a9565b820191906000526020600020905b81548152906001019060200180831161178c57829003601f168201915b5050505050908060040180546117be906132a1565b80601f01602080910402602001604051908101604052809291908181526020018280546117ea906132a1565b80156118375780601f1061180c57610100808354040283529160200191611837565b820191906000526020600020905b81548152906001019060200180831161181a57829003601f168201915b50505050509080600501805461184c906132a1565b80601f0160208091040260200160405190810160405280929190818152602001828054611878906132a1565b80156118c55780601f1061189a576101008083540402835291602001916118c5565b820191906000526020600020905b8154815290600101906020018083116118a857829003601f168201915b5050505050908060060180546118da906132a1565b80601f0160208091040260200160405190810160405280929190818152602001828054611906906132a1565b80156119535780601f1061192857610100808354040283529160200191611953565b820191906000526020600020905b81548152906001019060200180831161193657829003601f168201915b505050505090806007018054611968906132a1565b80601f0160208091040260200160405190810160405280929190818152602001828054611994906132a1565b80156119e15780601f106119b6576101008083540402835291602001916119e1565b820191906000526020600020905b8154815290600101906020018083116119c457829003601f168201915b5050505050908060080160009054906101000a900460ff16905089565b6000600c600083815260200190815260200160002060040160019054906101000a900460ff169050919050565b6000600160009054906101000a900473ffffffffffffffffffffffffffffffffffffffff1673ffffffffffffffffffffffffffffffffffffffff168273ffffffffffffffffffffffffffffffffffffffff161415611a8c5760019050611a91565b600090505b919050565b600b602052806000526040600020600091509050806000015490806001015490806002018054611ac5906132a1565b80601f0160208091040260200160405190810160405280929190818152602001828054611af1906132a1565b8015611b3e5780601f10611b1357610100808354040283529160200191611b3e565b820191906000526020600020905b815481529060010190602001808311611b2157829003601f168201915b505050505090806003015490806004018054611b59906132a1565b80601f0160208091040260200160405190810160405280929190818152602001828054611b85906132a1565b8015611bd25780601f10611ba757610100808354040283529160200191611bd2565b820191906000526020600020905b815481529060010190602001808311611bb557829003601f168201915b505050505090806005015490806006018054611bed906132a1565b80601f0160208091040260200160405190810160405280929190818152602001828054611c19906132a1565b8015611c665780601f10611c3b57610100808354040283529160200191611c66565b820191906000526020600020905b815481529060010190602001808311611c4957829003601f168201915b505050505090806007018054611c7b906132a1565b80601f0160208091040260200160405190810160405280929190818152602001828054611ca7906132a1565b8015611cf45780601f10611cc957610100808354040283529160200191611cf4565b820191906000526020600020905b815481529060010190602001808311611cd757829003601f168201915b5050505050908060080160009054906101000a900460ff16908060080160019054906101000a900473ffffffffffffffffffffffffffffffffffffffff16908060080160159054906101000a900460ff1690508b565b600960003373ffffffffffffffffffffffffffffffffffffffff1673ffffffffffffffffffffffffffffffffffffffff16815260200190815260200160002060009054906101000a900460ff1615611da157600080fd5b6001600960003373ffffffffffffffffffffffffffffffffffffffff1673ffffffffffffffffffffffffffffffffffffffff16815260200190815260200160002060006101000a81548160ff02191690831515021790555060026000815480929190611e0c90613229565b91905055506008600060018152602001908152602001600020339080600181540180825580915050600190039060005260206000200160009091909190916101000a81548173ffffffffffffffffffffffffffffffffffffffff021916908373ffffffffffffffffffffffffffffffffffffffff1602179055503360076000600254815260200190815260200160002060006101000a81548173ffffffffffffffffffffffffffffffffffffffff021916908373ffffffffffffffffffffffffffffffffffffffff1602179055506040518061012001604052803373ffffffffffffffffffffffffffffffffffffffff16815260200188815260200187815260200186815260200185815260200184815260200183815260200182815260200160001515815250600660003373ffffffffffffffffffffffffffffffffffffffff1673ffffffffffffffffffffffffffffffffffffffff16815260200190815260200160002060008201518160000160006101000a81548173ffffffffffffffffffffffffffffffffffffffff021916908373ffffffffffffffffffffffffffffffffffffffff1602179055506020820151816001019080519060200190611fd5929190612664565b50604082015181600201556060820151816003019080519060200190611ffc929190612664565b506080820151816004019080519060200190612019929190612664565b5060a0820151816005019080519060200190612036929190612664565b5060c0820151816006019080519060200190612053929190612664565b5060e0820151816007019080519060200190612070929190612664565b506101008201518160080160006101000a81548160ff02191690831515021790555090505050505050505050565b6001600b600083815260200190815260200160002060080160156101000a81548160ff02191690831515021790555050565b6000801515600c600085815260200190815260200160002060040160019054906101000a900460ff161515141561210a576000905061265e565b6004600081548092919061211d90613229565b91905055506004600c600085815260200190815260200160002060040160006101000a81548160ff0219169083600481111561215c5761215b612aa3565b5b0217905550600a6000600c600086815260200190815260200160002060020160009054906101000a900473ffffffffffffffffffffffffffffffffffffffff1673ffffffffffffffffffffffffffffffffffffffff1673ffffffffffffffffffffffffffffffffffffffff168152602001908152602001600020600c60008581526020019081526020016000206003015490806001815401808255809150506001900390600052602060002001600090919091909150556000600a6000600c600087815260200190815260200160002060010160009054906101000a900473ffffffffffffffffffffffffffffffffffffffff1673ffffffffffffffffffffffffffffffffffffffff1673ffffffffffffffffffffffffffffffffffffffff16815260200190815260200160002080549050905060005b8181101561253057600c600086815260200190815260200160002060030154600a6000600c600089815260200190815260200160002060010160009054906101000a900473ffffffffffffffffffffffffffffffffffffffff1673ffffffffffffffffffffffffffffffffffffffff1673ffffffffffffffffffffffffffffffffffffffff1681526020019081526020016000208281548110612339576123386132d3565b5b9060005260206000200154141561251d57600a6000600c600088815260200190815260200160002060010160009054906101000a900473ffffffffffffffffffffffffffffffffffffffff1673ffffffffffffffffffffffffffffffffffffffff1673ffffffffffffffffffffffffffffffffffffffff1681526020019081526020016000206001836123cc9190613302565b815481106123dd576123dc6132d3565b5b9060005260206000200154600a6000600c600089815260200190815260200160002060010160009054906101000a900473ffffffffffffffffffffffffffffffffffffffff1673ffffffffffffffffffffffffffffffffffffffff1673ffffffffffffffffffffffffffffffffffffffff168152602001908152602001600020828154811061246f5761246e6132d3565b5b9060005260206000200181905550600a6000600c600088815260200190815260200160002060010160009054906101000a900473ffffffffffffffffffffffffffffffffffffffff1673ffffffffffffffffffffffffffffffffffffffff1673ffffffffffffffffffffffffffffffffffffffff16815260200190815260200160002080548061250257612501613336565b5b60019003818190600052602060002001600090559055612530565b808061252890613229565b915050612293565b5082600b6000600c60008881526020019081526020016000206003015481526020019081526020016000206007019080519060200190612571929190612664565b506000600b6000600c600088815260200190815260200160002060030154815260200190815260200160002060080160006101000a81548160ff021916908315150217905550600c600085815260200190815260200160002060020160009054906101000a900473ffffffffffffffffffffffffffffffffffffffff16600b6000600c600088815260200190815260200160002060030154815260200190815260200160002060080160016101000a81548173ffffffffffffffffffffffffffffffffffffffff021916908373ffffffffffffffffffffffffffffffffffffffff16021790555060019150505b92915050565b828054612670906132a1565b90600052602060002090601f01602090048101928261269257600085556126d9565b82601f106126ab57805160ff19168380011785556126d9565b828001600101855582156126d9579182015b828111156126d85782518255916020019190600101906126bd565b5b5090506126e691906126ea565b5090565b5b808211156127035760008160009055506001016126eb565b5090565b6000819050919050565b61271a81612707565b82525050565b60006020820190506127356000830184612711565b92915050565b6000604051905090565b600080fd5b600080fd5b600073ffffffffffffffffffffffffffffffffffffffff82169050919050565b600061277a8261274f565b9050919050565b61278a8161276f565b811461279557600080fd5b50565b6000813590506127a781612781565b92915050565b6000602082840312156127c3576127c2612745565b5b60006127d184828501612798565b91505092915050565b60008115159050919050565b6127ef816127da565b82525050565b600060208201905061280a60008301846127e6565b92915050565b600081519050919050565b600082825260208201905092915050565b6000819050602082019050919050565b61284581612707565b82525050565b6000612857838361283c565b60208301905092915050565b6000602082019050919050565b600061287b82612810565b612885818561281b565b93506128908361282c565b8060005b838110156128c15781516128a8888261284b565b97506128b383612863565b925050600181019050612894565b5085935050505092915050565b600060208201905081810360008301526128e88184612870565b905092915050565b6128f981612707565b811461290457600080fd5b50565b600081359050612916816128f0565b92915050565b60006020828403121561293257612931612745565b5b600061294084828501612907565b91505092915050565b600081519050919050565b600082825260208201905092915050565b6000819050602082019050919050565b61297e8161276f565b82525050565b60006129908383612975565b60208301905092915050565b6000602082019050919050565b60006129b482612949565b6129be8185612954565b93506129c983612965565b8060005b838110156129fa5781516129e18882612984565b97506129ec8361299c565b9250506001810190506129cd565b5085935050505092915050565b60006020820190508181036000830152612a2181846129a9565b905092915050565b6000612a348261274f565b9050919050565b612a4481612a29565b8114612a4f57600080fd5b50565b600081359050612a6181612a3b565b92915050565b600060208284031215612a7d57612a7c612745565b5b6000612a8b84828501612a52565b91505092915050565b612a9d81612a29565b82525050565b7f4e487b7100000000000000000000000000000000000000000000000000000000600052602160045260246000fd5b60058110612ae357612ae2612aa3565b5b50565b6000819050612af482612ad2565b919050565b6000612b0482612ae6565b9050919050565b612b1481612af9565b82525050565b600060c082019050612b2f6000830189612711565b612b3c6020830188612a94565b612b496040830187612a94565b612b566060830186612711565b612b636080830185612b0b565b612b7060a08301846127e6565b979650505050505050565b600080fd5b600080fd5b6000601f19601f8301169050919050565b7f4e487b7100000000000000000000000000000000000000000000000000000000600052604160045260246000fd5b612bce82612b85565b810181811067ffffffffffffffff82111715612bed57612bec612b96565b5b80604052505050565b6000612c0061273b565b9050612c0c8282612bc5565b919050565b600067ffffffffffffffff821115612c2c57612c2b612b96565b5b612c3582612b85565b9050602081019050919050565b82818337600083830152505050565b6000612c64612c5f84612c11565b612bf6565b905082815260208101848484011115612c8057612c7f612b80565b5b612c8b848285612c42565b509392505050565b600082601f830112612ca857612ca7612b7b565b5b8135612cb8848260208601612c51565b91505092915050565b600080600080600080600060e0888a031215612ce057612cdf612745565b5b6000612cee8a828b01612907565b975050602088013567ffffffffffffffff811115612d0f57612d0e61274a565b5b612d1b8a828b01612c93565b9650506040612d2c8a828b01612907565b955050606088013567ffffffffffffffff811115612d4d57612d4c61274a565b5b612d598a828b01612c93565b9450506080612d6a8a828b01612907565b93505060a088013567ffffffffffffffff811115612d8b57612d8a61274a565b5b612d978a828b01612c93565b92505060c088013567ffffffffffffffff811115612db857612db761274a565b5b612dc48a828b01612c93565b91505092959891949750929550565b612ddc8161276f565b82525050565b600081519050919050565b600082825260208201905092915050565b60005b83811015612e1c578082015181840152602081019050612e01565b83811115612e2b576000848401525b50505050565b6000612e3c82612de2565b612e468185612ded565b9350612e56818560208601612dfe565b612e5f81612b85565b840191505092915050565b600061012082019050612e80600083018c612dd3565b8181036020830152612e92818b612e31565b9050612ea1604083018a612711565b8181036060830152612eb38189612e31565b90508181036080830152612ec78188612e31565b905081810360a0830152612edb8187612e31565b905081810360c0830152612eef8186612e31565b905081810360e0830152612f038185612e31565b9050612f136101008301846127e6565b9a9950505050505050505050565b600061016082019050612f37600083018e612711565b612f44602083018d612711565b8181036040830152612f56818c612e31565b9050612f65606083018b612711565b8181036080830152612f77818a612e31565b9050612f8660a0830189612711565b81810360c0830152612f988188612e31565b905081810360e0830152612fac8187612e31565b9050612fbc6101008301866127e6565b612fca610120830185612a94565b612fd86101408301846127e6565b9c9b505050505050505050505050565b600080600080600080600060e0888a03121561300757613006612745565b5b600088013567ffffffffffffffff8111156130255761302461274a565b5b6130318a828b01612c93565b97505060206130428a828b01612907565b965050604088013567ffffffffffffffff8111156130635761306261274a565b5b61306f8a828b01612c93565b955050606088013567ffffffffffffffff8111156130905761308f61274a565b5b61309c8a828b01612c93565b945050608088013567ffffffffffffffff8111156130bd576130bc61274a565b5b6130c98a828b01612c93565b93505060a088013567ffffffffffffffff8111156130ea576130e961274a565b5b6130f68a828b01612c93565b92505060c088013567ffffffffffffffff8111156131175761311661274a565b5b6131238a828b01612c93565b91505092959891949750929550565b6000806040838503121561314957613148612745565b5b600061315785828601612907565b925050602083013567ffffffffffffffff8111156131785761317761274a565b5b61318485828601612c93565b9150509250929050565b7f796f7520617265206e6f7420636f6e74726163744f776e657200000000000000600082015250565b60006131c4601983612ded565b91506131cf8261318e565b602082019050919050565b600060208201905081810360008301526131f3816131b7565b9050919050565b7f4e487b7100000000000000000000000000000000000000000000000000000000600052601160045260246000fd5b600061323482612707565b91507fffffffffffffffffffffffffffffffffffffffffffffffffffffffffffffffff821415613267576132666131fa565b5b600182019050919050565b7f4e487b7100000000000000000000000000000000000000000000000000000000600052602260045260246000fd5b600060028204905060018216806132b957607f821691505b602082108114156132cd576132cc613272565b5b50919050565b7f4e487b7100000000000000000000000000000000000000000000000000000000600052603260045260246000fd5b600061330d82612707565b915061331883612707565b92508282101561332b5761332a6131fa565b5b828203905092915050565b7f4e487b7100000000000000000000000000000000000000000000000000000000600052603160045260246000fdfea26469706673582212201b32d314767fae2d750e5f010aff62ff1ed5f53397b496f2760b02bdf95a6abd64736f6c63430008080033",
          "opcodes": "PUSH1 0x80 PUSH1 0x40 MSTORE CALLVALUE DUP1 ISZERO PUSH2 0x10 JUMPI PUSH1 0x0 DUP1 REVERT JUMPDEST POP PUSH1 0x1 PUSH1 0x0 DUP2 SWAP1 SSTORE POP CALLER PUSH1 0x1 PUSH1 0x0 PUSH2 0x100 EXP DUP2 SLOAD DUP2 PUSH20 0xFFFFFFFFFFFFFFFFFFFFFFFFFFFFFFFFFFFFFFFF MUL NOT AND SWAP1 DUP4 PUSH20 0xFFFFFFFFFFFFFFFFFFFFFFFFFFFFFFFFFFFFFFFF AND MUL OR SWAP1 SSTORE POP PUSH2 0x339B DUP1 PUSH2 0x69 PUSH1 0x0 CODECOPY PUSH1 0x0 RETURN INVALID PUSH1 0x80 PUSH1 0x40 MSTORE PUSH1 0x4 CALLDATASIZE LT PUSH2 0x1C2 JUMPI PUSH1 0x0 CALLDATALOAD PUSH1 0xE0 SHR DUP1 PUSH4 0x995A8D96 GT PUSH2 0xF7 JUMPI DUP1 PUSH4 0xD3B368C0 GT PUSH2 0x95 JUMPI DUP1 PUSH4 0xE261F1E5 GT PUSH2 0x64 JUMPI DUP1 PUSH4 0xE261F1E5 EQ PUSH2 0x67F JUMPI DUP1 PUSH4 0xEDFBE247 EQ PUSH2 0x6C6 JUMPI DUP1 PUSH4 0xF9C43BDF EQ PUSH2 0x6EF JUMPI DUP1 PUSH4 0xFA024549 EQ PUSH2 0x718 JUMPI PUSH2 0x1C2 JUMP JUMPDEST DUP1 PUSH4 0xD3B368C0 EQ PUSH2 0x597 JUMPI DUP1 PUSH4 0xD61FF68C EQ PUSH2 0x5C0 JUMPI DUP1 PUSH4 0xD8513DE4 EQ PUSH2 0x605 JUMPI DUP1 PUSH4 0xDE117688 EQ PUSH2 0x642 JUMPI PUSH2 0x1C2 JUMP JUMPDEST DUP1 PUSH4 0xACE417E0 GT PUSH2 0xD1 JUMPI DUP1 PUSH4 0xACE417E0 EQ PUSH2 0x4B2 JUMPI DUP1 PUSH4 0xB10A30ED EQ PUSH2 0x4EF JUMPI DUP1 PUSH4 0xCCFDC19B EQ PUSH2 0x531 JUMPI DUP1 PUSH4 0xD196EBF2 EQ PUSH2 0x55A JUMPI PUSH2 0x1C2 JUMP JUMPDEST DUP1 PUSH4 0x995A8D96 EQ PUSH2 0x440 JUMPI DUP1 PUSH4 0x9C32E3B4 EQ PUSH2 0x45C JUMPI DUP1 PUSH4 0xA846FC8F EQ PUSH2 0x487 JUMPI PUSH2 0x1C2 JUMP JUMPDEST DUP1 PUSH4 0x4BA1F098 GT PUSH2 0x164 JUMPI DUP1 PUSH4 0x553A998D GT PUSH2 0x13E JUMPI DUP1 PUSH4 0x553A998D EQ PUSH2 0x370 JUMPI DUP1 PUSH4 0x6CBF6CF8 EQ PUSH2 0x39B JUMPI DUP1 PUSH4 0x78F7C83F EQ PUSH2 0x3D8 JUMPI DUP1 PUSH4 0x7BB2D6DB EQ PUSH2 0x403 JUMPI PUSH2 0x1C2 JUMP JUMPDEST DUP1 PUSH4 0x4BA1F098 EQ PUSH2 0x302 JUMPI DUP1 PUSH4 0x4D813120 EQ PUSH2 0x32B JUMPI DUP1 PUSH4 0x5114CB52 EQ PUSH2 0x354 JUMPI PUSH2 0x1C2 JUMP JUMPDEST DUP1 PUSH4 0x23393D77 GT PUSH2 0x1A0 JUMPI DUP1 PUSH4 0x23393D77 EQ PUSH2 0x25A JUMPI DUP1 PUSH4 0x2D7788DB EQ PUSH2 0x285 JUMPI DUP1 PUSH4 0x3EAD67B5 EQ PUSH2 0x2AE JUMPI DUP1 PUSH4 0x499701B2 EQ PUSH2 0x2D7 JUMPI PUSH2 0x1C2 JUMP JUMPDEST DUP1 PUSH4 0x7973CCF EQ PUSH2 0x1C7 JUMPI DUP1 PUSH4 0x163F7522 EQ PUSH2 0x1F2 JUMPI DUP1 PUSH4 0x1C9AFD0F EQ PUSH2 0x22F JUMPI JUMPDEST PUSH1 0x0 DUP1 REVERT JUMPDEST CALLVALUE DUP1 ISZERO PUSH2 0x1D3 JUMPI PUSH1 0x0 DUP1 REVERT JUMPDEST POP PUSH2 0x1DC PUSH2 0x755 JUMP JUMPDEST PUSH1 0x40 MLOAD PUSH2 0x1E9 SWAP2 SWAP1 PUSH2 0x2720 JUMP JUMPDEST PUSH1 0x40 MLOAD DUP1 SWAP2 SUB SWAP1 RETURN JUMPDEST CALLVALUE DUP1 ISZERO PUSH2 0x1FE JUMPI PUSH1 0x0 DUP1 REVERT JUMPDEST POP PUSH2 0x219 PUSH1 0x4 DUP1 CALLDATASIZE SUB DUP2 ADD SWAP1 PUSH2 0x214 SWAP2 SWAP1 PUSH2 0x27AD JUMP JUMPDEST PUSH2 0x75B JUMP JUMPDEST PUSH1 0x40 MLOAD PUSH2 0x226 SWAP2 SWAP1 PUSH2 0x27F5 JUMP JUMPDEST PUSH1 0x40 MLOAD DUP1 SWAP2 SUB SWAP1 RETURN JUMPDEST CALLVALUE DUP1 ISZERO PUSH2 0x23B JUMPI PUSH1 0x0 DUP1 REVERT JUMPDEST POP PUSH2 0x244 PUSH2 0x7C2 JUMP JUMPDEST PUSH1 0x40 MLOAD PUSH2 0x251 SWAP2 SWAP1 PUSH2 0x2720 JUMP JUMPDEST PUSH1 0x40 MLOAD DUP1 SWAP2 SUB SWAP1 RETURN JUMPDEST CALLVALUE DUP1 ISZERO PUSH2 0x266 JUMPI PUSH1 0x0 DUP1 REVERT JUMPDEST POP PUSH2 0x26F PUSH2 0x7C8 JUMP JUMPDEST PUSH1 0x40 MLOAD PUSH2 0x27C SWAP2 SWAP1 PUSH2 0x28CE JUMP JUMPDEST PUSH1 0x40 MLOAD DUP1 SWAP2 SUB SWAP1 RETURN JUMPDEST CALLVALUE DUP1 ISZERO PUSH2 0x291 JUMPI PUSH1 0x0 DUP1 REVERT JUMPDEST POP PUSH2 0x2AC PUSH1 0x4 DUP1 CALLDATASIZE SUB DUP2 ADD SWAP1 PUSH2 0x2A7 SWAP2 SWAP1 PUSH2 0x291C JUMP JUMPDEST PUSH2 0x832 JUMP JUMPDEST STOP JUMPDEST CALLVALUE DUP1 ISZERO PUSH2 0x2BA JUMPI PUSH1 0x0 DUP1 REVERT JUMPDEST POP PUSH2 0x2D5 PUSH1 0x4 DUP1 CALLDATASIZE SUB DUP2 ADD SWAP1 PUSH2 0x2D0 SWAP2 SWAP1 PUSH2 0x27AD JUMP JUMPDEST PUSH2 0x8E2 JUMP JUMPDEST STOP JUMPDEST CALLVALUE DUP1 ISZERO PUSH2 0x2E3 JUMPI PUSH1 0x0 DUP1 REVERT JUMPDEST POP PUSH2 0x2EC PUSH2 0x9B6 JUMP JUMPDEST PUSH1 0x40 MLOAD PUSH2 0x2F9 SWAP2 SWAP1 PUSH2 0x28CE JUMP JUMPDEST PUSH1 0x40 MLOAD DUP1 SWAP2 SUB SWAP1 RETURN JUMPDEST CALLVALUE DUP1 ISZERO PUSH2 0x30E JUMPI PUSH1 0x0 DUP1 REVERT JUMPDEST POP PUSH2 0x329 PUSH1 0x4 DUP1 CALLDATASIZE SUB DUP2 ADD SWAP1 PUSH2 0x324 SWAP2 SWAP1 PUSH2 0x291C JUMP JUMPDEST PUSH2 0xA4B JUMP JUMPDEST STOP JUMPDEST CALLVALUE DUP1 ISZERO PUSH2 0x337 JUMPI PUSH1 0x0 DUP1 REVERT JUMPDEST POP PUSH2 0x352 PUSH1 0x4 DUP1 CALLDATASIZE SUB DUP2 ADD SWAP1 PUSH2 0x34D SWAP2 SWAP1 PUSH2 0x27AD JUMP JUMPDEST PUSH2 0xAFB JUMP JUMPDEST STOP JUMPDEST PUSH2 0x36E PUSH1 0x4 DUP1 CALLDATASIZE SUB DUP2 ADD SWAP1 PUSH2 0x369 SWAP2 SWAP1 PUSH2 0x291C JUMP JUMPDEST PUSH2 0xB59 JUMP JUMPDEST STOP JUMPDEST CALLVALUE DUP1 ISZERO PUSH2 0x37C JUMPI PUSH1 0x0 DUP1 REVERT JUMPDEST POP PUSH2 0x385 PUSH2 0xD59 JUMP JUMPDEST PUSH1 0x40 MLOAD PUSH2 0x392 SWAP2 SWAP1 PUSH2 0x2A07 JUMP JUMPDEST PUSH1 0x40 MLOAD DUP1 SWAP2 SUB SWAP1 RETURN JUMPDEST CALLVALUE DUP1 ISZERO PUSH2 0x3A7 JUMPI PUSH1 0x0 DUP1 REVERT JUMPDEST POP PUSH2 0x3C2 PUSH1 0x4 DUP1 CALLDATASIZE SUB DUP2 ADD SWAP1 PUSH2 0x3BD SWAP2 SWAP1 PUSH2 0x291C JUMP JUMPDEST PUSH2 0xDF9 JUMP JUMPDEST PUSH1 0x40 MLOAD PUSH2 0x3CF SWAP2 SWAP1 PUSH2 0x27F5 JUMP JUMPDEST PUSH1 0x40 MLOAD DUP1 SWAP2 SUB SWAP1 RETURN JUMPDEST CALLVALUE DUP1 ISZERO PUSH2 0x3E4 JUMPI PUSH1 0x0 DUP1 REVERT JUMPDEST POP PUSH2 0x3ED PUSH2 0xE26 JUMP JUMPDEST PUSH1 0x40 MLOAD PUSH2 0x3FA SWAP2 SWAP1 PUSH2 0x2720 JUMP JUMPDEST PUSH1 0x40 MLOAD DUP1 SWAP2 SUB SWAP1 RETURN JUMPDEST CALLVALUE DUP1 ISZERO PUSH2 0x40F JUMPI PUSH1 0x0 DUP1 REVERT JUMPDEST POP PUSH2 0x42A PUSH1 0x4 DUP1 CALLDATASIZE SUB DUP2 ADD SWAP1 PUSH2 0x425 SWAP2 SWAP1 PUSH2 0x291C JUMP JUMPDEST PUSH2 0xE2C JUMP JUMPDEST PUSH1 0x40 MLOAD PUSH2 0x437 SWAP2 SWAP1 PUSH2 0x2720 JUMP JUMPDEST PUSH1 0x40 MLOAD DUP1 SWAP2 SUB SWAP1 RETURN JUMPDEST PUSH2 0x45A PUSH1 0x4 DUP1 CALLDATASIZE SUB DUP2 ADD SWAP1 PUSH2 0x455 SWAP2 SWAP1 PUSH2 0x2A67 JUMP JUMPDEST PUSH2 0xE4C JUMP JUMPDEST STOP JUMPDEST CALLVALUE DUP1 ISZERO PUSH2 0x468 JUMPI PUSH1 0x0 DUP1 REVERT JUMPDEST POP PUSH2 0x471 PUSH2 0xE96 JUMP JUMPDEST PUSH1 0x40 MLOAD PUSH2 0x47E SWAP2 SWAP1 PUSH2 0x28CE JUMP JUMPDEST PUSH1 0x40 MLOAD DUP1 SWAP2 SUB SWAP1 RETURN JUMPDEST CALLVALUE DUP1 ISZERO PUSH2 0x493 JUMPI PUSH1 0x0 DUP1 REVERT JUMPDEST POP PUSH2 0x49C PUSH2 0xF2B JUMP JUMPDEST PUSH1 0x40 MLOAD PUSH2 0x4A9 SWAP2 SWAP1 PUSH2 0x28CE JUMP JUMPDEST PUSH1 0x40 MLOAD DUP1 SWAP2 SUB SWAP1 RETURN JUMPDEST CALLVALUE DUP1 ISZERO PUSH2 0x4BE JUMPI PUSH1 0x0 DUP1 REVERT JUMPDEST POP PUSH2 0x4D9 PUSH1 0x4 DUP1 CALLDATASIZE SUB DUP2 ADD SWAP1 PUSH2 0x4D4 SWAP2 SWAP1 PUSH2 0x27AD JUMP JUMPDEST PUSH2 0xF95 JUMP JUMPDEST PUSH1 0x40 MLOAD PUSH2 0x4E6 SWAP2 SWAP1 PUSH2 0x27F5 JUMP JUMPDEST PUSH1 0x40 MLOAD DUP1 SWAP2 SUB SWAP1 RETURN JUMPDEST CALLVALUE DUP1 ISZERO PUSH2 0x4FB JUMPI PUSH1 0x0 DUP1 REVERT JUMPDEST POP PUSH2 0x516 PUSH1 0x4 DUP1 CALLDATASIZE SUB DUP2 ADD SWAP1 PUSH2 0x511 SWAP2 SWAP1 PUSH2 0x291C JUMP JUMPDEST PUSH2 0xFEE JUMP JUMPDEST PUSH1 0x40 MLOAD PUSH2 0x528 SWAP7 SWAP6 SWAP5 SWAP4 SWAP3 SWAP2 SWAP1 PUSH2 0x2B1A JUMP JUMPDEST PUSH1 0x40 MLOAD DUP1 SWAP2 SUB SWAP1 RETURN JUMPDEST CALLVALUE DUP1 ISZERO PUSH2 0x53D JUMPI PUSH1 0x0 DUP1 REVERT JUMPDEST POP PUSH2 0x558 PUSH1 0x4 DUP1 CALLDATASIZE SUB DUP2 ADD SWAP1 PUSH2 0x553 SWAP2 SWAP1 PUSH2 0x2CC1 JUMP JUMPDEST PUSH2 0x1084 JUMP JUMPDEST STOP JUMPDEST CALLVALUE DUP1 ISZERO PUSH2 0x566 JUMPI PUSH1 0x0 DUP1 REVERT JUMPDEST POP PUSH2 0x581 PUSH1 0x4 DUP1 CALLDATASIZE SUB DUP2 ADD SWAP1 PUSH2 0x57C SWAP2 SWAP1 PUSH2 0x27AD JUMP JUMPDEST PUSH2 0x12C7 JUMP JUMPDEST PUSH1 0x40 MLOAD PUSH2 0x58E SWAP2 SWAP1 PUSH2 0x28CE JUMP JUMPDEST PUSH1 0x40 MLOAD DUP1 SWAP2 SUB SWAP1 RETURN JUMPDEST CALLVALUE DUP1 ISZERO PUSH2 0x5A3 JUMPI PUSH1 0x0 DUP1 REVERT JUMPDEST POP PUSH2 0x5BE PUSH1 0x4 DUP1 CALLDATASIZE SUB DUP2 ADD SWAP1 PUSH2 0x5B9 SWAP2 SWAP1 PUSH2 0x291C JUMP JUMPDEST PUSH2 0x135E JUMP JUMPDEST STOP JUMPDEST CALLVALUE DUP1 ISZERO PUSH2 0x5CC JUMPI PUSH1 0x0 DUP1 REVERT JUMPDEST POP PUSH2 0x5E7 PUSH1 0x4 DUP1 CALLDATASIZE SUB DUP2 ADD SWAP1 PUSH2 0x5E2 SWAP2 SWAP1 PUSH2 0x27AD JUMP JUMPDEST PUSH2 0x1653 JUMP JUMPDEST PUSH1 0x40 MLOAD PUSH2 0x5FC SWAP10 SWAP9 SWAP8 SWAP7 SWAP6 SWAP5 SWAP4 SWAP3 SWAP2 SWAP1 PUSH2 0x2E6A JUMP JUMPDEST PUSH1 0x40 MLOAD DUP1 SWAP2 SUB SWAP1 RETURN JUMPDEST CALLVALUE DUP1 ISZERO PUSH2 0x611 JUMPI PUSH1 0x0 DUP1 REVERT JUMPDEST POP PUSH2 0x62C PUSH1 0x4 DUP1 CALLDATASIZE SUB DUP2 ADD SWAP1 PUSH2 0x627 SWAP2 SWAP1 PUSH2 0x291C JUMP JUMPDEST PUSH2 0x19FE JUMP JUMPDEST PUSH1 0x40 MLOAD PUSH2 0x639 SWAP2 SWAP1 PUSH2 0x27F5 JUMP JUMPDEST PUSH1 0x40 MLOAD DUP1 SWAP2 SUB SWAP1 RETURN JUMPDEST CALLVALUE DUP1 ISZERO PUSH2 0x64E JUMPI PUSH1 0x0 DUP1 REVERT JUMPDEST POP PUSH2 0x669 PUSH1 0x4 DUP1 CALLDATASIZE SUB DUP2 ADD SWAP1 PUSH2 0x664 SWAP2 SWAP1 PUSH2 0x27AD JUMP JUMPDEST PUSH2 0x1A2B JUMP JUMPDEST PUSH1 0x40 MLOAD PUSH2 0x676 SWAP2 SWAP1 PUSH2 0x27F5 JUMP JUMPDEST PUSH1 0x40 MLOAD DUP1 SWAP2 SUB SWAP1 RETURN JUMPDEST CALLVALUE DUP1 ISZERO PUSH2 0x68B JUMPI PUSH1 0x0 DUP1 REVERT JUMPDEST POP PUSH2 0x6A6 PUSH1 0x4 DUP1 CALLDATASIZE SUB DUP2 ADD SWAP1 PUSH2 0x6A1 SWAP2 SWAP1 PUSH2 0x291C JUMP JUMPDEST PUSH2 0x1A96 JUMP JUMPDEST PUSH1 0x40 MLOAD PUSH2 0x6BD SWAP12 SWAP11 SWAP10 SWAP9 SWAP8 SWAP7 SWAP6 SWAP5 SWAP4 SWAP3 SWAP2 SWAP1 PUSH2 0x2F21 JUMP JUMPDEST PUSH1 0x40 MLOAD DUP1 SWAP2 SUB SWAP1 RETURN JUMPDEST CALLVALUE DUP1 ISZERO PUSH2 0x6D2 JUMPI PUSH1 0x0 DUP1 REVERT JUMPDEST POP PUSH2 0x6ED PUSH1 0x4 DUP1 CALLDATASIZE SUB DUP2 ADD SWAP1 PUSH2 0x6E8 SWAP2 SWAP1 PUSH2 0x2FE8 JUMP JUMPDEST PUSH2 0x1D4A JUMP JUMPDEST STOP JUMPDEST CALLVALUE DUP1 ISZERO PUSH2 0x6FB JUMPI PUSH1 0x0 DUP1 REVERT JUMPDEST POP PUSH2 0x716 PUSH1 0x4 DUP1 CALLDATASIZE SUB DUP2 ADD SWAP1 PUSH2 0x711 SWAP2 SWAP1 PUSH2 0x291C JUMP JUMPDEST PUSH2 0x209E JUMP JUMPDEST STOP JUMPDEST CALLVALUE DUP1 ISZERO PUSH2 0x724 JUMPI PUSH1 0x0 DUP1 REVERT JUMPDEST POP PUSH2 0x73F PUSH1 0x4 DUP1 CALLDATASIZE SUB DUP2 ADD SWAP1 PUSH2 0x73A SWAP2 SWAP1 PUSH2 0x3132 JUMP JUMPDEST PUSH2 0x20D0 JUMP JUMPDEST PUSH1 0x40 MLOAD PUSH2 0x74C SWAP2 SWAP1 PUSH2 0x27F5 JUMP JUMPDEST PUSH1 0x40 MLOAD DUP1 SWAP2 SUB SWAP1 RETURN JUMPDEST PUSH1 0x2 SLOAD DUP2 JUMP JUMPDEST PUSH1 0x0 PUSH1 0x9 PUSH1 0x0 DUP4 PUSH20 0xFFFFFFFFFFFFFFFFFFFFFFFFFFFFFFFFFFFFFFFF AND PUSH20 0xFFFFFFFFFFFFFFFFFFFFFFFFFFFFFFFFFFFFFFFF AND DUP2 MSTORE PUSH1 0x20 ADD SWAP1 DUP2 MSTORE PUSH1 0x20 ADD PUSH1 0x0 KECCAK256 PUSH1 0x0 SWAP1 SLOAD SWAP1 PUSH2 0x100 EXP SWAP1 DIV PUSH1 0xFF AND ISZERO PUSH2 0x7B8 JUMPI PUSH1 0x1 SWAP1 POP PUSH2 0x7BD JUMP JUMPDEST PUSH1 0x0 SWAP1 POP JUMPDEST SWAP2 SWAP1 POP JUMP JUMPDEST PUSH1 0x3 SLOAD DUP2 JUMP JUMPDEST PUSH1 0x60 PUSH1 0xF PUSH1 0x0 PUSH1 0x1 DUP2 MSTORE PUSH1 0x20 ADD SWAP1 DUP2 MSTORE PUSH1 0x20 ADD PUSH1 0x0 KECCAK256 DUP1 SLOAD DUP1 PUSH1 0x20 MUL PUSH1 0x20 ADD PUSH1 0x40 MLOAD SWAP1 DUP2 ADD PUSH1 0x40 MSTORE DUP1 SWAP3 SWAP2 SWAP1 DUP2 DUP2 MSTORE PUSH1 0x20 ADD DUP3 DUP1 SLOAD DUP1 ISZERO PUSH2 0x828 JUMPI PUSH1 0x20 MUL DUP3 ADD SWAP2 SWAP1 PUSH1 0x0 MSTORE PUSH1 0x20 PUSH1 0x0 KECCAK256 SWAP1 JUMPDEST DUP2 SLOAD DUP2 MSTORE PUSH1 0x20 ADD SWAP1 PUSH1 0x1 ADD SWAP1 DUP1 DUP4 GT PUSH2 0x814 JUMPI JUMPDEST POP POP POP POP POP SWAP1 POP SWAP1 JUMP JUMPDEST CALLER PUSH20 0xFFFFFFFFFFFFFFFFFFFFFFFFFFFFFFFFFFFFFFFF AND PUSH1 0xC PUSH1 0x0 DUP4 DUP2 MSTORE PUSH1 0x20 ADD SWAP1 DUP2 MSTORE PUSH1 0x20 ADD PUSH1 0x0 KECCAK256 PUSH1 0x1 ADD PUSH1 0x0 SWAP1 SLOAD SWAP1 PUSH2 0x100 EXP SWAP1 DIV PUSH20 0xFFFFFFFFFFFFFFFFFFFFFFFFFFFFFFFFFFFFFFFF AND PUSH20 0xFFFFFFFFFFFFFFFFFFFFFFFFFFFFFFFFFFFFFFFF AND EQ PUSH2 0x8A0 JUMPI PUSH1 0x0 DUP1 REVERT JUMPDEST PUSH1 0x2 PUSH1 0xC PUSH1 0x0 DUP4 DUP2 MSTORE PUSH1 0x20 ADD SWAP1 DUP2 MSTORE PUSH1 0x20 ADD PUSH1 0x0 KECCAK256 PUSH1 0x4 ADD PUSH1 0x0 PUSH2 0x100 EXP DUP2 SLOAD DUP2 PUSH1 0xFF MUL NOT AND SWAP1 DUP4 PUSH1 0x4 DUP2 GT ISZERO PUSH2 0x8DA JUMPI PUSH2 0x8D9 PUSH2 0x2AA3 JUMP JUMPDEST JUMPDEST MUL OR SWAP1 SSTORE POP POP JUMP JUMPDEST PUSH1 0x1 PUSH1 0x0 SWAP1 SLOAD SWAP1 PUSH2 0x100 EXP SWAP1 DIV PUSH20 0xFFFFFFFFFFFFFFFFFFFFFFFFFFFFFFFFFFFFFFFF AND PUSH20 0xFFFFFFFFFFFFFFFFFFFFFFFFFFFFFFFFFFFFFFFF AND CALLER PUSH20 0xFFFFFFFFFFFFFFFFFFFFFFFFFFFFFFFFFFFFFFFF AND EQ PUSH2 0x972 JUMPI PUSH1 0x40 MLOAD PUSH32 0x8C379A000000000000000000000000000000000000000000000000000000000 DUP2 MSTORE PUSH1 0x4 ADD PUSH2 0x969 SWAP1 PUSH2 0x31DA JUMP JUMPDEST PUSH1 0x40 MLOAD DUP1 SWAP2 SUB SWAP1 REVERT JUMPDEST DUP1 PUSH1 0x1 PUSH1 0x0 PUSH2 0x100 EXP DUP2 SLOAD DUP2 PUSH20 0xFFFFFFFFFFFFFFFFFFFFFFFFFFFFFFFFFFFFFFFF MUL NOT AND SWAP1 DUP4 PUSH20 0xFFFFFFFFFFFFFFFFFFFFFFFFFFFFFFFFFFFFFFFF AND MUL OR SWAP1 SSTORE POP POP JUMP JUMPDEST PUSH1 0x60 PUSH1 0xD PUSH1 0x0 CALLER PUSH20 0xFFFFFFFFFFFFFFFFFFFFFFFFFFFFFFFFFFFFFFFF AND PUSH20 0xFFFFFFFFFFFFFFFFFFFFFFFFFFFFFFFFFFFFFFFF AND DUP2 MSTORE PUSH1 0x20 ADD SWAP1 DUP2 MSTORE PUSH1 0x20 ADD PUSH1 0x0 KECCAK256 DUP1 SLOAD DUP1 PUSH1 0x20 MUL PUSH1 0x20 ADD PUSH1 0x40 MLOAD SWAP1 DUP2 ADD PUSH1 0x40 MSTORE DUP1 SWAP3 SWAP2 SWAP1 DUP2 DUP2 MSTORE PUSH1 0x20 ADD DUP3 DUP1 SLOAD DUP1 ISZERO PUSH2 0xA41 JUMPI PUSH1 0x20 MUL DUP3 ADD SWAP2 SWAP1 PUSH1 0x0 MSTORE PUSH1 0x20 PUSH1 0x0 KECCAK256 SWAP1 JUMPDEST DUP2 SLOAD DUP2 MSTORE PUSH1 0x20 ADD SWAP1 PUSH1 0x1 ADD SWAP1 DUP1 DUP4 GT PUSH2 0xA2D JUMPI JUMPDEST POP POP POP POP POP SWAP1 POP SWAP1 JUMP JUMPDEST CALLER PUSH20 0xFFFFFFFFFFFFFFFFFFFFFFFFFFFFFFFFFFFFFFFF AND PUSH1 0xC PUSH1 0x0 DUP4 DUP2 MSTORE PUSH1 0x20 ADD SWAP1 DUP2 MSTORE PUSH1 0x20 ADD PUSH1 0x0 KECCAK256 PUSH1 0x1 ADD PUSH1 0x0 SWAP1 SLOAD SWAP1 PUSH2 0x100 EXP SWAP1 DIV PUSH20 0xFFFFFFFFFFFFFFFFFFFFFFFFFFFFFFFFFFFFFFFF AND PUSH20 0xFFFFFFFFFFFFFFFFFFFFFFFFFFFFFFFFFFFFFFFF AND EQ PUSH2 0xAB9 JUMPI PUSH1 0x0 DUP1 REVERT JUMPDEST PUSH1 0x1 PUSH1 0xC PUSH1 0x0 DUP4 DUP2 MSTORE PUSH1 0x20 ADD SWAP1 DUP2 MSTORE PUSH1 0x20 ADD PUSH1 0x0 KECCAK256 PUSH1 0x4 ADD PUSH1 0x0 PUSH2 0x100 EXP DUP2 SLOAD DUP2 PUSH1 0xFF MUL NOT AND SWAP1 DUP4 PUSH1 0x4 DUP2 GT ISZERO PUSH2 0xAF3 JUMPI PUSH2 0xAF2 PUSH2 0x2AA3 JUMP JUMPDEST JUMPDEST MUL OR SWAP1 SSTORE POP POP JUMP JUMPDEST PUSH1 0x1 PUSH1 0x6 PUSH1 0x0 DUP4 PUSH20 0xFFFFFFFFFFFFFFFFFFFFFFFFFFFFFFFFFFFFFFFF AND PUSH20 0xFFFFFFFFFFFFFFFFFFFFFFFFFFFFFFFFFFFFFFFF AND DUP2 MSTORE PUSH1 0x20 ADD SWAP1 DUP2 MSTORE PUSH1 0x20 ADD PUSH1 0x0 KECCAK256 PUSH1 0x8 ADD PUSH1 0x0 PUSH2 0x100 EXP DUP2 SLOAD DUP2 PUSH1 0xFF MUL NOT AND SWAP1 DUP4 ISZERO ISZERO MUL OR SWAP1 SSTORE POP POP JUMP JUMPDEST CALLER PUSH20 0xFFFFFFFFFFFFFFFFFFFFFFFFFFFFFFFFFFFFFFFF AND PUSH1 0xC PUSH1 0x0 DUP4 DUP2 MSTORE PUSH1 0x20 ADD SWAP1 DUP2 MSTORE PUSH1 0x20 ADD PUSH1 0x0 KECCAK256 PUSH1 0x2 ADD PUSH1 0x0 SWAP1 SLOAD SWAP1 PUSH2 0x100 EXP SWAP1 DIV PUSH20 0xFFFFFFFFFFFFFFFFFFFFFFFFFFFFFFFFFFFFFFFF AND PUSH20 0xFFFFFFFFFFFFFFFFFFFFFFFFFFFFFFFFFFFFFFFF AND EQ DUP1 ISZERO PUSH2 0xC11 JUMPI POP PUSH1 0x1 PUSH1 0x4 DUP2 GT ISZERO PUSH2 0xBD9 JUMPI PUSH2 0xBD8 PUSH2 0x2AA3 JUMP JUMPDEST JUMPDEST PUSH1 0xC PUSH1 0x0 DUP4 DUP2 MSTORE PUSH1 0x20 ADD SWAP1 DUP2 MSTORE PUSH1 0x20 ADD PUSH1 0x0 KECCAK256 PUSH1 0x4 ADD PUSH1 0x0 SWAP1 SLOAD SWAP1 PUSH2 0x100 EXP SWAP1 DIV PUSH1 0xFF AND PUSH1 0x4 DUP2 GT ISZERO PUSH2 0xC0F JUMPI PUSH2 0xC0E PUSH2 0x2AA3 JUMP JUMPDEST JUMPDEST EQ JUMPDEST PUSH2 0xC1A JUMPI PUSH1 0x0 DUP1 REVERT JUMPDEST PUSH1 0x3 PUSH1 0xC PUSH1 0x0 DUP4 DUP2 MSTORE PUSH1 0x20 ADD SWAP1 DUP2 MSTORE PUSH1 0x20 ADD PUSH1 0x0 KECCAK256 PUSH1 0x4 ADD PUSH1 0x0 PUSH2 0x100 EXP DUP2 SLOAD DUP2 PUSH1 0xFF MUL NOT AND SWAP1 DUP4 PUSH1 0x4 DUP2 GT ISZERO PUSH2 0xC54 JUMPI PUSH2 0xC53 PUSH2 0x2AA3 JUMP JUMPDEST JUMPDEST MUL OR SWAP1 SSTORE POP PUSH1 0xB PUSH1 0x0 PUSH1 0xC PUSH1 0x0 DUP5 DUP2 MSTORE PUSH1 0x20 ADD SWAP1 DUP2 MSTORE PUSH1 0x20 ADD PUSH1 0x0 KECCAK256 PUSH1 0x3 ADD SLOAD DUP2 MSTORE PUSH1 0x20 ADD SWAP1 DUP2 MSTORE PUSH1 0x20 ADD PUSH1 0x0 KECCAK256 PUSH1 0x8 ADD PUSH1 0x1 SWAP1 SLOAD SWAP1 PUSH2 0x100 EXP SWAP1 DIV PUSH20 0xFFFFFFFFFFFFFFFFFFFFFFFFFFFFFFFFFFFFFFFF AND PUSH20 0xFFFFFFFFFFFFFFFFFFFFFFFFFFFFFFFFFFFFFFFF AND PUSH2 0x8FC CALLVALUE SWAP1 DUP2 ISZERO MUL SWAP1 PUSH1 0x40 MLOAD PUSH1 0x0 PUSH1 0x40 MLOAD DUP1 DUP4 SUB DUP2 DUP6 DUP9 DUP9 CALL SWAP4 POP POP POP POP ISZERO DUP1 ISZERO PUSH2 0xCEB JUMPI RETURNDATASIZE PUSH1 0x0 DUP1 RETURNDATACOPY RETURNDATASIZE PUSH1 0x0 REVERT JUMPDEST POP PUSH1 0x1 PUSH1 0xC PUSH1 0x0 DUP4 DUP2 MSTORE PUSH1 0x20 ADD SWAP1 DUP2 MSTORE PUSH1 0x20 ADD PUSH1 0x0 KECCAK256 PUSH1 0x4 ADD PUSH1 0x1 PUSH2 0x100 EXP DUP2 SLOAD DUP2 PUSH1 0xFF MUL NOT AND SWAP1 DUP4 ISZERO ISZERO MUL OR SWAP1 SSTORE POP PUSH1 0x10 PUSH1 0x0 PUSH1 0x1 DUP2 MSTORE PUSH1 0x20 ADD SWAP1 DUP2 MSTORE PUSH1 0x20 ADD PUSH1 0x0 KECCAK256 DUP2 SWAP1 DUP1 PUSH1 0x1 DUP2 SLOAD ADD DUP1 DUP3 SSTORE DUP1 SWAP2 POP POP PUSH1 0x1 SWAP1 SUB SWAP1 PUSH1 0x0 MSTORE PUSH1 0x20 PUSH1 0x0 KECCAK256 ADD PUSH1 0x0 SWAP1 SWAP2 SWAP1 SWAP2 SWAP1 SWAP2 POP SSTORE POP JUMP JUMPDEST PUSH1 0x60 PUSH1 0x8 PUSH1 0x0 PUSH1 0x1 DUP2 MSTORE PUSH1 0x20 ADD SWAP1 DUP2 MSTORE PUSH1 0x20 ADD PUSH1 0x0 KECCAK256 DUP1 SLOAD DUP1 PUSH1 0x20 MUL PUSH1 0x20 ADD PUSH1 0x40 MLOAD SWAP1 DUP2 ADD PUSH1 0x40 MSTORE DUP1 SWAP3 SWAP2 SWAP1 DUP2 DUP2 MSTORE PUSH1 0x20 ADD DUP3 DUP1 SLOAD DUP1 ISZERO PUSH2 0xDEF JUMPI PUSH1 0x20 MUL DUP3 ADD SWAP2 SWAP1 PUSH1 0x0 MSTORE PUSH1 0x20 PUSH1 0x0 KECCAK256 SWAP1 JUMPDEST DUP2 PUSH1 0x0 SWAP1 SLOAD SWAP1 PUSH2 0x100 EXP SWAP1 DIV PUSH20 0xFFFFFFFFFFFFFFFFFFFFFFFFFFFFFFFFFFFFFFFF AND PUSH20 0xFFFFFFFFFFFFFFFFFFFFFFFFFFFFFFFFFFFFFFFF AND DUP2 MSTORE PUSH1 0x20 ADD SWAP1 PUSH1 0x1 ADD SWAP1 DUP1 DUP4 GT PUSH2 0xDA5 JUMPI JUMPDEST POP POP POP POP POP SWAP1 POP SWAP1 JUMP JUMPDEST PUSH1 0x0 PUSH1 0xB PUSH1 0x0 DUP4 DUP2 MSTORE PUSH1 0x20 ADD SWAP1 DUP2 MSTORE PUSH1 0x20 ADD PUSH1 0x0 KECCAK256 PUSH1 0x8 ADD PUSH1 0x15 SWAP1 SLOAD SWAP1 PUSH2 0x100 EXP SWAP1 DIV PUSH1 0xFF AND SWAP1 POP SWAP2 SWAP1 POP JUMP JUMPDEST PUSH1 0x4 SLOAD DUP2 JUMP JUMPDEST PUSH1 0x0 PUSH1 0xB PUSH1 0x0 DUP4 DUP2 MSTORE PUSH1 0x20 ADD SWAP1 DUP2 MSTORE PUSH1 0x20 ADD PUSH1 0x0 KECCAK256 PUSH1 0x3 ADD SLOAD SWAP1 POP SWAP2 SWAP1 POP JUMP JUMPDEST DUP1 PUSH20 0xFFFFFFFFFFFFFFFFFFFFFFFFFFFFFFFFFFFFFFFF AND PUSH2 0x8FC CALLVALUE SWAP1 DUP2 ISZERO MUL SWAP1 PUSH1 0x40 MLOAD PUSH1 0x0 PUSH1 0x40 MLOAD DUP1 DUP4 SUB DUP2 DUP6 DUP9 DUP9 CALL SWAP4 POP POP POP POP ISZERO DUP1 ISZERO PUSH2 0xE92 JUMPI RETURNDATASIZE PUSH1 0x0 DUP1 RETURNDATACOPY RETURNDATASIZE PUSH1 0x0 REVERT JUMPDEST POP POP JUMP JUMPDEST PUSH1 0x60 PUSH1 0xE PUSH1 0x0 CALLER PUSH20 0xFFFFFFFFFFFFFFFFFFFFFFFFFFFFFFFFFFFFFFFF AND PUSH20 0xFFFFFFFFFFFFFFFFFFFFFFFFFFFFFFFFFFFFFFFF AND DUP2 MSTORE PUSH1 0x20 ADD SWAP1 DUP2 MSTORE PUSH1 0x20 ADD PUSH1 0x0 KECCAK256 DUP1 SLOAD DUP1 PUSH1 0x20 MUL PUSH1 0x20 ADD PUSH1 0x40 MLOAD SWAP1 DUP2 ADD PUSH1 0x40 MSTORE DUP1 SWAP3 SWAP2 SWAP1 DUP2 DUP2 MSTORE PUSH1 0x20 ADD DUP3 DUP1 SLOAD DUP1 ISZERO PUSH2 0xF21 JUMPI PUSH1 0x20 MUL DUP3 ADD SWAP2 SWAP1 PUSH1 0x0 MSTORE PUSH1 0x20 PUSH1 0x0 KECCAK256 SWAP1 JUMPDEST DUP2 SLOAD DUP2 MSTORE PUSH1 0x20 ADD SWAP1 PUSH1 0x1 ADD SWAP1 DUP1 DUP4 GT PUSH2 0xF0D JUMPI JUMPDEST POP POP POP POP POP SWAP1 POP SWAP1 JUMP JUMPDEST PUSH1 0x60 PUSH1 0x10 PUSH1 0x0 PUSH1 0x1 DUP2 MSTORE PUSH1 0x20 ADD SWAP1 DUP2 MSTORE PUSH1 0x20 ADD PUSH1 0x0 KECCAK256 DUP1 SLOAD DUP1 PUSH1 0x20 MUL PUSH1 0x20 ADD PUSH1 0x40 MLOAD SWAP1 DUP2 ADD PUSH1 0x40 MSTORE DUP1 SWAP3 SWAP2 SWAP1 DUP2 DUP2 MSTORE PUSH1 0x20 ADD DUP3 DUP1 SLOAD DUP1 ISZERO PUSH2 0xF8B JUMPI PUSH1 0x20 MUL DUP3 ADD SWAP2 SWAP1 PUSH1 0x0 MSTORE PUSH1 0x20 PUSH1 0x0 KECCAK256 SWAP1 JUMPDEST DUP2 SLOAD DUP2 MSTORE PUSH1 0x20 ADD SWAP1 PUSH1 0x1 ADD SWAP1 DUP1 DUP4 GT PUSH2 0xF77 JUMPI JUMPDEST POP POP POP POP POP SWAP1 POP SWAP1 JUMP JUMPDEST PUSH1 0x0 PUSH1 0x6 PUSH1 0x0 DUP4 PUSH20 0xFFFFFFFFFFFFFFFFFFFFFFFFFFFFFFFFFFFFFFFF AND PUSH20 0xFFFFFFFFFFFFFFFFFFFFFFFFFFFFFFFFFFFFFFFF AND DUP2 MSTORE PUSH1 0x20 ADD SWAP1 DUP2 MSTORE PUSH1 0x20 ADD PUSH1 0x0 KECCAK256 PUSH1 0x8 ADD PUSH1 0x0 SWAP1 SLOAD SWAP1 PUSH2 0x100 EXP SWAP1 DIV PUSH1 0xFF AND SWAP1 POP SWAP2 SWAP1 POP JUMP JUMPDEST PUSH1 0xC PUSH1 0x20 MSTORE DUP1 PUSH1 0x0 MSTORE PUSH1 0x40 PUSH1 0x0 KECCAK256 PUSH1 0x0 SWAP2 POP SWAP1 POP DUP1 PUSH1 0x0 ADD SLOAD SWAP1 DUP1 PUSH1 0x1 ADD PUSH1 0x0 SWAP1 SLOAD SWAP1 PUSH2 0x100 EXP SWAP1 DIV PUSH20 0xFFFFFFFFFFFFFFFFFFFFFFFFFFFFFFFFFFFFFFFF AND SWAP1 DUP1 PUSH1 0x2 ADD PUSH1 0x0 SWAP1 SLOAD SWAP1 PUSH2 0x100 EXP SWAP1 DIV PUSH20 0xFFFFFFFFFFFFFFFFFFFFFFFFFFFFFFFFFFFFFFFF AND SWAP1 DUP1 PUSH1 0x3 ADD SLOAD SWAP1 DUP1 PUSH1 0x4 ADD PUSH1 0x0 SWAP1 SLOAD SWAP1 PUSH2 0x100 EXP SWAP1 DIV PUSH1 0xFF AND SWAP1 DUP1 PUSH1 0x4 ADD PUSH1 0x1 SWAP1 SLOAD SWAP1 PUSH2 0x100 EXP SWAP1 DIV PUSH1 0xFF AND SWAP1 POP DUP7 JUMP JUMPDEST PUSH2 0x108D CALLER PUSH2 0xF95 JUMP JUMPDEST PUSH2 0x1096 JUMPI PUSH1 0x0 DUP1 REVERT JUMPDEST PUSH1 0x3 PUSH1 0x0 DUP2 SLOAD DUP1 SWAP3 SWAP2 SWAP1 PUSH2 0x10A9 SWAP1 PUSH2 0x3229 JUMP JUMPDEST SWAP2 SWAP1 POP SSTORE POP PUSH1 0x40 MLOAD DUP1 PUSH2 0x160 ADD PUSH1 0x40 MSTORE DUP1 PUSH1 0x3 SLOAD DUP2 MSTORE PUSH1 0x20 ADD DUP9 DUP2 MSTORE PUSH1 0x20 ADD DUP8 DUP2 MSTORE PUSH1 0x20 ADD DUP7 DUP2 MSTORE PUSH1 0x20 ADD DUP6 DUP2 MSTORE PUSH1 0x20 ADD DUP5 DUP2 MSTORE PUSH1 0x20 ADD DUP4 DUP2 MSTORE PUSH1 0x20 ADD DUP3 DUP2 MSTORE PUSH1 0x20 ADD PUSH1 0x0 ISZERO ISZERO DUP2 MSTORE PUSH1 0x20 ADD CALLER PUSH20 0xFFFFFFFFFFFFFFFFFFFFFFFFFFFFFFFFFFFFFFFF AND DUP2 MSTORE PUSH1 0x20 ADD PUSH1 0x0 ISZERO ISZERO DUP2 MSTORE POP PUSH1 0xB PUSH1 0x0 PUSH1 0x3 SLOAD DUP2 MSTORE PUSH1 0x20 ADD SWAP1 DUP2 MSTORE PUSH1 0x20 ADD PUSH1 0x0 KECCAK256 PUSH1 0x0 DUP3 ADD MLOAD DUP2 PUSH1 0x0 ADD SSTORE PUSH1 0x20 DUP3 ADD MLOAD DUP2 PUSH1 0x1 ADD SSTORE PUSH1 0x40 DUP3 ADD MLOAD DUP2 PUSH1 0x2 ADD SWAP1 DUP1 MLOAD SWAP1 PUSH1 0x20 ADD SWAP1 PUSH2 0x115D SWAP3 SWAP2 SWAP1 PUSH2 0x2664 JUMP JUMPDEST POP PUSH1 0x60 DUP3 ADD MLOAD DUP2 PUSH1 0x3 ADD SSTORE PUSH1 0x80 DUP3 ADD MLOAD DUP2 PUSH1 0x4 ADD SWAP1 DUP1 MLOAD SWAP1 PUSH1 0x20 ADD SWAP1 PUSH2 0x1184 SWAP3 SWAP2 SWAP1 PUSH2 0x2664 JUMP JUMPDEST POP PUSH1 0xA0 DUP3 ADD MLOAD DUP2 PUSH1 0x5 ADD SSTORE PUSH1 0xC0 DUP3 ADD MLOAD DUP2 PUSH1 0x6 ADD SWAP1 DUP1 MLOAD SWAP1 PUSH1 0x20 ADD SWAP1 PUSH2 0x11AB SWAP3 SWAP2 SWAP1 PUSH2 0x2664 JUMP JUMPDEST POP PUSH1 0xE0 DUP3 ADD MLOAD DUP2 PUSH1 0x7 ADD SWAP1 DUP1 MLOAD SWAP1 PUSH1 0x20 ADD SWAP1 PUSH2 0x11C8 SWAP3 SWAP2 SWAP1 PUSH2 0x2664 JUMP JUMPDEST POP PUSH2 0x100 DUP3 ADD MLOAD DUP2 PUSH1 0x8 ADD PUSH1 0x0 PUSH2 0x100 EXP DUP2 SLOAD DUP2 PUSH1 0xFF MUL NOT AND SWAP1 DUP4 ISZERO ISZERO MUL OR SWAP1 SSTORE POP PUSH2 0x120 DUP3 ADD MLOAD DUP2 PUSH1 0x8 ADD PUSH1 0x1 PUSH2 0x100 EXP DUP2 SLOAD DUP2 PUSH20 0xFFFFFFFFFFFFFFFFFFFFFFFFFFFFFFFFFFFFFFFF MUL NOT AND SWAP1 DUP4 PUSH20 0xFFFFFFFFFFFFFFFFFFFFFFFFFFFFFFFFFFFFFFFF AND MUL OR SWAP1 SSTORE POP PUSH2 0x140 DUP3 ADD MLOAD DUP2 PUSH1 0x8 ADD PUSH1 0x15 PUSH2 0x100 EXP DUP2 SLOAD DUP2 PUSH1 0xFF MUL NOT AND SWAP1 DUP4 ISZERO ISZERO MUL OR SWAP1 SSTORE POP SWAP1 POP POP PUSH1 0xA PUSH1 0x0 CALLER PUSH20 0xFFFFFFFFFFFFFFFFFFFFFFFFFFFFFFFFFFFFFFFF AND PUSH20 0xFFFFFFFFFFFFFFFFFFFFFFFFFFFFFFFFFFFFFFFF AND DUP2 MSTORE PUSH1 0x20 ADD SWAP1 DUP2 MSTORE PUSH1 0x20 ADD PUSH1 0x0 KECCAK256 PUSH1 0x3 SLOAD SWAP1 DUP1 PUSH1 0x1 DUP2 SLOAD ADD DUP1 DUP3 SSTORE DUP1 SWAP2 POP POP PUSH1 0x1 SWAP1 SUB SWAP1 PUSH1 0x0 MSTORE PUSH1 0x20 PUSH1 0x0 KECCAK256 ADD PUSH1 0x0 SWAP1 SWAP2 SWAP1 SWAP2 SWAP1 SWAP2 POP SSTORE POP POP POP POP POP POP POP JUMP JUMPDEST PUSH1 0x60 PUSH1 0xA PUSH1 0x0 DUP4 PUSH20 0xFFFFFFFFFFFFFFFFFFFFFFFFFFFFFFFFFFFFFFFF AND PUSH20 0xFFFFFFFFFFFFFFFFFFFFFFFFFFFFFFFFFFFFFFFF AND DUP2 MSTORE PUSH1 0x20 ADD SWAP1 DUP2 MSTORE PUSH1 0x20 ADD PUSH1 0x0 KECCAK256 DUP1 SLOAD DUP1 PUSH1 0x20 MUL PUSH1 0x20 ADD PUSH1 0x40 MLOAD SWAP1 DUP2 ADD PUSH1 0x40 MSTORE DUP1 SWAP3 SWAP2 SWAP1 DUP2 DUP2 MSTORE PUSH1 0x20 ADD DUP3 DUP1 SLOAD DUP1 ISZERO PUSH2 0x1352 JUMPI PUSH1 0x20 MUL DUP3 ADD SWAP2 SWAP1 PUSH1 0x0 MSTORE PUSH1 0x20 PUSH1 0x0 KECCAK256 SWAP1 JUMPDEST DUP2 SLOAD DUP2 MSTORE PUSH1 0x20 ADD SWAP1 PUSH1 0x1 ADD SWAP1 DUP1 DUP4 GT PUSH2 0x133E JUMPI JUMPDEST POP POP POP POP POP SWAP1 POP SWAP2 SWAP1 POP JUMP JUMPDEST PUSH2 0x1367 CALLER PUSH2 0xF95 JUMP JUMPDEST DUP1 ISZERO PUSH2 0x1378 JUMPI POP PUSH2 0x1377 DUP2 PUSH2 0xDF9 JUMP JUMPDEST JUMPDEST PUSH2 0x1381 JUMPI PUSH1 0x0 DUP1 REVERT JUMPDEST PUSH1 0x5 PUSH1 0x0 DUP2 SLOAD DUP1 SWAP3 SWAP2 SWAP1 PUSH2 0x1394 SWAP1 PUSH2 0x3229 JUMP JUMPDEST SWAP2 SWAP1 POP SSTORE POP PUSH1 0x40 MLOAD DUP1 PUSH1 0xC0 ADD PUSH1 0x40 MSTORE DUP1 PUSH1 0x5 SLOAD DUP2 MSTORE PUSH1 0x20 ADD PUSH1 0xB PUSH1 0x0 DUP5 DUP2 MSTORE PUSH1 0x20 ADD SWAP1 DUP2 MSTORE PUSH1 0x20 ADD PUSH1 0x0 KECCAK256 PUSH1 0x8 ADD PUSH1 0x1 SWAP1 SLOAD SWAP1 PUSH2 0x100 EXP SWAP1 DIV PUSH20 0xFFFFFFFFFFFFFFFFFFFFFFFFFFFFFFFFFFFFFFFF AND PUSH20 0xFFFFFFFFFFFFFFFFFFFFFFFFFFFFFFFFFFFFFFFF AND DUP2 MSTORE PUSH1 0x20 ADD CALLER PUSH20 0xFFFFFFFFFFFFFFFFFFFFFFFFFFFFFFFFFFFFFFFF AND DUP2 MSTORE PUSH1 0x20 ADD DUP3 DUP2 MSTORE PUSH1 0x20 ADD PUSH1 0x0 PUSH1 0x4 DUP2 GT ISZERO PUSH2 0x1434 JUMPI PUSH2 0x1433 PUSH2 0x2AA3 JUMP JUMPDEST JUMPDEST DUP2 MSTORE PUSH1 0x20 ADD PUSH1 0x0 ISZERO ISZERO DUP2 MSTORE POP PUSH1 0xC PUSH1 0x0 PUSH1 0x5 SLOAD DUP2 MSTORE PUSH1 0x20 ADD SWAP1 DUP2 MSTORE PUSH1 0x20 ADD PUSH1 0x0 KECCAK256 PUSH1 0x0 DUP3 ADD MLOAD DUP2 PUSH1 0x0 ADD SSTORE PUSH1 0x20 DUP3 ADD MLOAD DUP2 PUSH1 0x1 ADD PUSH1 0x0 PUSH2 0x100 EXP DUP2 SLOAD DUP2 PUSH20 0xFFFFFFFFFFFFFFFFFFFFFFFFFFFFFFFFFFFFFFFF MUL NOT AND SWAP1 DUP4 PUSH20 0xFFFFFFFFFFFFFFFFFFFFFFFFFFFFFFFFFFFFFFFF AND MUL OR SWAP1 SSTORE POP PUSH1 0x40 DUP3 ADD MLOAD DUP2 PUSH1 0x2 ADD PUSH1 0x0 PUSH2 0x100 EXP DUP2 SLOAD DUP2 PUSH20 0xFFFFFFFFFFFFFFFFFFFFFFFFFFFFFFFFFFFFFFFF MUL NOT AND SWAP1 DUP4 PUSH20 0xFFFFFFFFFFFFFFFFFFFFFFFFFFFFFFFFFFFFFFFF AND MUL OR SWAP1 SSTORE POP PUSH1 0x60 DUP3 ADD MLOAD DUP2 PUSH1 0x3 ADD SSTORE PUSH1 0x80 DUP3 ADD MLOAD DUP2 PUSH1 0x4 ADD PUSH1 0x0 PUSH2 0x100 EXP DUP2 SLOAD DUP2 PUSH1 0xFF MUL NOT AND SWAP1 DUP4 PUSH1 0x4 DUP2 GT ISZERO PUSH2 0x1522 JUMPI PUSH2 0x1521 PUSH2 0x2AA3 JUMP JUMPDEST JUMPDEST MUL OR SWAP1 SSTORE POP PUSH1 0xA0 DUP3 ADD MLOAD DUP2 PUSH1 0x4 ADD PUSH1 0x1 PUSH2 0x100 EXP DUP2 SLOAD DUP2 PUSH1 0xFF MUL NOT AND SWAP1 DUP4 ISZERO ISZERO MUL OR SWAP1 SSTORE POP SWAP1 POP POP PUSH1 0xD PUSH1 0x0 PUSH1 0xB PUSH1 0x0 DUP5 DUP2 MSTORE PUSH1 0x20 ADD SWAP1 DUP2 MSTORE PUSH1 0x20 ADD PUSH1 0x0 KECCAK256 PUSH1 0x8 ADD PUSH1 0x1 SWAP1 SLOAD SWAP1 PUSH2 0x100 EXP SWAP1 DIV PUSH20 0xFFFFFFFFFFFFFFFFFFFFFFFFFFFFFFFFFFFFFFFF AND PUSH20 0xFFFFFFFFFFFFFFFFFFFFFFFFFFFFFFFFFFFFFFFF AND PUSH20 0xFFFFFFFFFFFFFFFFFFFFFFFFFFFFFFFFFFFFFFFF AND DUP2 MSTORE PUSH1 0x20 ADD SWAP1 DUP2 MSTORE PUSH1 0x20 ADD PUSH1 0x0 KECCAK256 PUSH1 0x5 SLOAD SWAP1 DUP1 PUSH1 0x1 DUP2 SLOAD ADD DUP1 DUP3 SSTORE DUP1 SWAP2 POP POP PUSH1 0x1 SWAP1 SUB SWAP1 PUSH1 0x0 MSTORE PUSH1 0x20 PUSH1 0x0 KECCAK256 ADD PUSH1 0x0 SWAP1 SWAP2 SWAP1 SWAP2 SWAP1 SWAP2 POP SSTORE PUSH1 0xE PUSH1 0x0 CALLER PUSH20 0xFFFFFFFFFFFFFFFFFFFFFFFFFFFFFFFFFFFFFFFF AND PUSH20 0xFFFFFFFFFFFFFFFFFFFFFFFFFFFFFFFFFFFFFFFF AND DUP2 MSTORE PUSH1 0x20 ADD SWAP1 DUP2 MSTORE PUSH1 0x20 ADD PUSH1 0x0 KECCAK256 PUSH1 0x5 SLOAD SWAP1 DUP1 PUSH1 0x1 DUP2 SLOAD ADD DUP1 DUP3 SSTORE DUP1 SWAP2 POP POP PUSH1 0x1 SWAP1 SUB SWAP1 PUSH1 0x0 MSTORE PUSH1 0x20 PUSH1 0x0 KECCAK256 ADD PUSH1 0x0 SWAP1 SWAP2 SWAP1 SWAP2 SWAP1 SWAP2 POP SSTORE POP JUMP JUMPDEST PUSH1 0x6 PUSH1 0x20 MSTORE DUP1 PUSH1 0x0 MSTORE PUSH1 0x40 PUSH1 0x0 KECCAK256 PUSH1 0x0 SWAP2 POP SWAP1 POP DUP1 PUSH1 0x0 ADD PUSH1 0x0 SWAP1 SLOAD SWAP1 PUSH2 0x100 EXP SWAP1 DIV PUSH20 0xFFFFFFFFFFFFFFFFFFFFFFFFFFFFFFFFFFFFFFFF AND SWAP1 DUP1 PUSH1 0x1 ADD DUP1 SLOAD PUSH2 0x169C SWAP1 PUSH2 0x32A1 JUMP JUMPDEST DUP1 PUSH1 0x1F ADD PUSH1 0x20 DUP1 SWAP2 DIV MUL PUSH1 0x20 ADD PUSH1 0x40 MLOAD SWAP1 DUP2 ADD PUSH1 0x40 MSTORE DUP1 SWAP3 SWAP2 SWAP1 DUP2 DUP2 MSTORE PUSH1 0x20 ADD DUP3 DUP1 SLOAD PUSH2 0x16C8 SWAP1 PUSH2 0x32A1 JUMP JUMPDEST DUP1 ISZERO PUSH2 0x1715 JUMPI DUP1 PUSH1 0x1F LT PUSH2 0x16EA JUMPI PUSH2 0x100 DUP1 DUP4 SLOAD DIV MUL DUP4 MSTORE SWAP2 PUSH1 0x20 ADD SWAP2 PUSH2 0x1715 JUMP JUMPDEST DUP3 ADD SWAP2 SWAP1 PUSH1 0x0 MSTORE PUSH1 0x20 PUSH1 0x0 KECCAK256 SWAP1 JUMPDEST DUP2 SLOAD DUP2 MSTORE SWAP1 PUSH1 0x1 ADD SWAP1 PUSH1 0x20 ADD DUP1 DUP4 GT PUSH2 0x16F8 JUMPI DUP3 SWAP1 SUB PUSH1 0x1F AND DUP3 ADD SWAP2 JUMPDEST POP POP POP POP POP SWAP1 DUP1 PUSH1 0x2 ADD SLOAD SWAP1 DUP1 PUSH1 0x3 ADD DUP1 SLOAD PUSH2 0x1730 SWAP1 PUSH2 0x32A1 JUMP JUMPDEST DUP1 PUSH1 0x1F ADD PUSH1 0x20 DUP1 SWAP2 DIV MUL PUSH1 0x20 ADD PUSH1 0x40 MLOAD SWAP1 DUP2 ADD PUSH1 0x40 MSTORE DUP1 SWAP3 SWAP2 SWAP1 DUP2 DUP2 MSTORE PUSH1 0x20 ADD DUP3 DUP1 SLOAD PUSH2 0x175C SWAP1 PUSH2 0x32A1 JUMP JUMPDEST DUP1 ISZERO PUSH2 0x17A9 JUMPI DUP1 PUSH1 0x1F LT PUSH2 0x177E JUMPI PUSH2 0x100 DUP1 DUP4 SLOAD DIV MUL DUP4 MSTORE SWAP2 PUSH1 0x20 ADD SWAP2 PUSH2 0x17A9 JUMP JUMPDEST DUP3 ADD SWAP2 SWAP1 PUSH1 0x0 MSTORE PUSH1 0x20 PUSH1 0x0 KECCAK256 SWAP1 JUMPDEST DUP2 SLOAD DUP2 MSTORE SWAP1 PUSH1 0x1 ADD SWAP1 PUSH1 0x20 ADD DUP1 DUP4 GT PUSH2 0x178C JUMPI DUP3 SWAP1 SUB PUSH1 0x1F AND DUP3 ADD SWAP2 JUMPDEST POP POP POP POP POP SWAP1 DUP1 PUSH1 0x4 ADD DUP1 SLOAD PUSH2 0x17BE SWAP1 PUSH2 0x32A1 JUMP JUMPDEST DUP1 PUSH1 0x1F ADD PUSH1 0x20 DUP1 SWAP2 DIV MUL PUSH1 0x20 ADD PUSH1 0x40 MLOAD SWAP1 DUP2 ADD PUSH1 0x40 MSTORE DUP1 SWAP3 SWAP2 SWAP1 DUP2 DUP2 MSTORE PUSH1 0x20 ADD DUP3 DUP1 SLOAD PUSH2 0x17EA SWAP1 PUSH2 0x32A1 JUMP JUMPDEST DUP1 ISZERO PUSH2 0x1837 JUMPI DUP1 PUSH1 0x1F LT PUSH2 0x180C JUMPI PUSH2 0x100 DUP1 DUP4 SLOAD DIV MUL DUP4 MSTORE SWAP2 PUSH1 0x20 ADD SWAP2 PUSH2 0x1837 JUMP JUMPDEST DUP3 ADD SWAP2 SWAP1 PUSH1 0x0 MSTORE PUSH1 0x20 PUSH1 0x0 KECCAK256 SWAP1 JUMPDEST DUP2 SLOAD DUP2 MSTORE SWAP1 PUSH1 0x1 ADD SWAP1 PUSH1 0x20 ADD DUP1 DUP4 GT PUSH2 0x181A JUMPI DUP3 SWAP1 SUB PUSH1 0x1F AND DUP3 ADD SWAP2 JUMPDEST POP POP POP POP POP SWAP1 DUP1 PUSH1 0x5 ADD DUP1 SLOAD PUSH2 0x184C SWAP1 PUSH2 0x32A1 JUMP JUMPDEST DUP1 PUSH1 0x1F ADD PUSH1 0x20 DUP1 SWAP2 DIV MUL PUSH1 0x20 ADD PUSH1 0x40 MLOAD SWAP1 DUP2 ADD PUSH1 0x40 MSTORE DUP1 SWAP3 SWAP2 SWAP1 DUP2 DUP2 MSTORE PUSH1 0x20 ADD DUP3 DUP1 SLOAD PUSH2 0x1878 SWAP1 PUSH2 0x32A1 JUMP JUMPDEST DUP1 ISZERO PUSH2 0x18C5 JUMPI DUP1 PUSH1 0x1F LT PUSH2 0x189A JUMPI PUSH2 0x100 DUP1 DUP4 SLOAD DIV MUL DUP4 MSTORE SWAP2 PUSH1 0x20 ADD SWAP2 PUSH2 0x18C5 JUMP JUMPDEST DUP3 ADD SWAP2 SWAP1 PUSH1 0x0 MSTORE PUSH1 0x20 PUSH1 0x0 KECCAK256 SWAP1 JUMPDEST DUP2 SLOAD DUP2 MSTORE SWAP1 PUSH1 0x1 ADD SWAP1 PUSH1 0x20 ADD DUP1 DUP4 GT PUSH2 0x18A8 JUMPI DUP3 SWAP1 SUB PUSH1 0x1F AND DUP3 ADD SWAP2 JUMPDEST POP POP POP POP POP SWAP1 DUP1 PUSH1 0x6 ADD DUP1 SLOAD PUSH2 0x18DA SWAP1 PUSH2 0x32A1 JUMP JUMPDEST DUP1 PUSH1 0x1F ADD PUSH1 0x20 DUP1 SWAP2 DIV MUL PUSH1 0x20 ADD PUSH1 0x40 MLOAD SWAP1 DUP2 ADD PUSH1 0x40 MSTORE DUP1 SWAP3 SWAP2 SWAP1 DUP2 DUP2 MSTORE PUSH1 0x20 ADD DUP3 DUP1 SLOAD PUSH2 0x1906 SWAP1 PUSH2 0x32A1 JUMP JUMPDEST DUP1 ISZERO PUSH2 0x1953 JUMPI DUP1 PUSH1 0x1F LT PUSH2 0x1928 JUMPI PUSH2 0x100 DUP1 DUP4 SLOAD DIV MUL DUP4 MSTORE SWAP2 PUSH1 0x20 ADD SWAP2 PUSH2 0x1953 JUMP JUMPDEST DUP3 ADD SWAP2 SWAP1 PUSH1 0x0 MSTORE PUSH1 0x20 PUSH1 0x0 KECCAK256 SWAP1 JUMPDEST DUP2 SLOAD DUP2 MSTORE SWAP1 PUSH1 0x1 ADD SWAP1 PUSH1 0x20 ADD DUP1 DUP4 GT PUSH2 0x1936 JUMPI DUP3 SWAP1 SUB PUSH1 0x1F AND DUP3 ADD SWAP2 JUMPDEST POP POP POP POP POP SWAP1 DUP1 PUSH1 0x7 ADD DUP1 SLOAD PUSH2 0x1968 SWAP1 PUSH2 0x32A1 JUMP JUMPDEST DUP1 PUSH1 0x1F ADD PUSH1 0x20 DUP1 SWAP2 DIV MUL PUSH1 0x20 ADD PUSH1 0x40 MLOAD SWAP1 DUP2 ADD PUSH1 0x40 MSTORE DUP1 SWAP3 SWAP2 SWAP1 DUP2 DUP2 MSTORE PUSH1 0x20 ADD DUP3 DUP1 SLOAD PUSH2 0x1994 SWAP1 PUSH2 0x32A1 JUMP JUMPDEST DUP1 ISZERO PUSH2 0x19E1 JUMPI DUP1 PUSH1 0x1F LT PUSH2 0x19B6 JUMPI PUSH2 0x100 DUP1 DUP4 SLOAD DIV MUL DUP4 MSTORE SWAP2 PUSH1 0x20 ADD SWAP2 PUSH2 0x19E1 JUMP JUMPDEST DUP3 ADD SWAP2 SWAP1 PUSH1 0x0 MSTORE PUSH1 0x20 PUSH1 0x0 KECCAK256 SWAP1 JUMPDEST DUP2 SLOAD DUP2 MSTORE SWAP1 PUSH1 0x1 ADD SWAP1 PUSH1 0x20 ADD DUP1 DUP4 GT PUSH2 0x19C4 JUMPI DUP3 SWAP1 SUB PUSH1 0x1F AND DUP3 ADD SWAP2 JUMPDEST POP POP POP POP POP SWAP1 DUP1 PUSH1 0x8 ADD PUSH1 0x0 SWAP1 SLOAD SWAP1 PUSH2 0x100 EXP SWAP1 DIV PUSH1 0xFF AND SWAP1 POP DUP10 JUMP JUMPDEST PUSH1 0x0 PUSH1 0xC PUSH1 0x0 DUP4 DUP2 MSTORE PUSH1 0x20 ADD SWAP1 DUP2 MSTORE PUSH1 0x20 ADD PUSH1 0x0 KECCAK256 PUSH1 0x4 ADD PUSH1 0x1 SWAP1 SLOAD SWAP1 PUSH2 0x100 EXP SWAP1 DIV PUSH1 0xFF AND SWAP1 POP SWAP2 SWAP1 POP JUMP JUMPDEST PUSH1 0x0 PUSH1 0x1 PUSH1 0x0 SWAP1 SLOAD SWAP1 PUSH2 0x100 EXP SWAP1 DIV PUSH20 0xFFFFFFFFFFFFFFFFFFFFFFFFFFFFFFFFFFFFFFFF AND PUSH20 0xFFFFFFFFFFFFFFFFFFFFFFFFFFFFFFFFFFFFFFFF AND DUP3 PUSH20 0xFFFFFFFFFFFFFFFFFFFFFFFFFFFFFFFFFFFFFFFF AND EQ ISZERO PUSH2 0x1A8C JUMPI PUSH1 0x1 SWAP1 POP PUSH2 0x1A91 JUMP JUMPDEST PUSH1 0x0 SWAP1 POP JUMPDEST SWAP2 SWAP1 POP JUMP JUMPDEST PUSH1 0xB PUSH1 0x20 MSTORE DUP1 PUSH1 0x0 MSTORE PUSH1 0x40 PUSH1 0x0 KECCAK256 PUSH1 0x0 SWAP2 POP SWAP1 POP DUP1 PUSH1 0x0 ADD SLOAD SWAP1 DUP1 PUSH1 0x1 ADD SLOAD SWAP1 DUP1 PUSH1 0x2 ADD DUP1 SLOAD PUSH2 0x1AC5 SWAP1 PUSH2 0x32A1 JUMP JUMPDEST DUP1 PUSH1 0x1F ADD PUSH1 0x20 DUP1 SWAP2 DIV MUL PUSH1 0x20 ADD PUSH1 0x40 MLOAD SWAP1 DUP2 ADD PUSH1 0x40 MSTORE DUP1 SWAP3 SWAP2 SWAP1 DUP2 DUP2 MSTORE PUSH1 0x20 ADD DUP3 DUP1 SLOAD PUSH2 0x1AF1 SWAP1 PUSH2 0x32A1 JUMP JUMPDEST DUP1 ISZERO PUSH2 0x1B3E JUMPI DUP1 PUSH1 0x1F LT PUSH2 0x1B13 JUMPI PUSH2 0x100 DUP1 DUP4 SLOAD DIV MUL DUP4 MSTORE SWAP2 PUSH1 0x20 ADD SWAP2 PUSH2 0x1B3E JUMP JUMPDEST DUP3 ADD SWAP2 SWAP1 PUSH1 0x0 MSTORE PUSH1 0x20 PUSH1 0x0 KECCAK256 SWAP1 JUMPDEST DUP2 SLOAD DUP2 MSTORE SWAP1 PUSH1 0x1 ADD SWAP1 PUSH1 0x20 ADD DUP1 DUP4 GT PUSH2 0x1B21 JUMPI DUP3 SWAP1 SUB PUSH1 0x1F AND DUP3 ADD SWAP2 JUMPDEST POP POP POP POP POP SWAP1 DUP1 PUSH1 0x3 ADD SLOAD SWAP1 DUP1 PUSH1 0x4 ADD DUP1 SLOAD PUSH2 0x1B59 SWAP1 PUSH2 0x32A1 JUMP JUMPDEST DUP1 PUSH1 0x1F ADD PUSH1 0x20 DUP1 SWAP2 DIV MUL PUSH1 0x20 ADD PUSH1 0x40 MLOAD SWAP1 DUP2 ADD PUSH1 0x40 MSTORE DUP1 SWAP3 SWAP2 SWAP1 DUP2 DUP2 MSTORE PUSH1 0x20 ADD DUP3 DUP1 SLOAD PUSH2 0x1B85 SWAP1 PUSH2 0x32A1 JUMP JUMPDEST DUP1 ISZERO PUSH2 0x1BD2 JUMPI DUP1 PUSH1 0x1F LT PUSH2 0x1BA7 JUMPI PUSH2 0x100 DUP1 DUP4 SLOAD DIV MUL DUP4 MSTORE SWAP2 PUSH1 0x20 ADD SWAP2 PUSH2 0x1BD2 JUMP JUMPDEST DUP3 ADD SWAP2 SWAP1 PUSH1 0x0 MSTORE PUSH1 0x20 PUSH1 0x0 KECCAK256 SWAP1 JUMPDEST DUP2 SLOAD DUP2 MSTORE SWAP1 PUSH1 0x1 ADD SWAP1 PUSH1 0x20 ADD DUP1 DUP4 GT PUSH2 0x1BB5 JUMPI DUP3 SWAP1 SUB PUSH1 0x1F AND DUP3 ADD SWAP2 JUMPDEST POP POP POP POP POP SWAP1 DUP1 PUSH1 0x5 ADD SLOAD SWAP1 DUP1 PUSH1 0x6 ADD DUP1 SLOAD PUSH2 0x1BED SWAP1 PUSH2 0x32A1 JUMP JUMPDEST DUP1 PUSH1 0x1F ADD PUSH1 0x20 DUP1 SWAP2 DIV MUL PUSH1 0x20 ADD PUSH1 0x40 MLOAD SWAP1 DUP2 ADD PUSH1 0x40 MSTORE DUP1 SWAP3 SWAP2 SWAP1 DUP2 DUP2 MSTORE PUSH1 0x20 ADD DUP3 DUP1 SLOAD PUSH2 0x1C19 SWAP1 PUSH2 0x32A1 JUMP JUMPDEST DUP1 ISZERO PUSH2 0x1C66 JUMPI DUP1 PUSH1 0x1F LT PUSH2 0x1C3B JUMPI PUSH2 0x100 DUP1 DUP4 SLOAD DIV MUL DUP4 MSTORE SWAP2 PUSH1 0x20 ADD SWAP2 PUSH2 0x1C66 JUMP JUMPDEST DUP3 ADD SWAP2 SWAP1 PUSH1 0x0 MSTORE PUSH1 0x20 PUSH1 0x0 KECCAK256 SWAP1 JUMPDEST DUP2 SLOAD DUP2 MSTORE SWAP1 PUSH1 0x1 ADD SWAP1 PUSH1 0x20 ADD DUP1 DUP4 GT PUSH2 0x1C49 JUMPI DUP3 SWAP1 SUB PUSH1 0x1F AND DUP3 ADD SWAP2 JUMPDEST POP POP POP POP POP SWAP1 DUP1 PUSH1 0x7 ADD DUP1 SLOAD PUSH2 0x1C7B SWAP1 PUSH2 0x32A1 JUMP JUMPDEST DUP1 PUSH1 0x1F ADD PUSH1 0x20 DUP1 SWAP2 DIV MUL PUSH1 0x20 ADD PUSH1 0x40 MLOAD SWAP1 DUP2 ADD PUSH1 0x40 MSTORE DUP1 SWAP3 SWAP2 SWAP1 DUP2 DUP2 MSTORE PUSH1 0x20 ADD DUP3 DUP1 SLOAD PUSH2 0x1CA7 SWAP1 PUSH2 0x32A1 JUMP JUMPDEST DUP1 ISZERO PUSH2 0x1CF4 JUMPI DUP1 PUSH1 0x1F LT PUSH2 0x1CC9 JUMPI PUSH2 0x100 DUP1 DUP4 SLOAD DIV MUL DUP4 MSTORE SWAP2 PUSH1 0x20 ADD SWAP2 PUSH2 0x1CF4 JUMP JUMPDEST DUP3 ADD SWAP2 SWAP1 PUSH1 0x0 MSTORE PUSH1 0x20 PUSH1 0x0 KECCAK256 SWAP1 JUMPDEST DUP2 SLOAD DUP2 MSTORE SWAP1 PUSH1 0x1 ADD SWAP1 PUSH1 0x20 ADD DUP1 DUP4 GT PUSH2 0x1CD7 JUMPI DUP3 SWAP1 SUB PUSH1 0x1F AND DUP3 ADD SWAP2 JUMPDEST POP POP POP POP POP SWAP1 DUP1 PUSH1 0x8 ADD PUSH1 0x0 SWAP1 SLOAD SWAP1 PUSH2 0x100 EXP SWAP1 DIV PUSH1 0xFF AND SWAP1 DUP1 PUSH1 0x8 ADD PUSH1 0x1 SWAP1 SLOAD SWAP1 PUSH2 0x100 EXP SWAP1 DIV PUSH20 0xFFFFFFFFFFFFFFFFFFFFFFFFFFFFFFFFFFFFFFFF AND SWAP1 DUP1 PUSH1 0x8 ADD PUSH1 0x15 SWAP1 SLOAD SWAP1 PUSH2 0x100 EXP SWAP1 DIV PUSH1 0xFF AND SWAP1 POP DUP12 JUMP JUMPDEST PUSH1 0x9 PUSH1 0x0 CALLER PUSH20 0xFFFFFFFFFFFFFFFFFFFFFFFFFFFFFFFFFFFFFFFF AND PUSH20 0xFFFFFFFFFFFFFFFFFFFFFFFFFFFFFFFFFFFFFFFF AND DUP2 MSTORE PUSH1 0x20 ADD SWAP1 DUP2 MSTORE PUSH1 0x20 ADD PUSH1 0x0 KECCAK256 PUSH1 0x0 SWAP1 SLOAD SWAP1 PUSH2 0x100 EXP SWAP1 DIV PUSH1 0xFF AND ISZERO PUSH2 0x1DA1 JUMPI PUSH1 0x0 DUP1 REVERT JUMPDEST PUSH1 0x1 PUSH1 0x9 PUSH1 0x0 CALLER PUSH20 0xFFFFFFFFFFFFFFFFFFFFFFFFFFFFFFFFFFFFFFFF AND PUSH20 0xFFFFFFFFFFFFFFFFFFFFFFFFFFFFFFFFFFFFFFFF AND DUP2 MSTORE PUSH1 0x20 ADD SWAP1 DUP2 MSTORE PUSH1 0x20 ADD PUSH1 0x0 KECCAK256 PUSH1 0x0 PUSH2 0x100 EXP DUP2 SLOAD DUP2 PUSH1 0xFF MUL NOT AND SWAP1 DUP4 ISZERO ISZERO MUL OR SWAP1 SSTORE POP PUSH1 0x2 PUSH1 0x0 DUP2 SLOAD DUP1 SWAP3 SWAP2 SWAP1 PUSH2 0x1E0C SWAP1 PUSH2 0x3229 JUMP JUMPDEST SWAP2 SWAP1 POP SSTORE POP PUSH1 0x8 PUSH1 0x0 PUSH1 0x1 DUP2 MSTORE PUSH1 0x20 ADD SWAP1 DUP2 MSTORE PUSH1 0x20 ADD PUSH1 0x0 KECCAK256 CALLER SWAP1 DUP1 PUSH1 0x1 DUP2 SLOAD ADD DUP1 DUP3 SSTORE DUP1 SWAP2 POP POP PUSH1 0x1 SWAP1 SUB SWAP1 PUSH1 0x0 MSTORE PUSH1 0x20 PUSH1 0x0 KECCAK256 ADD PUSH1 0x0 SWAP1 SWAP2 SWAP1 SWAP2 SWAP1 SWAP2 PUSH2 0x100 EXP DUP2 SLOAD DUP2 PUSH20 0xFFFFFFFFFFFFFFFFFFFFFFFFFFFFFFFFFFFFFFFF MUL NOT AND SWAP1 DUP4 PUSH20 0xFFFFFFFFFFFFFFFFFFFFFFFFFFFFFFFFFFFFFFFF AND MUL OR SWAP1 SSTORE POP CALLER PUSH1 0x7 PUSH1 0x0 PUSH1 0x2 SLOAD DUP2 MSTORE PUSH1 0x20 ADD SWAP1 DUP2 MSTORE PUSH1 0x20 ADD PUSH1 0x0 KECCAK256 PUSH1 0x0 PUSH2 0x100 EXP DUP2 SLOAD DUP2 PUSH20 0xFFFFFFFFFFFFFFFFFFFFFFFFFFFFFFFFFFFFFFFF MUL NOT AND SWAP1 DUP4 PUSH20 0xFFFFFFFFFFFFFFFFFFFFFFFFFFFFFFFFFFFFFFFF AND MUL OR SWAP1 SSTORE POP PUSH1 0x40 MLOAD DUP1 PUSH2 0x120 ADD PUSH1 0x40 MSTORE DUP1 CALLER PUSH20 0xFFFFFFFFFFFFFFFFFFFFFFFFFFFFFFFFFFFFFFFF AND DUP2 MSTORE PUSH1 0x20 ADD DUP9 DUP2 MSTORE PUSH1 0x20 ADD DUP8 DUP2 MSTORE PUSH1 0x20 ADD DUP7 DUP2 MSTORE PUSH1 0x20 ADD DUP6 DUP2 MSTORE PUSH1 0x20 ADD DUP5 DUP2 MSTORE PUSH1 0x20 ADD DUP4 DUP2 MSTORE PUSH1 0x20 ADD DUP3 DUP2 MSTORE PUSH1 0x20 ADD PUSH1 0x0 ISZERO ISZERO DUP2 MSTORE POP PUSH1 0x6 PUSH1 0x0 CALLER PUSH20 0xFFFFFFFFFFFFFFFFFFFFFFFFFFFFFFFFFFFFFFFF AND PUSH20 0xFFFFFFFFFFFFFFFFFFFFFFFFFFFFFFFFFFFFFFFF AND DUP2 MSTORE PUSH1 0x20 ADD SWAP1 DUP2 MSTORE PUSH1 0x20 ADD PUSH1 0x0 KECCAK256 PUSH1 0x0 DUP3 ADD MLOAD DUP2 PUSH1 0x0 ADD PUSH1 0x0 PUSH2 0x100 EXP DUP2 SLOAD DUP2 PUSH20 0xFFFFFFFFFFFFFFFFFFFFFFFFFFFFFFFFFFFFFFFF MUL NOT AND SWAP1 DUP4 PUSH20 0xFFFFFFFFFFFFFFFFFFFFFFFFFFFFFFFFFFFFFFFF AND MUL OR SWAP1 SSTORE POP PUSH1 0x20 DUP3 ADD MLOAD DUP2 PUSH1 0x1 ADD SWAP1 DUP1 MLOAD SWAP1 PUSH1 0x20 ADD SWAP1 PUSH2 0x1FD5 SWAP3 SWAP2 SWAP1 PUSH2 0x2664 JUMP JUMPDEST POP PUSH1 0x40 DUP3 ADD MLOAD DUP2 PUSH1 0x2 ADD SSTORE PUSH1 0x60 DUP3 ADD MLOAD DUP2 PUSH1 0x3 ADD SWAP1 DUP1 MLOAD SWAP1 PUSH1 0x20 ADD SWAP1 PUSH2 0x1FFC SWAP3 SWAP2 SWAP1 PUSH2 0x2664 JUMP JUMPDEST POP PUSH1 0x80 DUP3 ADD MLOAD DUP2 PUSH1 0x4 ADD SWAP1 DUP1 MLOAD SWAP1 PUSH1 0x20 ADD SWAP1 PUSH2 0x2019 SWAP3 SWAP2 SWAP1 PUSH2 0x2664 JUMP JUMPDEST POP PUSH1 0xA0 DUP3 ADD MLOAD DUP2 PUSH1 0x5 ADD SWAP1 DUP1 MLOAD SWAP1 PUSH1 0x20 ADD SWAP1 PUSH2 0x2036 SWAP3 SWAP2 SWAP1 PUSH2 0x2664 JUMP JUMPDEST POP PUSH1 0xC0 DUP3 ADD MLOAD DUP2 PUSH1 0x6 ADD SWAP1 DUP1 MLOAD SWAP1 PUSH1 0x20 ADD SWAP1 PUSH2 0x2053 SWAP3 SWAP2 SWAP1 PUSH2 0x2664 JUMP JUMPDEST POP PUSH1 0xE0 DUP3 ADD MLOAD DUP2 PUSH1 0x7 ADD SWAP1 DUP1 MLOAD SWAP1 PUSH1 0x20 ADD SWAP1 PUSH2 0x2070 SWAP3 SWAP2 SWAP1 PUSH2 0x2664 JUMP JUMPDEST POP PUSH2 0x100 DUP3 ADD MLOAD DUP2 PUSH1 0x8 ADD PUSH1 0x0 PUSH2 0x100 EXP DUP2 SLOAD DUP2 PUSH1 0xFF MUL NOT AND SWAP1 DUP4 ISZERO ISZERO MUL OR SWAP1 SSTORE POP SWAP1 POP POP POP POP POP POP POP POP POP JUMP JUMPDEST PUSH1 0x1 PUSH1 0xB PUSH1 0x0 DUP4 DUP2 MSTORE PUSH1 0x20 ADD SWAP1 DUP2 MSTORE PUSH1 0x20 ADD PUSH1 0x0 KECCAK256 PUSH1 0x8 ADD PUSH1 0x15 PUSH2 0x100 EXP DUP2 SLOAD DUP2 PUSH1 0xFF MUL NOT AND SWAP1 DUP4 ISZERO ISZERO MUL OR SWAP1 SSTORE POP POP JUMP JUMPDEST PUSH1 0x0 DUP1 ISZERO ISZERO PUSH1 0xC PUSH1 0x0 DUP6 DUP2 MSTORE PUSH1 0x20 ADD SWAP1 DUP2 MSTORE PUSH1 0x20 ADD PUSH1 0x0 KECCAK256 PUSH1 0x4 ADD PUSH1 0x1 SWAP1 SLOAD SWAP1 PUSH2 0x100 EXP SWAP1 DIV PUSH1 0xFF AND ISZERO ISZERO EQ ISZERO PUSH2 0x210A JUMPI PUSH1 0x0 SWAP1 POP PUSH2 0x265E JUMP JUMPDEST PUSH1 0x4 PUSH1 0x0 DUP2 SLOAD DUP1 SWAP3 SWAP2 SWAP1 PUSH2 0x211D SWAP1 PUSH2 0x3229 JUMP JUMPDEST SWAP2 SWAP1 POP SSTORE POP PUSH1 0x4 PUSH1 0xC PUSH1 0x0 DUP6 DUP2 MSTORE PUSH1 0x20 ADD SWAP1 DUP2 MSTORE PUSH1 0x20 ADD PUSH1 0x0 KECCAK256 PUSH1 0x4 ADD PUSH1 0x0 PUSH2 0x100 EXP DUP2 SLOAD DUP2 PUSH1 0xFF MUL NOT AND SWAP1 DUP4 PUSH1 0x4 DUP2 GT ISZERO PUSH2 0x215C JUMPI PUSH2 0x215B PUSH2 0x2AA3 JUMP JUMPDEST JUMPDEST MUL OR SWAP1 SSTORE POP PUSH1 0xA PUSH1 0x0 PUSH1 0xC PUSH1 0x0 DUP7 DUP2 MSTORE PUSH1 0x20 ADD SWAP1 DUP2 MSTORE PUSH1 0x20 ADD PUSH1 0x0 KECCAK256 PUSH1 0x2 ADD PUSH1 0x0 SWAP1 SLOAD SWAP1 PUSH2 0x100 EXP SWAP1 DIV PUSH20 0xFFFFFFFFFFFFFFFFFFFFFFFFFFFFFFFFFFFFFFFF AND PUSH20 0xFFFFFFFFFFFFFFFFFFFFFFFFFFFFFFFFFFFFFFFF AND PUSH20 0xFFFFFFFFFFFFFFFFFFFFFFFFFFFFFFFFFFFFFFFF AND DUP2 MSTORE PUSH1 0x20 ADD SWAP1 DUP2 MSTORE PUSH1 0x20 ADD PUSH1 0x0 KECCAK256 PUSH1 0xC PUSH1 0x0 DUP6 DUP2 MSTORE PUSH1 0x20 ADD SWAP1 DUP2 MSTORE PUSH1 0x20 ADD PUSH1 0x0 KECCAK256 PUSH1 0x3 ADD SLOAD SWAP1 DUP1 PUSH1 0x1 DUP2 SLOAD ADD DUP1 DUP3 SSTORE DUP1 SWAP2 POP POP PUSH1 0x1 SWAP1 SUB SWAP1 PUSH1 0x0 MSTORE PUSH1 0x20 PUSH1 0x0 KECCAK256 ADD PUSH1 0x0 SWAP1 SWAP2 SWAP1 SWAP2 SWAP1 SWAP2 POP SSTORE PUSH1 0x0 PUSH1 0xA PUSH1 0x0 PUSH1 0xC PUSH1 0x0 DUP8 DUP2 MSTORE PUSH1 0x20 ADD SWAP1 DUP2 MSTORE PUSH1 0x20 ADD PUSH1 0x0 KECCAK256 PUSH1 0x1 ADD PUSH1 0x0 SWAP1 SLOAD SWAP1 PUSH2 0x100 EXP SWAP1 DIV PUSH20 0xFFFFFFFFFFFFFFFFFFFFFFFFFFFFFFFFFFFFFFFF AND PUSH20 0xFFFFFFFFFFFFFFFFFFFFFFFFFFFFFFFFFFFFFFFF AND PUSH20 0xFFFFFFFFFFFFFFFFFFFFFFFFFFFFFFFFFFFFFFFF AND DUP2 MSTORE PUSH1 0x20 ADD SWAP1 DUP2 MSTORE PUSH1 0x20 ADD PUSH1 0x0 KECCAK256 DUP1 SLOAD SWAP1 POP SWAP1 POP PUSH1 0x0 JUMPDEST DUP2 DUP2 LT ISZERO PUSH2 0x2530 JUMPI PUSH1 0xC PUSH1 0x0 DUP7 DUP2 MSTORE PUSH1 0x20 ADD SWAP1 DUP2 MSTORE PUSH1 0x20 ADD PUSH1 0x0 KECCAK256 PUSH1 0x3 ADD SLOAD PUSH1 0xA PUSH1 0x0 PUSH1 0xC PUSH1 0x0 DUP10 DUP2 MSTORE PUSH1 0x20 ADD SWAP1 DUP2 MSTORE PUSH1 0x20 ADD PUSH1 0x0 KECCAK256 PUSH1 0x1 ADD PUSH1 0x0 SWAP1 SLOAD SWAP1 PUSH2 0x100 EXP SWAP1 DIV PUSH20 0xFFFFFFFFFFFFFFFFFFFFFFFFFFFFFFFFFFFFFFFF AND PUSH20 0xFFFFFFFFFFFFFFFFFFFFFFFFFFFFFFFFFFFFFFFF AND PUSH20 0xFFFFFFFFFFFFFFFFFFFFFFFFFFFFFFFFFFFFFFFF AND DUP2 MSTORE PUSH1 0x20 ADD SWAP1 DUP2 MSTORE PUSH1 0x20 ADD PUSH1 0x0 KECCAK256 DUP3 DUP2 SLOAD DUP2 LT PUSH2 0x2339 JUMPI PUSH2 0x2338 PUSH2 0x32D3 JUMP JUMPDEST JUMPDEST SWAP1 PUSH1 0x0 MSTORE PUSH1 0x20 PUSH1 0x0 KECCAK256 ADD SLOAD EQ ISZERO PUSH2 0x251D JUMPI PUSH1 0xA PUSH1 0x0 PUSH1 0xC PUSH1 0x0 DUP9 DUP2 MSTORE PUSH1 0x20 ADD SWAP1 DUP2 MSTORE PUSH1 0x20 ADD PUSH1 0x0 KECCAK256 PUSH1 0x1 ADD PUSH1 0x0 SWAP1 SLOAD SWAP1 PUSH2 0x100 EXP SWAP1 DIV PUSH20 0xFFFFFFFFFFFFFFFFFFFFFFFFFFFFFFFFFFFFFFFF AND PUSH20 0xFFFFFFFFFFFFFFFFFFFFFFFFFFFFFFFFFFFFFFFF AND PUSH20 0xFFFFFFFFFFFFFFFFFFFFFFFFFFFFFFFFFFFFFFFF AND DUP2 MSTORE PUSH1 0x20 ADD SWAP1 DUP2 MSTORE PUSH1 0x20 ADD PUSH1 0x0 KECCAK256 PUSH1 0x1 DUP4 PUSH2 0x23CC SWAP2 SWAP1 PUSH2 0x3302 JUMP JUMPDEST DUP2 SLOAD DUP2 LT PUSH2 0x23DD JUMPI PUSH2 0x23DC PUSH2 0x32D3 JUMP JUMPDEST JUMPDEST SWAP1 PUSH1 0x0 MSTORE PUSH1 0x20 PUSH1 0x0 KECCAK256 ADD SLOAD PUSH1 0xA PUSH1 0x0 PUSH1 0xC PUSH1 0x0 DUP10 DUP2 MSTORE PUSH1 0x20 ADD SWAP1 DUP2 MSTORE PUSH1 0x20 ADD PUSH1 0x0 KECCAK256 PUSH1 0x1 ADD PUSH1 0x0 SWAP1 SLOAD SWAP1 PUSH2 0x100 EXP SWAP1 DIV PUSH20 0xFFFFFFFFFFFFFFFFFFFFFFFFFFFFFFFFFFFFFFFF AND PUSH20 0xFFFFFFFFFFFFFFFFFFFFFFFFFFFFFFFFFFFFFFFF AND PUSH20 0xFFFFFFFFFFFFFFFFFFFFFFFFFFFFFFFFFFFFFFFF AND DUP2 MSTORE PUSH1 0x20 ADD SWAP1 DUP2 MSTORE PUSH1 0x20 ADD PUSH1 0x0 KECCAK256 DUP3 DUP2 SLOAD DUP2 LT PUSH2 0x246F JUMPI PUSH2 0x246E PUSH2 0x32D3 JUMP JUMPDEST JUMPDEST SWAP1 PUSH1 0x0 MSTORE PUSH1 0x20 PUSH1 0x0 KECCAK256 ADD DUP2 SWAP1 SSTORE POP PUSH1 0xA PUSH1 0x0 PUSH1 0xC PUSH1 0x0 DUP9 DUP2 MSTORE PUSH1 0x20 ADD SWAP1 DUP2 MSTORE PUSH1 0x20 ADD PUSH1 0x0 KECCAK256 PUSH1 0x1 ADD PUSH1 0x0 SWAP1 SLOAD SWAP1 PUSH2 0x100 EXP SWAP1 DIV PUSH20 0xFFFFFFFFFFFFFFFFFFFFFFFFFFFFFFFFFFFFFFFF AND PUSH20 0xFFFFFFFFFFFFFFFFFFFFFFFFFFFFFFFFFFFFFFFF AND PUSH20 0xFFFFFFFFFFFFFFFFFFFFFFFFFFFFFFFFFFFFFFFF AND DUP2 MSTORE PUSH1 0x20 ADD SWAP1 DUP2 MSTORE PUSH1 0x20 ADD PUSH1 0x0 KECCAK256 DUP1 SLOAD DUP1 PUSH2 0x2502 JUMPI PUSH2 0x2501 PUSH2 0x3336 JUMP JUMPDEST JUMPDEST PUSH1 0x1 SWAP1 SUB DUP2 DUP2 SWAP1 PUSH1 0x0 MSTORE PUSH1 0x20 PUSH1 0x0 KECCAK256 ADD PUSH1 0x0 SWAP1 SSTORE SWAP1 SSTORE PUSH2 0x2530 JUMP JUMPDEST DUP1 DUP1 PUSH2 0x2528 SWAP1 PUSH2 0x3229 JUMP JUMPDEST SWAP2 POP POP PUSH2 0x2293 JUMP JUMPDEST POP DUP3 PUSH1 0xB PUSH1 0x0 PUSH1 0xC PUSH1 0x0 DUP9 DUP2 MSTORE PUSH1 0x20 ADD SWAP1 DUP2 MSTORE PUSH1 0x20 ADD PUSH1 0x0 KECCAK256 PUSH1 0x3 ADD SLOAD DUP2 MSTORE PUSH1 0x20 ADD SWAP1 DUP2 MSTORE PUSH1 0x20 ADD PUSH1 0x0 KECCAK256 PUSH1 0x7 ADD SWAP1 DUP1 MLOAD SWAP1 PUSH1 0x20 ADD SWAP1 PUSH2 0x2571 SWAP3 SWAP2 SWAP1 PUSH2 0x2664 JUMP JUMPDEST POP PUSH1 0x0 PUSH1 0xB PUSH1 0x0 PUSH1 0xC PUSH1 0x0 DUP9 DUP2 MSTORE PUSH1 0x20 ADD SWAP1 DUP2 MSTORE PUSH1 0x20 ADD PUSH1 0x0 KECCAK256 PUSH1 0x3 ADD SLOAD DUP2 MSTORE PUSH1 0x20 ADD SWAP1 DUP2 MSTORE PUSH1 0x20 ADD PUSH1 0x0 KECCAK256 PUSH1 0x8 ADD PUSH1 0x0 PUSH2 0x100 EXP DUP2 SLOAD DUP2 PUSH1 0xFF MUL NOT AND SWAP1 DUP4 ISZERO ISZERO MUL OR SWAP1 SSTORE POP PUSH1 0xC PUSH1 0x0 DUP6 DUP2 MSTORE PUSH1 0x20 ADD SWAP1 DUP2 MSTORE PUSH1 0x20 ADD PUSH1 0x0 KECCAK256 PUSH1 0x2 ADD PUSH1 0x0 SWAP1 SLOAD SWAP1 PUSH2 0x100 EXP SWAP1 DIV PUSH20 0xFFFFFFFFFFFFFFFFFFFFFFFFFFFFFFFFFFFFFFFF AND PUSH1 0xB PUSH1 0x0 PUSH1 0xC PUSH1 0x0 DUP9 DUP2 MSTORE PUSH1 0x20 ADD SWAP1 DUP2 MSTORE PUSH1 0x20 ADD PUSH1 0x0 KECCAK256 PUSH1 0x3 ADD SLOAD DUP2 MSTORE PUSH1 0x20 ADD SWAP1 DUP2 MSTORE PUSH1 0x20 ADD PUSH1 0x0 KECCAK256 PUSH1 0x8 ADD PUSH1 0x1 PUSH2 0x100 EXP DUP2 SLOAD DUP2 PUSH20 0xFFFFFFFFFFFFFFFFFFFFFFFFFFFFFFFFFFFFFFFF MUL NOT AND SWAP1 DUP4 PUSH20 0xFFFFFFFFFFFFFFFFFFFFFFFFFFFFFFFFFFFFFFFF AND MUL OR SWAP1 SSTORE POP PUSH1 0x1 SWAP2 POP POP JUMPDEST SWAP3 SWAP2 POP POP JUMP JUMPDEST DUP3 DUP1 SLOAD PUSH2 0x2670 SWAP1 PUSH2 0x32A1 JUMP JUMPDEST SWAP1 PUSH1 0x0 MSTORE PUSH1 0x20 PUSH1 0x0 KECCAK256 SWAP1 PUSH1 0x1F ADD PUSH1 0x20 SWAP1 DIV DUP2 ADD SWAP3 DUP3 PUSH2 0x2692 JUMPI PUSH1 0x0 DUP6 SSTORE PUSH2 0x26D9 JUMP JUMPDEST DUP3 PUSH1 0x1F LT PUSH2 0x26AB JUMPI DUP1 MLOAD PUSH1 0xFF NOT AND DUP4 DUP1 ADD OR DUP6 SSTORE PUSH2 0x26D9 JUMP JUMPDEST DUP3 DUP1 ADD PUSH1 0x1 ADD DUP6 SSTORE DUP3 ISZERO PUSH2 0x26D9 JUMPI SWAP2 DUP3 ADD JUMPDEST DUP3 DUP2 GT ISZERO PUSH2 0x26D8 JUMPI DUP3 MLOAD DUP3 SSTORE SWAP2 PUSH1 0x20 ADD SWAP2 SWAP1 PUSH1 0x1 ADD SWAP1 PUSH2 0x26BD JUMP JUMPDEST JUMPDEST POP SWAP1 POP PUSH2 0x26E6 SWAP2 SWAP1 PUSH2 0x26EA JUMP JUMPDEST POP SWAP1 JUMP JUMPDEST JUMPDEST DUP1 DUP3 GT ISZERO PUSH2 0x2703 JUMPI PUSH1 0x0 DUP2 PUSH1 0x0 SWAP1 SSTORE POP PUSH1 0x1 ADD PUSH2 0x26EB JUMP JUMPDEST POP SWAP1 JUMP JUMPDEST PUSH1 0x0 DUP2 SWAP1 POP SWAP2 SWAP1 POP JUMP JUMPDEST PUSH2 0x271A DUP2 PUSH2 0x2707 JUMP JUMPDEST DUP3 MSTORE POP POP JUMP JUMPDEST PUSH1 0x0 PUSH1 0x20 DUP3 ADD SWAP1 POP PUSH2 0x2735 PUSH1 0x0 DUP4 ADD DUP5 PUSH2 0x2711 JUMP JUMPDEST SWAP3 SWAP2 POP POP JUMP JUMPDEST PUSH1 0x0 PUSH1 0x40 MLOAD SWAP1 POP SWAP1 JUMP JUMPDEST PUSH1 0x0 DUP1 REVERT JUMPDEST PUSH1 0x0 DUP1 REVERT JUMPDEST PUSH1 0x0 PUSH20 0xFFFFFFFFFFFFFFFFFFFFFFFFFFFFFFFFFFFFFFFF DUP3 AND SWAP1 POP SWAP2 SWAP1 POP JUMP JUMPDEST PUSH1 0x0 PUSH2 0x277A DUP3 PUSH2 0x274F JUMP JUMPDEST SWAP1 POP SWAP2 SWAP1 POP JUMP JUMPDEST PUSH2 0x278A DUP2 PUSH2 0x276F JUMP JUMPDEST DUP2 EQ PUSH2 0x2795 JUMPI PUSH1 0x0 DUP1 REVERT JUMPDEST POP JUMP JUMPDEST PUSH1 0x0 DUP2 CALLDATALOAD SWAP1 POP PUSH2 0x27A7 DUP2 PUSH2 0x2781 JUMP JUMPDEST SWAP3 SWAP2 POP POP JUMP JUMPDEST PUSH1 0x0 PUSH1 0x20 DUP3 DUP5 SUB SLT ISZERO PUSH2 0x27C3 JUMPI PUSH2 0x27C2 PUSH2 0x2745 JUMP JUMPDEST JUMPDEST PUSH1 0x0 PUSH2 0x27D1 DUP5 DUP3 DUP6 ADD PUSH2 0x2798 JUMP JUMPDEST SWAP2 POP POP SWAP3 SWAP2 POP POP JUMP JUMPDEST PUSH1 0x0 DUP2 ISZERO ISZERO SWAP1 POP SWAP2 SWAP1 POP JUMP JUMPDEST PUSH2 0x27EF DUP2 PUSH2 0x27DA JUMP JUMPDEST DUP3 MSTORE POP POP JUMP JUMPDEST PUSH1 0x0 PUSH1 0x20 DUP3 ADD SWAP1 POP PUSH2 0x280A PUSH1 0x0 DUP4 ADD DUP5 PUSH2 0x27E6 JUMP JUMPDEST SWAP3 SWAP2 POP POP JUMP JUMPDEST PUSH1 0x0 DUP2 MLOAD SWAP1 POP SWAP2 SWAP1 POP JUMP JUMPDEST PUSH1 0x0 DUP3 DUP3 MSTORE PUSH1 0x20 DUP3 ADD SWAP1 POP SWAP3 SWAP2 POP POP JUMP JUMPDEST PUSH1 0x0 DUP2 SWAP1 POP PUSH1 0x20 DUP3 ADD SWAP1 POP SWAP2 SWAP1 POP JUMP JUMPDEST PUSH2 0x2845 DUP2 PUSH2 0x2707 JUMP JUMPDEST DUP3 MSTORE POP POP JUMP JUMPDEST PUSH1 0x0 PUSH2 0x2857 DUP4 DUP4 PUSH2 0x283C JUMP JUMPDEST PUSH1 0x20 DUP4 ADD SWAP1 POP SWAP3 SWAP2 POP POP JUMP JUMPDEST PUSH1 0x0 PUSH1 0x20 DUP3 ADD SWAP1 POP SWAP2 SWAP1 POP JUMP JUMPDEST PUSH1 0x0 PUSH2 0x287B DUP3 PUSH2 0x2810 JUMP JUMPDEST PUSH2 0x2885 DUP2 DUP6 PUSH2 0x281B JUMP JUMPDEST SWAP4 POP PUSH2 0x2890 DUP4 PUSH2 0x282C JUMP JUMPDEST DUP1 PUSH1 0x0 JUMPDEST DUP4 DUP2 LT ISZERO PUSH2 0x28C1 JUMPI DUP2 MLOAD PUSH2 0x28A8 DUP9 DUP3 PUSH2 0x284B JUMP JUMPDEST SWAP8 POP PUSH2 0x28B3 DUP4 PUSH2 0x2863 JUMP JUMPDEST SWAP3 POP POP PUSH1 0x1 DUP2 ADD SWAP1 POP PUSH2 0x2894 JUMP JUMPDEST POP DUP6 SWAP4 POP POP POP POP SWAP3 SWAP2 POP POP JUMP JUMPDEST PUSH1 0x0 PUSH1 0x20 DUP3 ADD SWAP1 POP DUP2 DUP2 SUB PUSH1 0x0 DUP4 ADD MSTORE PUSH2 0x28E8 DUP2 DUP5 PUSH2 0x2870 JUMP JUMPDEST SWAP1 POP SWAP3 SWAP2 POP POP JUMP JUMPDEST PUSH2 0x28F9 DUP2 PUSH2 0x2707 JUMP JUMPDEST DUP2 EQ PUSH2 0x2904 JUMPI PUSH1 0x0 DUP1 REVERT JUMPDEST POP JUMP JUMPDEST PUSH1 0x0 DUP2 CALLDATALOAD SWAP1 POP PUSH2 0x2916 DUP2 PUSH2 0x28F0 JUMP JUMPDEST SWAP3 SWAP2 POP POP JUMP JUMPDEST PUSH1 0x0 PUSH1 0x20 DUP3 DUP5 SUB SLT ISZERO PUSH2 0x2932 JUMPI PUSH2 0x2931 PUSH2 0x2745 JUMP JUMPDEST JUMPDEST PUSH1 0x0 PUSH2 0x2940 DUP5 DUP3 DUP6 ADD PUSH2 0x2907 JUMP JUMPDEST SWAP2 POP POP SWAP3 SWAP2 POP POP JUMP JUMPDEST PUSH1 0x0 DUP2 MLOAD SWAP1 POP SWAP2 SWAP1 POP JUMP JUMPDEST PUSH1 0x0 DUP3 DUP3 MSTORE PUSH1 0x20 DUP3 ADD SWAP1 POP SWAP3 SWAP2 POP POP JUMP JUMPDEST PUSH1 0x0 DUP2 SWAP1 POP PUSH1 0x20 DUP3 ADD SWAP1 POP SWAP2 SWAP1 POP JUMP JUMPDEST PUSH2 0x297E DUP2 PUSH2 0x276F JUMP JUMPDEST DUP3 MSTORE POP POP JUMP JUMPDEST PUSH1 0x0 PUSH2 0x2990 DUP4 DUP4 PUSH2 0x2975 JUMP JUMPDEST PUSH1 0x20 DUP4 ADD SWAP1 POP SWAP3 SWAP2 POP POP JUMP JUMPDEST PUSH1 0x0 PUSH1 0x20 DUP3 ADD SWAP1 POP SWAP2 SWAP1 POP JUMP JUMPDEST PUSH1 0x0 PUSH2 0x29B4 DUP3 PUSH2 0x2949 JUMP JUMPDEST PUSH2 0x29BE DUP2 DUP6 PUSH2 0x2954 JUMP JUMPDEST SWAP4 POP PUSH2 0x29C9 DUP4 PUSH2 0x2965 JUMP JUMPDEST DUP1 PUSH1 0x0 JUMPDEST DUP4 DUP2 LT ISZERO PUSH2 0x29FA JUMPI DUP2 MLOAD PUSH2 0x29E1 DUP9 DUP3 PUSH2 0x2984 JUMP JUMPDEST SWAP8 POP PUSH2 0x29EC DUP4 PUSH2 0x299C JUMP JUMPDEST SWAP3 POP POP PUSH1 0x1 DUP2 ADD SWAP1 POP PUSH2 0x29CD JUMP JUMPDEST POP DUP6 SWAP4 POP POP POP POP SWAP3 SWAP2 POP POP JUMP JUMPDEST PUSH1 0x0 PUSH1 0x20 DUP3 ADD SWAP1 POP DUP2 DUP2 SUB PUSH1 0x0 DUP4 ADD MSTORE PUSH2 0x2A21 DUP2 DUP5 PUSH2 0x29A9 JUMP JUMPDEST SWAP1 POP SWAP3 SWAP2 POP POP JUMP JUMPDEST PUSH1 0x0 PUSH2 0x2A34 DUP3 PUSH2 0x274F JUMP JUMPDEST SWAP1 POP SWAP2 SWAP1 POP JUMP JUMPDEST PUSH2 0x2A44 DUP2 PUSH2 0x2A29 JUMP JUMPDEST DUP2 EQ PUSH2 0x2A4F JUMPI PUSH1 0x0 DUP1 REVERT JUMPDEST POP JUMP JUMPDEST PUSH1 0x0 DUP2 CALLDATALOAD SWAP1 POP PUSH2 0x2A61 DUP2 PUSH2 0x2A3B JUMP JUMPDEST SWAP3 SWAP2 POP POP JUMP JUMPDEST PUSH1 0x0 PUSH1 0x20 DUP3 DUP5 SUB SLT ISZERO PUSH2 0x2A7D JUMPI PUSH2 0x2A7C PUSH2 0x2745 JUMP JUMPDEST JUMPDEST PUSH1 0x0 PUSH2 0x2A8B DUP5 DUP3 DUP6 ADD PUSH2 0x2A52 JUMP JUMPDEST SWAP2 POP POP SWAP3 SWAP2 POP POP JUMP JUMPDEST PUSH2 0x2A9D DUP2 PUSH2 0x2A29 JUMP JUMPDEST DUP3 MSTORE POP POP JUMP JUMPDEST PUSH32 0x4E487B7100000000000000000000000000000000000000000000000000000000 PUSH1 0x0 MSTORE PUSH1 0x21 PUSH1 0x4 MSTORE PUSH1 0x24 PUSH1 0x0 REVERT JUMPDEST PUSH1 0x5 DUP2 LT PUSH2 0x2AE3 JUMPI PUSH2 0x2AE2 PUSH2 0x2AA3 JUMP JUMPDEST JUMPDEST POP JUMP JUMPDEST PUSH1 0x0 DUP2 SWAP1 POP PUSH2 0x2AF4 DUP3 PUSH2 0x2AD2 JUMP JUMPDEST SWAP2 SWAP1 POP JUMP JUMPDEST PUSH1 0x0 PUSH2 0x2B04 DUP3 PUSH2 0x2AE6 JUMP JUMPDEST SWAP1 POP SWAP2 SWAP1 POP JUMP JUMPDEST PUSH2 0x2B14 DUP2 PUSH2 0x2AF9 JUMP JUMPDEST DUP3 MSTORE POP POP JUMP JUMPDEST PUSH1 0x0 PUSH1 0xC0 DUP3 ADD SWAP1 POP PUSH2 0x2B2F PUSH1 0x0 DUP4 ADD DUP10 PUSH2 0x2711 JUMP JUMPDEST PUSH2 0x2B3C PUSH1 0x20 DUP4 ADD DUP9 PUSH2 0x2A94 JUMP JUMPDEST PUSH2 0x2B49 PUSH1 0x40 DUP4 ADD DUP8 PUSH2 0x2A94 JUMP JUMPDEST PUSH2 0x2B56 PUSH1 0x60 DUP4 ADD DUP7 PUSH2 0x2711 JUMP JUMPDEST PUSH2 0x2B63 PUSH1 0x80 DUP4 ADD DUP6 PUSH2 0x2B0B JUMP JUMPDEST PUSH2 0x2B70 PUSH1 0xA0 DUP4 ADD DUP5 PUSH2 0x27E6 JUMP JUMPDEST SWAP8 SWAP7 POP POP POP POP POP POP POP JUMP JUMPDEST PUSH1 0x0 DUP1 REVERT JUMPDEST PUSH1 0x0 DUP1 REVERT JUMPDEST PUSH1 0x0 PUSH1 0x1F NOT PUSH1 0x1F DUP4 ADD AND SWAP1 POP SWAP2 SWAP1 POP JUMP JUMPDEST PUSH32 0x4E487B7100000000000000000000000000000000000000000000000000000000 PUSH1 0x0 MSTORE PUSH1 0x41 PUSH1 0x4 MSTORE PUSH1 0x24 PUSH1 0x0 REVERT JUMPDEST PUSH2 0x2BCE DUP3 PUSH2 0x2B85 JUMP JUMPDEST DUP2 ADD DUP2 DUP2 LT PUSH8 0xFFFFFFFFFFFFFFFF DUP3 GT OR ISZERO PUSH2 0x2BED JUMPI PUSH2 0x2BEC PUSH2 0x2B96 JUMP JUMPDEST JUMPDEST DUP1 PUSH1 0x40 MSTORE POP POP POP JUMP JUMPDEST PUSH1 0x0 PUSH2 0x2C00 PUSH2 0x273B JUMP JUMPDEST SWAP1 POP PUSH2 0x2C0C DUP3 DUP3 PUSH2 0x2BC5 JUMP JUMPDEST SWAP2 SWAP1 POP JUMP JUMPDEST PUSH1 0x0 PUSH8 0xFFFFFFFFFFFFFFFF DUP3 GT ISZERO PUSH2 0x2C2C JUMPI PUSH2 0x2C2B PUSH2 0x2B96 JUMP JUMPDEST JUMPDEST PUSH2 0x2C35 DUP3 PUSH2 0x2B85 JUMP JUMPDEST SWAP1 POP PUSH1 0x20 DUP2 ADD SWAP1 POP SWAP2 SWAP1 POP JUMP JUMPDEST DUP3 DUP2 DUP4 CALLDATACOPY PUSH1 0x0 DUP4 DUP4 ADD MSTORE POP POP POP JUMP JUMPDEST PUSH1 0x0 PUSH2 0x2C64 PUSH2 0x2C5F DUP5 PUSH2 0x2C11 JUMP JUMPDEST PUSH2 0x2BF6 JUMP JUMPDEST SWAP1 POP DUP3 DUP2 MSTORE PUSH1 0x20 DUP2 ADD DUP5 DUP5 DUP5 ADD GT ISZERO PUSH2 0x2C80 JUMPI PUSH2 0x2C7F PUSH2 0x2B80 JUMP JUMPDEST JUMPDEST PUSH2 0x2C8B DUP5 DUP3 DUP6 PUSH2 0x2C42 JUMP JUMPDEST POP SWAP4 SWAP3 POP POP POP JUMP JUMPDEST PUSH1 0x0 DUP3 PUSH1 0x1F DUP4 ADD SLT PUSH2 0x2CA8 JUMPI PUSH2 0x2CA7 PUSH2 0x2B7B JUMP JUMPDEST JUMPDEST DUP2 CALLDATALOAD PUSH2 0x2CB8 DUP5 DUP3 PUSH1 0x20 DUP7 ADD PUSH2 0x2C51 JUMP JUMPDEST SWAP2 POP POP SWAP3 SWAP2 POP POP JUMP JUMPDEST PUSH1 0x0 DUP1 PUSH1 0x0 DUP1 PUSH1 0x0 DUP1 PUSH1 0x0 PUSH1 0xE0 DUP9 DUP11 SUB SLT ISZERO PUSH2 0x2CE0 JUMPI PUSH2 0x2CDF PUSH2 0x2745 JUMP JUMPDEST JUMPDEST PUSH1 0x0 PUSH2 0x2CEE DUP11 DUP3 DUP12 ADD PUSH2 0x2907 JUMP JUMPDEST SWAP8 POP POP PUSH1 0x20 DUP9 ADD CALLDATALOAD PUSH8 0xFFFFFFFFFFFFFFFF DUP2 GT ISZERO PUSH2 0x2D0F JUMPI PUSH2 0x2D0E PUSH2 0x274A JUMP JUMPDEST JUMPDEST PUSH2 0x2D1B DUP11 DUP3 DUP12 ADD PUSH2 0x2C93 JUMP JUMPDEST SWAP7 POP POP PUSH1 0x40 PUSH2 0x2D2C DUP11 DUP3 DUP12 ADD PUSH2 0x2907 JUMP JUMPDEST SWAP6 POP POP PUSH1 0x60 DUP9 ADD CALLDATALOAD PUSH8 0xFFFFFFFFFFFFFFFF DUP2 GT ISZERO PUSH2 0x2D4D JUMPI PUSH2 0x2D4C PUSH2 0x274A JUMP JUMPDEST JUMPDEST PUSH2 0x2D59 DUP11 DUP3 DUP12 ADD PUSH2 0x2C93 JUMP JUMPDEST SWAP5 POP POP PUSH1 0x80 PUSH2 0x2D6A DUP11 DUP3 DUP12 ADD PUSH2 0x2907 JUMP JUMPDEST SWAP4 POP POP PUSH1 0xA0 DUP9 ADD CALLDATALOAD PUSH8 0xFFFFFFFFFFFFFFFF DUP2 GT ISZERO PUSH2 0x2D8B JUMPI PUSH2 0x2D8A PUSH2 0x274A JUMP JUMPDEST JUMPDEST PUSH2 0x2D97 DUP11 DUP3 DUP12 ADD PUSH2 0x2C93 JUMP JUMPDEST SWAP3 POP POP PUSH1 0xC0 DUP9 ADD CALLDATALOAD PUSH8 0xFFFFFFFFFFFFFFFF DUP2 GT ISZERO PUSH2 0x2DB8 JUMPI PUSH2 0x2DB7 PUSH2 0x274A JUMP JUMPDEST JUMPDEST PUSH2 0x2DC4 DUP11 DUP3 DUP12 ADD PUSH2 0x2C93 JUMP JUMPDEST SWAP2 POP POP SWAP3 SWAP6 SWAP9 SWAP2 SWAP5 SWAP8 POP SWAP3 SWAP6 POP JUMP JUMPDEST PUSH2 0x2DDC DUP2 PUSH2 0x276F JUMP JUMPDEST DUP3 MSTORE POP POP JUMP JUMPDEST PUSH1 0x0 DUP2 MLOAD SWAP1 POP SWAP2 SWAP1 POP JUMP JUMPDEST PUSH1 0x0 DUP3 DUP3 MSTORE PUSH1 0x20 DUP3 ADD SWAP1 POP SWAP3 SWAP2 POP POP JUMP JUMPDEST PUSH1 0x0 JUMPDEST DUP4 DUP2 LT ISZERO PUSH2 0x2E1C JUMPI DUP1 DUP3 ADD MLOAD DUP2 DUP5 ADD MSTORE PUSH1 0x20 DUP2 ADD SWAP1 POP PUSH2 0x2E01 JUMP JUMPDEST DUP4 DUP2 GT ISZERO PUSH2 0x2E2B JUMPI PUSH1 0x0 DUP5 DUP5 ADD MSTORE JUMPDEST POP POP POP POP JUMP JUMPDEST PUSH1 0x0 PUSH2 0x2E3C DUP3 PUSH2 0x2DE2 JUMP JUMPDEST PUSH2 0x2E46 DUP2 DUP6 PUSH2 0x2DED JUMP JUMPDEST SWAP4 POP PUSH2 0x2E56 DUP2 DUP6 PUSH1 0x20 DUP7 ADD PUSH2 0x2DFE JUMP JUMPDEST PUSH2 0x2E5F DUP2 PUSH2 0x2B85 JUMP JUMPDEST DUP5 ADD SWAP2 POP POP SWAP3 SWAP2 POP POP JUMP JUMPDEST PUSH1 0x0 PUSH2 0x120 DUP3 ADD SWAP1 POP PUSH2 0x2E80 PUSH1 0x0 DUP4 ADD DUP13 PUSH2 0x2DD3 JUMP JUMPDEST DUP2 DUP2 SUB PUSH1 0x20 DUP4 ADD MSTORE PUSH2 0x2E92 DUP2 DUP12 PUSH2 0x2E31 JUMP JUMPDEST SWAP1 POP PUSH2 0x2EA1 PUSH1 0x40 DUP4 ADD DUP11 PUSH2 0x2711 JUMP JUMPDEST DUP2 DUP2 SUB PUSH1 0x60 DUP4 ADD MSTORE PUSH2 0x2EB3 DUP2 DUP10 PUSH2 0x2E31 JUMP JUMPDEST SWAP1 POP DUP2 DUP2 SUB PUSH1 0x80 DUP4 ADD MSTORE PUSH2 0x2EC7 DUP2 DUP9 PUSH2 0x2E31 JUMP JUMPDEST SWAP1 POP DUP2 DUP2 SUB PUSH1 0xA0 DUP4 ADD MSTORE PUSH2 0x2EDB DUP2 DUP8 PUSH2 0x2E31 JUMP JUMPDEST SWAP1 POP DUP2 DUP2 SUB PUSH1 0xC0 DUP4 ADD MSTORE PUSH2 0x2EEF DUP2 DUP7 PUSH2 0x2E31 JUMP JUMPDEST SWAP1 POP DUP2 DUP2 SUB PUSH1 0xE0 DUP4 ADD MSTORE PUSH2 0x2F03 DUP2 DUP6 PUSH2 0x2E31 JUMP JUMPDEST SWAP1 POP PUSH2 0x2F13 PUSH2 0x100 DUP4 ADD DUP5 PUSH2 0x27E6 JUMP JUMPDEST SWAP11 SWAP10 POP POP POP POP POP POP POP POP POP POP JUMP JUMPDEST PUSH1 0x0 PUSH2 0x160 DUP3 ADD SWAP1 POP PUSH2 0x2F37 PUSH1 0x0 DUP4 ADD DUP15 PUSH2 0x2711 JUMP JUMPDEST PUSH2 0x2F44 PUSH1 0x20 DUP4 ADD DUP14 PUSH2 0x2711 JUMP JUMPDEST DUP2 DUP2 SUB PUSH1 0x40 DUP4 ADD MSTORE PUSH2 0x2F56 DUP2 DUP13 PUSH2 0x2E31 JUMP JUMPDEST SWAP1 POP PUSH2 0x2F65 PUSH1 0x60 DUP4 ADD DUP12 PUSH2 0x2711 JUMP JUMPDEST DUP2 DUP2 SUB PUSH1 0x80 DUP4 ADD MSTORE PUSH2 0x2F77 DUP2 DUP11 PUSH2 0x2E31 JUMP JUMPDEST SWAP1 POP PUSH2 0x2F86 PUSH1 0xA0 DUP4 ADD DUP10 PUSH2 0x2711 JUMP JUMPDEST DUP2 DUP2 SUB PUSH1 0xC0 DUP4 ADD MSTORE PUSH2 0x2F98 DUP2 DUP9 PUSH2 0x2E31 JUMP JUMPDEST SWAP1 POP DUP2 DUP2 SUB PUSH1 0xE0 DUP4 ADD MSTORE PUSH2 0x2FAC DUP2 DUP8 PUSH2 0x2E31 JUMP JUMPDEST SWAP1 POP PUSH2 0x2FBC PUSH2 0x100 DUP4 ADD DUP7 PUSH2 0x27E6 JUMP JUMPDEST PUSH2 0x2FCA PUSH2 0x120 DUP4 ADD DUP6 PUSH2 0x2A94 JUMP JUMPDEST PUSH2 0x2FD8 PUSH2 0x140 DUP4 ADD DUP5 PUSH2 0x27E6 JUMP JUMPDEST SWAP13 SWAP12 POP POP POP POP POP POP POP POP POP POP POP POP JUMP JUMPDEST PUSH1 0x0 DUP1 PUSH1 0x0 DUP1 PUSH1 0x0 DUP1 PUSH1 0x0 PUSH1 0xE0 DUP9 DUP11 SUB SLT ISZERO PUSH2 0x3007 JUMPI PUSH2 0x3006 PUSH2 0x2745 JUMP JUMPDEST JUMPDEST PUSH1 0x0 DUP9 ADD CALLDATALOAD PUSH8 0xFFFFFFFFFFFFFFFF DUP2 GT ISZERO PUSH2 0x3025 JUMPI PUSH2 0x3024 PUSH2 0x274A JUMP JUMPDEST JUMPDEST PUSH2 0x3031 DUP11 DUP3 DUP12 ADD PUSH2 0x2C93 JUMP JUMPDEST SWAP8 POP POP PUSH1 0x20 PUSH2 0x3042 DUP11 DUP3 DUP12 ADD PUSH2 0x2907 JUMP JUMPDEST SWAP7 POP POP PUSH1 0x40 DUP9 ADD CALLDATALOAD PUSH8 0xFFFFFFFFFFFFFFFF DUP2 GT ISZERO PUSH2 0x3063 JUMPI PUSH2 0x3062 PUSH2 0x274A JUMP JUMPDEST JUMPDEST PUSH2 0x306F DUP11 DUP3 DUP12 ADD PUSH2 0x2C93 JUMP JUMPDEST SWAP6 POP POP PUSH1 0x60 DUP9 ADD CALLDATALOAD PUSH8 0xFFFFFFFFFFFFFFFF DUP2 GT ISZERO PUSH2 0x3090 JUMPI PUSH2 0x308F PUSH2 0x274A JUMP JUMPDEST JUMPDEST PUSH2 0x309C DUP11 DUP3 DUP12 ADD PUSH2 0x2C93 JUMP JUMPDEST SWAP5 POP POP PUSH1 0x80 DUP9 ADD CALLDATALOAD PUSH8 0xFFFFFFFFFFFFFFFF DUP2 GT ISZERO PUSH2 0x30BD JUMPI PUSH2 0x30BC PUSH2 0x274A JUMP JUMPDEST JUMPDEST PUSH2 0x30C9 DUP11 DUP3 DUP12 ADD PUSH2 0x2C93 JUMP JUMPDEST SWAP4 POP POP PUSH1 0xA0 DUP9 ADD CALLDATALOAD PUSH8 0xFFFFFFFFFFFFFFFF DUP2 GT ISZERO PUSH2 0x30EA JUMPI PUSH2 0x30E9 PUSH2 0x274A JUMP JUMPDEST JUMPDEST PUSH2 0x30F6 DUP11 DUP3 DUP12 ADD PUSH2 0x2C93 JUMP JUMPDEST SWAP3 POP POP PUSH1 0xC0 DUP9 ADD CALLDATALOAD PUSH8 0xFFFFFFFFFFFFFFFF DUP2 GT ISZERO PUSH2 0x3117 JUMPI PUSH2 0x3116 PUSH2 0x274A JUMP JUMPDEST JUMPDEST PUSH2 0x3123 DUP11 DUP3 DUP12 ADD PUSH2 0x2C93 JUMP JUMPDEST SWAP2 POP POP SWAP3 SWAP6 SWAP9 SWAP2 SWAP5 SWAP8 POP SWAP3 SWAP6 POP JUMP JUMPDEST PUSH1 0x0 DUP1 PUSH1 0x40 DUP4 DUP6 SUB SLT ISZERO PUSH2 0x3149 JUMPI PUSH2 0x3148 PUSH2 0x2745 JUMP JUMPDEST JUMPDEST PUSH1 0x0 PUSH2 0x3157 DUP6 DUP3 DUP7 ADD PUSH2 0x2907 JUMP JUMPDEST SWAP3 POP POP PUSH1 0x20 DUP4 ADD CALLDATALOAD PUSH8 0xFFFFFFFFFFFFFFFF DUP2 GT ISZERO PUSH2 0x3178 JUMPI PUSH2 0x3177 PUSH2 0x274A JUMP JUMPDEST JUMPDEST PUSH2 0x3184 DUP6 DUP3 DUP7 ADD PUSH2 0x2C93 JUMP JUMPDEST SWAP2 POP POP SWAP3 POP SWAP3 SWAP1 POP JUMP JUMPDEST PUSH32 0x796F7520617265206E6F7420636F6E74726163744F776E657200000000000000 PUSH1 0x0 DUP3 ADD MSTORE POP JUMP JUMPDEST PUSH1 0x0 PUSH2 0x31C4 PUSH1 0x19 DUP4 PUSH2 0x2DED JUMP JUMPDEST SWAP2 POP PUSH2 0x31CF DUP3 PUSH2 0x318E JUMP JUMPDEST PUSH1 0x20 DUP3 ADD SWAP1 POP SWAP2 SWAP1 POP JUMP JUMPDEST PUSH1 0x0 PUSH1 0x20 DUP3 ADD SWAP1 POP DUP2 DUP2 SUB PUSH1 0x0 DUP4 ADD MSTORE PUSH2 0x31F3 DUP2 PUSH2 0x31B7 JUMP JUMPDEST SWAP1 POP SWAP2 SWAP1 POP JUMP JUMPDEST PUSH32 0x4E487B7100000000000000000000000000000000000000000000000000000000 PUSH1 0x0 MSTORE PUSH1 0x11 PUSH1 0x4 MSTORE PUSH1 0x24 PUSH1 0x0 REVERT JUMPDEST PUSH1 0x0 PUSH2 0x3234 DUP3 PUSH2 0x2707 JUMP JUMPDEST SWAP2 POP PUSH32 0xFFFFFFFFFFFFFFFFFFFFFFFFFFFFFFFFFFFFFFFFFFFFFFFFFFFFFFFFFFFFFFFF DUP3 EQ ISZERO PUSH2 0x3267 JUMPI PUSH2 0x3266 PUSH2 0x31FA JUMP JUMPDEST JUMPDEST PUSH1 0x1 DUP3 ADD SWAP1 POP SWAP2 SWAP1 POP JUMP JUMPDEST PUSH32 0x4E487B7100000000000000000000000000000000000000000000000000000000 PUSH1 0x0 MSTORE PUSH1 0x22 PUSH1 0x4 MSTORE PUSH1 0x24 PUSH1 0x0 REVERT JUMPDEST PUSH1 0x0 PUSH1 0x2 DUP3 DIV SWAP1 POP PUSH1 0x1 DUP3 AND DUP1 PUSH2 0x32B9 JUMPI PUSH1 0x7F DUP3 AND SWAP2 POP JUMPDEST PUSH1 0x20 DUP3 LT DUP2 EQ ISZERO PUSH2 0x32CD JUMPI PUSH2 0x32CC PUSH2 0x3272 JUMP JUMPDEST JUMPDEST POP SWAP2 SWAP1 POP JUMP JUMPDEST PUSH32 0x4E487B7100000000000000000000000000000000000000000000000000000000 PUSH1 0x0 MSTORE PUSH1 0x32 PUSH1 0x4 MSTORE PUSH1 0x24 PUSH1 0x0 REVERT JUMPDEST PUSH1 0x0 PUSH2 0x330D DUP3 PUSH2 0x2707 JUMP JUMPDEST SWAP2 POP PUSH2 0x3318 DUP4 PUSH2 0x2707 JUMP JUMPDEST SWAP3 POP DUP3 DUP3 LT ISZERO PUSH2 0x332B JUMPI PUSH2 0x332A PUSH2 0x31FA JUMP JUMPDEST JUMPDEST DUP3 DUP3 SUB SWAP1 POP SWAP3 SWAP2 POP POP JUMP JUMPDEST PUSH32 0x4E487B7100000000000000000000000000000000000000000000000000000000 PUSH1 0x0 MSTORE PUSH1 0x31 PUSH1 0x4 MSTORE PUSH1 0x24 PUSH1 0x0 REVERT INVALID LOG2 PUSH5 0x6970667358 0x22 SLT KECCAK256 SHL ORIGIN 0xD3 EQ PUSH23 0x7FAE2D750E5F010AFF62FF1ED5F53397B496F2760B02BD 0xF9 GAS PUSH11 0xBD64736F6C634300080800 CALLER "
        },
        "gasEstimates": {
          "creation": {
            "codeDepositCost": "2642200",
            "executionCost": "49242",
            "totalCost": "2691442"
          },
          "external": {
            "LandRequestMapping(uint256)": "infinite",
            "ReturnAllLandList()": "infinite",
            "ReturnAllUserList()": "infinite",
            "UserMapping(address)": "infinite",
            "acceptRequest(uint256)": "27077",
            "addLand(uint256,string,uint256,string,uint256,string,string)": "infinite",
            "changeContractOwner(address)": "26982",
            "documentId()": "2518",
            "isContractOwner(address)": "2953",
            "isLandVerified(uint256)": "2945",
            "isUserRegistered(address)": "2983",
            "isUserVerified(address)": "2934",
            "landPrices(uint256)": "infinite",
            "lands(uint256)": "infinite",
            "landsCount()": "2520",
            "makePayment(uint256)": "infinite",
            "makePaymentTestFun(address)": "infinite",
            "myAllLands(address)": "infinite",
            "myReceivedLandRequests()": "infinite",
            "mySentLandRequests()": "infinite",
            "registerUser(string,uint256,string,string,string,string,string)": "infinite",
            "rejectRequest(uint256)": "27099",
            "requesteStatus(uint256)": "2967",
            "requestforBuy(uint256)": "infinite",
            "returnPaymentDoneList()": "infinite",
            "transferOwnership(uint256,string)": "infinite",
            "userCount()": "2476",
            "verifyLand(uint256)": "24895",
            "verifyUser(address)": "24886"
          }
        },
        "methodIdentifiers": {
          "LandRequestMapping(uint256)": "b10a30ed",
          "ReturnAllLandList()": "23393d77",
          "ReturnAllUserList()": "553a998d",
          "UserMapping(address)": "d61ff68c",
          "acceptRequest(uint256)": "4ba1f098",
          "addLand(uint256,string,uint256,string,uint256,string,string)": "ccfdc19b",
          "changeContractOwner(address)": "3ead67b5",
          "documentId()": "78f7c83f",
          "isContractOwner(address)": "de117688",
          "isLandVerified(uint256)": "6cbf6cf8",
          "isUserRegistered(address)": "163f7522",
          "isUserVerified(address)": "ace417e0",
          "landPrices(uint256)": "7bb2d6db",
          "lands(uint256)": "e261f1e5",
          "landsCount()": "1c9afd0f",
          "makePayment(uint256)": "5114cb52",
          "makePaymentTestFun(address)": "995a8d96",
          "myAllLands(address)": "d196ebf2",
          "myReceivedLandRequests()": "499701b2",
          "mySentLandRequests()": "9c32e3b4",
          "registerUser(string,uint256,string,string,string,string,string)": "edfbe247",
          "rejectRequest(uint256)": "2d7788db",
          "requesteStatus(uint256)": "d8513de4",
          "requestforBuy(uint256)": "d3b368c0",
          "returnPaymentDoneList()": "a846fc8f",
          "transferOwnership(uint256,string)": "fa024549",
          "userCount()": "07973ccf",
          "verifyLand(uint256)": "f9c43bdf",
          "verifyUser(address)": "4d813120"
        }
      },
      "storageLayout": {
        "storage": [
          {
            "astId": 10,
            "contract": "contracts/Land.sol:Land",
            "label": "_status",
            "offset": 0,
            "slot": "0",
            "type": "t_uint256"
          },
          {
            "astId": 175,
            "contract": "contracts/Land.sol:Land",
            "label": "contractOwner",
            "offset": 0,
            "slot": "1",
            "type": "t_address"
          },
          {
            "astId": 248,
            "contract": "contracts/Land.sol:Land",
            "label": "userCount",
            "offset": 0,
            "slot": "2",
            "type": "t_uint256"
          },
          {
            "astId": 250,
            "contract": "contracts/Land.sol:Land",
            "label": "landsCount",
            "offset": 0,
            "slot": "3",
            "type": "t_uint256"
          },
          {
            "astId": 252,
            "contract": "contracts/Land.sol:Land",
            "label": "documentId",
            "offset": 0,
            "slot": "4",
            "type": "t_uint256"
          },
          {
            "astId": 254,
            "contract": "contracts/Land.sol:Land",
            "label": "requestCount",
            "offset": 0,
            "slot": "5",
            "type": "t_uint256"
          },
          {
            "astId": 259,
            "contract": "contracts/Land.sol:Land",
            "label": "UserMapping",
            "offset": 0,
            "slot": "6",
            "type": "t_mapping(t_address,t_struct(User)226_storage)"
          },
          {
            "astId": 263,
            "contract": "contracts/Land.sol:Land",
            "label": "AllUsers",
            "offset": 0,
            "slot": "7",
            "type": "t_mapping(t_uint256,t_address)"
          },
          {
            "astId": 268,
            "contract": "contracts/Land.sol:Land",
            "label": "allUsersList",
            "offset": 0,
            "slot": "8",
            "type": "t_mapping(t_uint256,t_array(t_address)dyn_storage)"
          },
          {
            "astId": 272,
            "contract": "contracts/Land.sol:Land",
            "label": "RegisteredUserMapping",
            "offset": 0,
            "slot": "9",
            "type": "t_mapping(t_address,t_bool)"
          },
          {
            "astId": 277,
            "contract": "contracts/Land.sol:Land",
            "label": "MyLands",
            "offset": 0,
            "slot": "10",
            "type": "t_mapping(t_address,t_array(t_uint256)dyn_storage)"
          },
          {
            "astId": 282,
            "contract": "contracts/Land.sol:Land",
            "label": "lands",
            "offset": 0,
            "slot": "11",
            "type": "t_mapping(t_uint256,t_struct(Landreg)207_storage)"
          },
          {
            "astId": 287,
            "contract": "contracts/Land.sol:Land",
            "label": "LandRequestMapping",
            "offset": 0,
            "slot": "12",
            "type": "t_mapping(t_uint256,t_struct(LandRequest)240_storage)"
          },
          {
            "astId": 292,
            "contract": "contracts/Land.sol:Land",
            "label": "MyReceivedLandRequest",
            "offset": 0,
            "slot": "13",
            "type": "t_mapping(t_address,t_array(t_uint256)dyn_storage)"
          },
          {
            "astId": 297,
            "contract": "contracts/Land.sol:Land",
            "label": "MySentLandRequest",
            "offset": 0,
            "slot": "14",
            "type": "t_mapping(t_address,t_array(t_uint256)dyn_storage)"
          },
          {
            "astId": 302,
            "contract": "contracts/Land.sol:Land",
            "label": "allLandList",
            "offset": 0,
            "slot": "15",
            "type": "t_mapping(t_uint256,t_array(t_uint256)dyn_storage)"
          },
          {
            "astId": 307,
            "contract": "contracts/Land.sol:Land",
            "label": "paymentDoneList",
            "offset": 0,
            "slot": "16",
            "type": "t_mapping(t_uint256,t_array(t_uint256)dyn_storage)"
          }
        ],
        "types": {
          "t_address": {
            "encoding": "inplace",
            "label": "address",
            "numberOfBytes": "20"
          },
          "t_address_payable": {
            "encoding": "inplace",
            "label": "address payable",
            "numberOfBytes": "20"
          },
          "t_array(t_address)dyn_storage": {
            "base": "t_address",
            "encoding": "dynamic_array",
            "label": "address[]",
            "numberOfBytes": "32"
          },
          "t_array(t_uint256)dyn_storage": {
            "base": "t_uint256",
            "encoding": "dynamic_array",
            "label": "uint256[]",
            "numberOfBytes": "32"
          },
          "t_bool": {
            "encoding": "inplace",
            "label": "bool",
            "numberOfBytes": "1"
          },
          "t_enum(reqStatus)246": {
            "encoding": "inplace",
            "label": "enum Land.reqStatus",
            "numberOfBytes": "1"
          },
          "t_mapping(t_address,t_array(t_uint256)dyn_storage)": {
            "encoding": "mapping",
            "key": "t_address",
            "label": "mapping(address => uint256[])",
            "numberOfBytes": "32",
            "value": "t_array(t_uint256)dyn_storage"
          },
          "t_mapping(t_address,t_bool)": {
            "encoding": "mapping",
            "key": "t_address",
            "label": "mapping(address => bool)",
            "numberOfBytes": "32",
            "value": "t_bool"
          },
          "t_mapping(t_address,t_struct(User)226_storage)": {
            "encoding": "mapping",
            "key": "t_address",
            "label": "mapping(address => struct Land.User)",
            "numberOfBytes": "32",
            "value": "t_struct(User)226_storage"
          },
          "t_mapping(t_uint256,t_address)": {
            "encoding": "mapping",
            "key": "t_uint256",
            "label": "mapping(uint256 => address)",
            "numberOfBytes": "32",
            "value": "t_address"
          },
          "t_mapping(t_uint256,t_array(t_address)dyn_storage)": {
            "encoding": "mapping",
            "key": "t_uint256",
            "label": "mapping(uint256 => address[])",
            "numberOfBytes": "32",
            "value": "t_array(t_address)dyn_storage"
          },
          "t_mapping(t_uint256,t_array(t_uint256)dyn_storage)": {
            "encoding": "mapping",
            "key": "t_uint256",
            "label": "mapping(uint256 => uint256[])",
            "numberOfBytes": "32",
            "value": "t_array(t_uint256)dyn_storage"
          },
          "t_mapping(t_uint256,t_struct(LandRequest)240_storage)": {
            "encoding": "mapping",
            "key": "t_uint256",
            "label": "mapping(uint256 => struct Land.LandRequest)",
            "numberOfBytes": "32",
            "value": "t_struct(LandRequest)240_storage"
          },
          "t_mapping(t_uint256,t_struct(Landreg)207_storage)": {
            "encoding": "mapping",
            "key": "t_uint256",
            "label": "mapping(uint256 => struct Land.Landreg)",
            "numberOfBytes": "32",
            "value": "t_struct(Landreg)207_storage"
          },
          "t_string_storage": {
            "encoding": "bytes",
            "label": "string",
            "numberOfBytes": "32"
          },
          "t_struct(LandRequest)240_storage": {
            "encoding": "inplace",
            "label": "struct Land.LandRequest",
            "members": [
              {
                "astId": 228,
                "contract": "contracts/Land.sol:Land",
                "label": "reqId",
                "offset": 0,
                "slot": "0",
                "type": "t_uint256"
              },
              {
                "astId": 230,
                "contract": "contracts/Land.sol:Land",
                "label": "sellerId",
                "offset": 0,
                "slot": "1",
                "type": "t_address_payable"
              },
              {
                "astId": 232,
                "contract": "contracts/Land.sol:Land",
                "label": "buyerId",
                "offset": 0,
                "slot": "2",
                "type": "t_address_payable"
              },
              {
                "astId": 234,
                "contract": "contracts/Land.sol:Land",
                "label": "landId",
                "offset": 0,
                "slot": "3",
                "type": "t_uint256"
              },
              {
                "astId": 237,
                "contract": "contracts/Land.sol:Land",
                "label": "requestStatus",
                "offset": 0,
                "slot": "4",
                "type": "t_enum(reqStatus)246"
              },
              {
                "astId": 239,
                "contract": "contracts/Land.sol:Land",
                "label": "isPaymentDone",
                "offset": 1,
                "slot": "4",
                "type": "t_bool"
              }
            ],
            "numberOfBytes": "160"
          },
          "t_struct(Landreg)207_storage": {
            "encoding": "inplace",
            "label": "struct Land.Landreg",
            "members": [
              {
                "astId": 186,
                "contract": "contracts/Land.sol:Land",
                "label": "id",
                "offset": 0,
                "slot": "0",
                "type": "t_uint256"
              },
              {
                "astId": 188,
                "contract": "contracts/Land.sol:Land",
                "label": "area",
                "offset": 0,
                "slot": "1",
                "type": "t_uint256"
              },
              {
                "astId": 190,
                "contract": "contracts/Land.sol:Land",
                "label": "landAddress",
                "offset": 0,
                "slot": "2",
                "type": "t_string_storage"
              },
              {
                "astId": 192,
                "contract": "contracts/Land.sol:Land",
                "label": "landPrice",
                "offset": 0,
                "slot": "3",
                "type": "t_uint256"
              },
              {
                "astId": 194,
                "contract": "contracts/Land.sol:Land",
                "label": "allLatitudeLongitude",
                "offset": 0,
                "slot": "4",
                "type": "t_string_storage"
              },
              {
                "astId": 196,
                "contract": "contracts/Land.sol:Land",
                "label": "propertyPID",
                "offset": 0,
                "slot": "5",
                "type": "t_uint256"
              },
              {
                "astId": 198,
                "contract": "contracts/Land.sol:Land",
                "label": "physicalSurveyNumber",
                "offset": 0,
                "slot": "6",
                "type": "t_string_storage"
              },
              {
                "astId": 200,
                "contract": "contracts/Land.sol:Land",
                "label": "document",
                "offset": 0,
                "slot": "7",
                "type": "t_string_storage"
              },
              {
                "astId": 202,
                "contract": "contracts/Land.sol:Land",
                "label": "isforSell",
                "offset": 0,
                "slot": "8",
                "type": "t_bool"
              },
              {
                "astId": 204,
                "contract": "contracts/Land.sol:Land",
                "label": "ownerAddress",
                "offset": 1,
                "slot": "8",
                "type": "t_address_payable"
              },
              {
                "astId": 206,
                "contract": "contracts/Land.sol:Land",
                "label": "isLandVerified",
                "offset": 21,
                "slot": "8",
                "type": "t_bool"
              }
            ],
            "numberOfBytes": "288"
          },
          "t_struct(User)226_storage": {
            "encoding": "inplace",
            "label": "struct Land.User",
            "members": [
              {
                "astId": 209,
                "contract": "contracts/Land.sol:Land",
                "label": "id",
                "offset": 0,
                "slot": "0",
                "type": "t_address"
              },
              {
                "astId": 211,
                "contract": "contracts/Land.sol:Land",
                "label": "name",
                "offset": 0,
                "slot": "1",
                "type": "t_string_storage"
              },
              {
                "astId": 213,
                "contract": "contracts/Land.sol:Land",
                "label": "age",
                "offset": 0,
                "slot": "2",
                "type": "t_uint256"
              },
              {
                "astId": 215,
                "contract": "contracts/Land.sol:Land",
                "label": "city",
                "offset": 0,
                "slot": "3",
                "type": "t_string_storage"
              },
              {
                "astId": 217,
                "contract": "contracts/Land.sol:Land",
                "label": "aadharNumber",
                "offset": 0,
                "slot": "4",
                "type": "t_string_storage"
              },
              {
                "astId": 219,
                "contract": "contracts/Land.sol:Land",
                "label": "panNumber",
                "offset": 0,
                "slot": "5",
                "type": "t_string_storage"
              },
              {
                "astId": 221,
                "contract": "contracts/Land.sol:Land",
                "label": "document",
                "offset": 0,
                "slot": "6",
                "type": "t_string_storage"
              },
              {
                "astId": 223,
                "contract": "contracts/Land.sol:Land",
                "label": "email",
                "offset": 0,
                "slot": "7",
                "type": "t_string_storage"
              },
              {
                "astId": 225,
                "contract": "contracts/Land.sol:Land",
                "label": "isUserVerified",
                "offset": 0,
                "slot": "8",
                "type": "t_bool"
              }
            ],
            "numberOfBytes": "288"
          },
          "t_uint256": {
            "encoding": "inplace",
            "label": "uint256",
            "numberOfBytes": "32"
          }
        }
      },
      "userdoc": {
        "kind": "user",
        "methods": {},
        "version": 1
      }
    }
  }
}