{
  "_format": "hh-sol-artifact-1",
  "contractName": "Land",
  "sourceName": "contracts/Land.sol",
  "abi": [
    {
      "inputs": [],
      "stateMutability": "nonpayable",
      "type": "constructor"
    },
    {
      "inputs": [
        {
          "internalType": "address",
          "name": "msgSender",
          "type": "address"
        }
      ],
      "name": "NotGovernmentOfficial",
      "type": "error"
    },
    {
      "inputs": [],
      "name": "PaymentAlreadyCompleted",
      "type": "error"
    },
    {
      "anonymous": false,
      "inputs": [
        {
          "indexed": false,
          "internalType": "uint256",
          "name": "landID",
          "type": "uint256"
        }
      ],
      "name": "LandIsRequestedToBuy",
      "type": "event"
    },
    {
      "anonymous": false,
      "inputs": [
        {
          "indexed": false,
          "internalType": "uint256",
          "name": "_area",
          "type": "uint256"
        },
        {
          "indexed": false,
          "internalType": "string",
          "name": "_address",
          "type": "string"
        },
        {
          "indexed": false,
          "internalType": "uint256",
          "name": "landPrice",
          "type": "uint256"
        },
        {
          "indexed": false,
          "internalType": "string",
          "name": "_allLatiLongi",
          "type": "string"
        },
        {
          "indexed": false,
          "internalType": "uint256",
          "name": "_propertyPID",
          "type": "uint256"
        },
        {
          "indexed": false,
          "internalType": "string",
          "name": "_surveyNum",
          "type": "string"
        }
      ],
      "name": "NewLandAdded",
      "type": "event"
    },
    {
      "anonymous": false,
      "inputs": [
        {
          "indexed": false,
          "internalType": "address",
          "name": "",
          "type": "address"
        },
        {
          "indexed": false,
          "internalType": "string",
          "name": "_name",
          "type": "string"
        },
        {
          "indexed": false,
          "internalType": "uint256",
          "name": "_age",
          "type": "uint256"
        },
        {
          "indexed": false,
          "internalType": "string",
          "name": "_city",
          "type": "string"
        },
        {
          "indexed": false,
          "internalType": "string",
          "name": "_aadharNumber",
          "type": "string"
        },
        {
          "indexed": false,
          "internalType": "string",
          "name": "_panNumber",
          "type": "string"
        },
        {
          "indexed": false,
          "internalType": "string",
          "name": "_document",
          "type": "string"
        },
        {
          "indexed": false,
          "internalType": "string",
          "name": "_email",
          "type": "string"
        }
      ],
      "name": "NewUserRegistered",
      "type": "event"
    },
    {
      "anonymous": false,
      "inputs": [
        {
          "indexed": false,
          "internalType": "address",
          "name": "",
          "type": "address"
        }
      ],
      "name": "UserVerified",
      "type": "event"
    },
    {
      "inputs": [
        {
          "internalType": "uint256",
          "name": "",
          "type": "uint256"
        }
      ],
      "name": "LandRequestMapping",
      "outputs": [
        {
          "internalType": "uint256",
          "name": "reqId",
          "type": "uint256"
        },
        {
          "internalType": "address payable",
          "name": "sellerId",
          "type": "address"
        },
        {
          "internalType": "address payable",
          "name": "buyerId",
          "type": "address"
        },
        {
          "internalType": "uint256",
          "name": "landId",
          "type": "uint256"
        },
        {
          "internalType": "enum Land.reqStatus",
          "name": "requestStatus",
          "type": "uint8"
        },
        {
          "internalType": "bool",
          "name": "isPaymentDone",
          "type": "bool"
        },
        {
          "internalType": "uint256",
          "name": "requestTimestamp",
          "type": "uint256"
        }
      ],
      "stateMutability": "view",
      "type": "function"
    },
    {
      "inputs": [],
      "name": "ReturnAllLandList",
      "outputs": [
        {
          "internalType": "uint256[]",
          "name": "",
          "type": "uint256[]"
        }
      ],
      "stateMutability": "view",
      "type": "function"
    },
    {
      "inputs": [],
      "name": "ReturnAllUserList",
      "outputs": [
        {
          "internalType": "address[]",
          "name": "",
          "type": "address[]"
        }
      ],
      "stateMutability": "view",
      "type": "function"
    },
    {
      "inputs": [
        {
          "internalType": "address",
          "name": "",
          "type": "address"
        }
      ],
      "name": "UserMapping",
      "outputs": [
        {
          "internalType": "address",
          "name": "id",
          "type": "address"
        },
        {
          "internalType": "string",
          "name": "name",
          "type": "string"
        },
        {
          "internalType": "uint256",
          "name": "age",
          "type": "uint256"
        },
        {
          "internalType": "string",
          "name": "city",
          "type": "string"
        },
        {
          "internalType": "string",
          "name": "aadharNumber",
          "type": "string"
        },
        {
          "internalType": "string",
          "name": "panNumber",
          "type": "string"
        },
        {
          "internalType": "string",
          "name": "document",
          "type": "string"
        },
        {
          "internalType": "string",
          "name": "email",
          "type": "string"
        },
        {
          "internalType": "bool",
          "name": "isUserVerified",
          "type": "bool"
        }
      ],
      "stateMutability": "view",
      "type": "function"
    },
    {
      "inputs": [
        {
          "internalType": "uint256",
          "name": "_requestId",
          "type": "uint256"
        }
      ],
      "name": "acceptRequest",
      "outputs": [],
      "stateMutability": "nonpayable",
      "type": "function"
    },
    {
      "inputs": [
        {
          "internalType": "uint256",
          "name": "_area",
          "type": "uint256"
        },
        {
          "internalType": "string",
          "name": "_address",
          "type": "string"
        },
        {
          "internalType": "uint256",
          "name": "landPrice",
          "type": "uint256"
        },
        {
          "internalType": "string",
          "name": "_allLatiLongi",
          "type": "string"
        },
        {
          "internalType": "uint256",
          "name": "_propertyPID",
          "type": "uint256"
        },
        {
          "internalType": "string",
          "name": "_surveyNum",
          "type": "string"
        },
        {
          "internalType": "string",
          "name": "_document",
          "type": "string"
        }
      ],
      "name": "addLand",
      "outputs": [],
      "stateMutability": "nonpayable",
      "type": "function"
    },
    {
      "inputs": [
        {
          "internalType": "address",
          "name": "_addr",
          "type": "address"
        }
      ],
      "name": "changeContractOwner",
      "outputs": [],
      "stateMutability": "nonpayable",
      "type": "function"
    },
    {
      "inputs": [],
      "name": "documentId",
      "outputs": [
        {
          "internalType": "uint256",
          "name": "",
          "type": "uint256"
        }
      ],
      "stateMutability": "view",
      "type": "function"
    },
    {
      "inputs": [
        {
          "internalType": "address",
          "name": "_addr",
          "type": "address"
        }
      ],
      "name": "isContractOwner",
      "outputs": [
        {
          "internalType": "bool",
          "name": "",
          "type": "bool"
        }
      ],
      "stateMutability": "view",
      "type": "function"
    },
    {
      "inputs": [
        {
          "internalType": "uint256",
          "name": "id",
          "type": "uint256"
        }
      ],
      "name": "isLandVerified",
      "outputs": [
        {
          "internalType": "bool",
          "name": "",
          "type": "bool"
        }
      ],
      "stateMutability": "view",
      "type": "function"
    },
    {
      "inputs": [
        {
          "internalType": "address",
          "name": "_addr",
          "type": "address"
        }
      ],
      "name": "isUserRegistered",
      "outputs": [
        {
          "internalType": "bool",
          "name": "",
          "type": "bool"
        }
      ],
      "stateMutability": "view",
      "type": "function"
    },
    {
      "inputs": [
        {
          "internalType": "address",
          "name": "id",
          "type": "address"
        }
      ],
      "name": "isUserVerified",
      "outputs": [
        {
          "internalType": "bool",
          "name": "",
          "type": "bool"
        }
      ],
      "stateMutability": "view",
      "type": "function"
    },
    {
      "inputs": [
        {
          "internalType": "uint256",
          "name": "id",
          "type": "uint256"
        }
      ],
      "name": "landPrices",
      "outputs": [
        {
          "internalType": "uint256",
          "name": "",
          "type": "uint256"
        }
      ],
      "stateMutability": "view",
      "type": "function"
    },
    {
      "inputs": [
        {
          "internalType": "uint256",
          "name": "",
          "type": "uint256"
        }
      ],
      "name": "lands",
      "outputs": [
        {
          "internalType": "uint256",
          "name": "id",
          "type": "uint256"
        },
        {
          "internalType": "uint256",
          "name": "area",
          "type": "uint256"
        },
        {
          "internalType": "string",
          "name": "landAddress",
          "type": "string"
        },
        {
          "internalType": "uint256",
          "name": "landPrice",
          "type": "uint256"
        },
        {
          "internalType": "string",
          "name": "allLatitudeLongitude",
          "type": "string"
        },
        {
          "internalType": "uint256",
          "name": "propertyPID",
          "type": "uint256"
        },
        {
          "internalType": "string",
          "name": "physicalSurveyNumber",
          "type": "string"
        },
        {
          "internalType": "string",
          "name": "document",
          "type": "string"
        },
        {
          "internalType": "bool",
          "name": "isforSell",
          "type": "bool"
        },
        {
          "internalType": "address payable",
          "name": "ownerAddress",
          "type": "address"
        },
        {
          "internalType": "bool",
          "name": "isLandVerified",
          "type": "bool"
        }
      ],
      "stateMutability": "view",
      "type": "function"
    },
    {
      "inputs": [],
      "name": "landsCount",
      "outputs": [
        {
          "internalType": "uint256",
          "name": "",
          "type": "uint256"
        }
      ],
      "stateMutability": "view",
      "type": "function"
    },
    {
      "inputs": [
        {
          "internalType": "uint256",
          "name": "_requestId",
          "type": "uint256"
        }
      ],
      "name": "makePayment",
      "outputs": [],
      "stateMutability": "payable",
      "type": "function"
    },
    {
      "inputs": [
        {
          "internalType": "address payable",
          "name": "_reveiver",
          "type": "address"
        }
      ],
      "name": "makePaymentTestFun",
      "outputs": [],
      "stateMutability": "payable",
      "type": "function"
    },
    {
      "inputs": [
        {
          "internalType": "address",
          "name": "id",
          "type": "address"
        }
      ],
      "name": "myAllLands",
      "outputs": [
        {
          "internalType": "uint256[]",
          "name": "",
          "type": "uint256[]"
        }
      ],
      "stateMutability": "view",
      "type": "function"
    },
    {
      "inputs": [],
      "name": "myReceivedLandRequests",
      "outputs": [
        {
          "internalType": "uint256[]",
          "name": "",
          "type": "uint256[]"
        }
      ],
      "stateMutability": "view",
      "type": "function"
    },
    {
      "inputs": [],
      "name": "mySentLandRequests",
      "outputs": [
        {
          "internalType": "uint256[]",
          "name": "",
          "type": "uint256[]"
        }
      ],
      "stateMutability": "view",
      "type": "function"
    },
    {
      "inputs": [
        {
          "internalType": "string",
          "name": "_name",
          "type": "string"
        },
        {
          "internalType": "uint256",
          "name": "_age",
          "type": "uint256"
        },
        {
          "internalType": "string",
          "name": "_city",
          "type": "string"
        },
        {
          "internalType": "string",
          "name": "_aadharNumber",
          "type": "string"
        },
        {
          "internalType": "string",
          "name": "_panNumber",
          "type": "string"
        },
        {
          "internalType": "string",
          "name": "_document",
          "type": "string"
        },
        {
          "internalType": "string",
          "name": "_email",
          "type": "string"
        }
      ],
      "name": "registerUser",
      "outputs": [],
      "stateMutability": "nonpayable",
      "type": "function"
    },
    {
      "inputs": [
        {
          "internalType": "uint256",
          "name": "_requestId",
          "type": "uint256"
        }
      ],
      "name": "rejectRequest",
      "outputs": [],
      "stateMutability": "nonpayable",
      "type": "function"
    },
    {
      "inputs": [
        {
          "internalType": "uint256",
          "name": "id",
          "type": "uint256"
        }
      ],
      "name": "requesteStatus",
      "outputs": [
        {
          "internalType": "bool",
          "name": "",
          "type": "bool"
        }
      ],
      "stateMutability": "view",
      "type": "function"
    },
    {
      "inputs": [
        {
          "internalType": "uint256",
          "name": "_landId",
          "type": "uint256"
        }
      ],
      "name": "requestforBuy",
      "outputs": [],
      "stateMutability": "nonpayable",
      "type": "function"
    },
    {
      "inputs": [],
      "name": "returnPaymentDoneList",
      "outputs": [
        {
          "internalType": "uint256[]",
          "name": "",
          "type": "uint256[]"
        }
      ],
      "stateMutability": "view",
      "type": "function"
    },
    {
      "inputs": [],
      "name": "userCount",
      "outputs": [
        {
          "internalType": "uint256",
          "name": "",
          "type": "uint256"
        }
      ],
      "stateMutability": "view",
      "type": "function"
    },
    {
      "inputs": [
        {
          "internalType": "uint256",
          "name": "_id",
          "type": "uint256"
        }
      ],
      "name": "verifyLand",
      "outputs": [],
      "stateMutability": "nonpayable",
      "type": "function"
    },
    {
      "inputs": [
        {
          "internalType": "address",
          "name": "userWalletAddress",
          "type": "address"
        }
      ],
      "name": "verifyUser",
      "outputs": [],
      "stateMutability": "nonpayable",
      "type": "function"
    }
  ],
  "bytecode": "0x608060405234801561001057600080fd5b50600160008190555033600160006101000a81548173ffffffffffffffffffffffffffffffffffffffff021916908373ffffffffffffffffffffffffffffffffffffffff16021790555061377f806100696000396000f3fe6080604052600436106101b75760003560e01c8063995a8d96116100ec578063d3b368c01161008a578063de11768811610064578063de11768814610638578063e261f1e514610675578063edfbe247146106bc578063f9c43bdf146106e5576101b7565b8063d3b368c01461058d578063d61ff68c146105b6578063d8513de4146105fb576101b7565b8063ace417e0116100c6578063ace417e0146104a7578063b10a30ed146104e4578063ccfdc19b14610527578063d196ebf214610550576101b7565b8063995a8d96146104355780639c32e3b414610451578063a846fc8f1461047c576101b7565b80634ba1f09811610159578063553a998d11610133578063553a998d146103655780636cbf6cf81461039057806378f7c83f146103cd5780637bb2d6db146103f8576101b7565b80634ba1f098146102f75780634d813120146103205780635114cb5214610349576101b7565b806323393d771161019557806323393d771461024f5780632d7788db1461027a5780633ead67b5146102a3578063499701b2146102cc576101b7565b806307973ccf146101bc578063163f7522146101e75780631c9afd0f14610224575b600080fd5b3480156101c857600080fd5b506101d161070e565b6040516101de9190612987565b60405180910390f35b3480156101f357600080fd5b5061020e60048036038101906102099190612a14565b610714565b60405161021b9190612a5c565b60405180910390f35b34801561023057600080fd5b5061023961077b565b6040516102469190612987565b60405180910390f35b34801561025b57600080fd5b50610264610781565b6040516102719190612b35565b60405180910390f35b34801561028657600080fd5b506102a1600480360381019061029c9190612b83565b6107eb565b005b3480156102af57600080fd5b506102ca60048036038101906102c59190612a14565b61089b565b005b3480156102d857600080fd5b506102e161096f565b6040516102ee9190612b35565b60405180910390f35b34801561030357600080fd5b5061031e60048036038101906103199190612b83565b610a04565b005b34801561032c57600080fd5b5061034760048036038101906103429190612a14565b610ab4565b005b610363600480360381019061035e9190612b83565b610bdb565b005b34801561037157600080fd5b5061037a610eb5565b6040516103879190612c6e565b60405180910390f35b34801561039c57600080fd5b506103b760048036038101906103b29190612b83565b610f55565b6040516103c49190612a5c565b60405180910390f35b3480156103d957600080fd5b506103e2610f82565b6040516103ef9190612987565b60405180910390f35b34801561040457600080fd5b5061041f600480360381019061041a9190612b83565b610f88565b60405161042c9190612987565b60405180910390f35b61044f600480360381019061044a9190612cce565b610fa8565b005b34801561045d57600080fd5b50610466610ff2565b6040516104739190612b35565b60405180910390f35b34801561048857600080fd5b50610491611087565b60405161049e9190612b35565b60405180910390f35b3480156104b357600080fd5b506104ce60048036038101906104c99190612a14565b6110f1565b6040516104db9190612a5c565b60405180910390f35b3480156104f057600080fd5b5061050b60048036038101906105069190612b83565b61114a565b60405161051e9796959493929190612d81565b60405180910390f35b34801561053357600080fd5b5061054e60048036038101906105499190612f36565b6111e6565b005b34801561055c57600080fd5b5061057760048036038101906105729190612a14565b61146a565b6040516105849190612b35565b60405180910390f35b34801561059957600080fd5b506105b460048036038101906105af9190612b83565b611501565b005b3480156105c257600080fd5b506105dd60048036038101906105d89190612a14565b61183d565b6040516105f2999897969594939291906130df565b60405180910390f35b34801561060757600080fd5b50610622600480360381019061061d9190612b83565b611be8565b60405161062f9190612a5c565b60405180910390f35b34801561064457600080fd5b5061065f600480360381019061065a9190612a14565b611c15565b60405161066c9190612a5c565b60405180910390f35b34801561068157600080fd5b5061069c60048036038101906106979190612b83565b611c80565b6040516106b39b9a99989796959493929190613196565b60405180910390f35b3480156106c857600080fd5b506106e360048036038101906106de919061325d565b611f34565b005b3480156106f157600080fd5b5061070c60048036038101906107079190612b83565b6122cd565b005b60025481565b6000600960008373ffffffffffffffffffffffffffffffffffffffff1673ffffffffffffffffffffffffffffffffffffffff16815260200190815260200160002060009054906101000a900460ff16156107715760019050610776565b600090505b919050565b60035481565b6060600f6000600181526020019081526020016000208054806020026020016040519081016040528092919081815260200182805480156107e157602002820191906000526020600020905b8154815260200190600101908083116107cd575b5050505050905090565b3373ffffffffffffffffffffffffffffffffffffffff16600c600083815260200190815260200160002060010160009054906101000a900473ffffffffffffffffffffffffffffffffffffffff1673ffffffffffffffffffffffffffffffffffffffff161461085957600080fd5b6002600c600083815260200190815260200160002060040160006101000a81548160ff0219169083600481111561089357610892612d0a565b5b021790555050565b600160009054906101000a900473ffffffffffffffffffffffffffffffffffffffff1673ffffffffffffffffffffffffffffffffffffffff163373ffffffffffffffffffffffffffffffffffffffff161461092b576040517f08c379a0000000000000000000000000000000000000000000000000000000008152600401610922906133f3565b60405180910390fd5b80600160006101000a81548173ffffffffffffffffffffffffffffffffffffffff021916908373ffffffffffffffffffffffffffffffffffffffff16021790555050565b6060600d60003373ffffffffffffffffffffffffffffffffffffffff1673ffffffffffffffffffffffffffffffffffffffff1681526020019081526020016000208054806020026020016040519081016040528092919081815260200182805480156109fa57602002820191906000526020600020905b8154815260200190600101908083116109e6575b5050505050905090565b3373ffffffffffffffffffffffffffffffffffffffff16600c600083815260200190815260200160002060010160009054906101000a900473ffffffffffffffffffffffffffffffffffffffff1673ffffffffffffffffffffffffffffffffffffffff1614610a7257600080fd5b6001600c600083815260200190815260200160002060040160006101000a81548160ff02191690836004811115610aac57610aab612d0a565b5b021790555050565b600160009054906101000a900473ffffffffffffffffffffffffffffffffffffffff1673ffffffffffffffffffffffffffffffffffffffff163373ffffffffffffffffffffffffffffffffffffffff1614610b4657336040517fda3840b6000000000000000000000000000000000000000000000000000000008152600401610b3d9190613413565b60405180910390fd5b6001600660008373ffffffffffffffffffffffffffffffffffffffff1673ffffffffffffffffffffffffffffffffffffffff16815260200190815260200160002060080160006101000a81548160ff0219169083151502179055507fa6625d2d26e786e2f473111bea4b2fcdbbf1863d883a2359989ce3a103d2972a81604051610bd09190613413565b60405180910390a150565b3373ffffffffffffffffffffffffffffffffffffffff16600c600083815260200190815260200160002060020160009054906101000a900473ffffffffffffffffffffffffffffffffffffffff1673ffffffffffffffffffffffffffffffffffffffff16148015610c93575060016004811115610c5b57610c5a612d0a565b5b600c600083815260200190815260200160002060040160009054906101000a900460ff166004811115610c9157610c90612d0a565b5b145b610c9c57600080fd5b60001515600c600083815260200190815260200160002060040160019054906101000a900460ff16151514610cfd576040517f9a3e7d1c00000000000000000000000000000000000000000000000000000000815260040160405180910390fd5b6003600c600083815260200190815260200160002060040160006101000a81548160ff02191690836004811115610d3757610d36612d0a565b5b0217905550600b6000600c600084815260200190815260200160002060030154815260200190815260200160002060030154341015610dab576040517f08c379a0000000000000000000000000000000000000000000000000000000008152600401610da2906134a0565b60405180910390fd5b600b6000600c600084815260200190815260200160002060030154815260200190815260200160002060080160019054906101000a900473ffffffffffffffffffffffffffffffffffffffff1673ffffffffffffffffffffffffffffffffffffffff166108fc349081150290604051600060405180830381858888f19350505050158015610e3d573d6000803e3d6000fd5b506001600c600083815260200190815260200160002060040160016101000a81548160ff0219169083151502179055506010600060018152602001908152602001600020819080600181540180825580915050600190039060005260206000200160009091909190915055610eb181612391565b5050565b60606008600060018152602001908152602001600020805480602002602001604051908101604052809291908181526020018280548015610f4b57602002820191906000526020600020905b8160009054906101000a900473ffffffffffffffffffffffffffffffffffffffff1673ffffffffffffffffffffffffffffffffffffffff1681526020019060010190808311610f01575b5050505050905090565b6000600b600083815260200190815260200160002060080160159054906101000a900460ff169050919050565b60045481565b6000600b6000838152602001908152602001600020600301549050919050565b8073ffffffffffffffffffffffffffffffffffffffff166108fc349081150290604051600060405180830381858888f19350505050158015610fee573d6000803e3d6000fd5b5050565b6060600e60003373ffffffffffffffffffffffffffffffffffffffff1673ffffffffffffffffffffffffffffffffffffffff16815260200190815260200160002080548060200260200160405190810160405280929190818152602001828054801561107d57602002820191906000526020600020905b815481526020019060010190808311611069575b5050505050905090565b606060106000600181526020019081526020016000208054806020026020016040519081016040528092919081815260200182805480156110e757602002820191906000526020600020905b8154815260200190600101908083116110d3575b5050505050905090565b6000600660008373ffffffffffffffffffffffffffffffffffffffff1673ffffffffffffffffffffffffffffffffffffffff16815260200190815260200160002060080160009054906101000a900460ff169050919050565b600c6020528060005260406000206000915090508060000154908060010160009054906101000a900473ffffffffffffffffffffffffffffffffffffffff16908060020160009054906101000a900473ffffffffffffffffffffffffffffffffffffffff16908060030154908060040160009054906101000a900460ff16908060040160019054906101000a900460ff16908060050154905087565b6111ef336110f1565b6111f857600080fd5b6003600081548092919061120b906134ef565b919050555060405180610160016040528060035481526020018881526020018781526020018681526020018581526020018481526020018381526020018281526020016000151581526020013373ffffffffffffffffffffffffffffffffffffffff16815260200160001515815250600b60006003548152602001908152602001600020600082015181600001556020820151816001015560408201518160020190805190602001906112bf9291906128cb565b506060820151816003015560808201518160040190805190602001906112e69291906128cb565b5060a0820151816005015560c082015181600601908051906020019061130d9291906128cb565b5060e082015181600701908051906020019061132a9291906128cb565b506101008201518160080160006101000a81548160ff0219169083151502179055506101208201518160080160016101000a81548173ffffffffffffffffffffffffffffffffffffffff021916908373ffffffffffffffffffffffffffffffffffffffff1602179055506101408201518160080160156101000a81548160ff021916908315150217905550905050600a60003373ffffffffffffffffffffffffffffffffffffffff1673ffffffffffffffffffffffffffffffffffffffff16815260200190815260200160002060035490806001815401808255809150506001900390600052602060002001600090919091909150557f3b1348216e9c8e522636d8c13e2a6b1f37796cce0ef8999040e0a5db1e30ce2687878787878760405161145996959493929190613538565b60405180910390a150505050505050565b6060600a60008373ffffffffffffffffffffffffffffffffffffffff1673ffffffffffffffffffffffffffffffffffffffff1681526020019081526020016000208054806020026020016040519081016040528092919081815260200182805480156114f557602002820191906000526020600020905b8154815260200190600101908083116114e1575b50505050509050919050565b61150a336110f1565b801561151b575061151a81610f55565b5b61152457600080fd5b60056000815480929190611537906134ef565b91905055506040518060e001604052806005548152602001600b600084815260200190815260200160002060080160019054906101000a900473ffffffffffffffffffffffffffffffffffffffff1673ffffffffffffffffffffffffffffffffffffffff1681526020013373ffffffffffffffffffffffffffffffffffffffff168152602001828152602001600060048111156115d7576115d6612d0a565b5b815260200160001515815260200142815250600c600060055481526020019081526020016000206000820151816000015560208201518160010160006101000a81548173ffffffffffffffffffffffffffffffffffffffff021916908373ffffffffffffffffffffffffffffffffffffffff16021790555060408201518160020160006101000a81548173ffffffffffffffffffffffffffffffffffffffff021916908373ffffffffffffffffffffffffffffffffffffffff1602179055506060820151816003015560808201518160040160006101000a81548160ff021916908360048111156116cb576116ca612d0a565b5b021790555060a08201518160040160016101000a81548160ff02191690831515021790555060c08201518160050155905050600d6000600b600084815260200190815260200160002060080160019054906101000a900473ffffffffffffffffffffffffffffffffffffffff1673ffffffffffffffffffffffffffffffffffffffff1673ffffffffffffffffffffffffffffffffffffffff1681526020019081526020016000206005549080600181540180825580915050600190039060005260206000200160009091909190915055600e60003373ffffffffffffffffffffffffffffffffffffffff1673ffffffffffffffffffffffffffffffffffffffff16815260200190815260200160002060055490806001815401808255809150506001900390600052602060002001600090919091909150557ff913b9cb0629a4c667f7765a21dd9f5a9401db43947594658f40bae085fa8488816040516118329190612987565b60405180910390a150565b60066020528060005260406000206000915090508060000160009054906101000a900473ffffffffffffffffffffffffffffffffffffffff1690806001018054611886906135dd565b80601f01602080910402602001604051908101604052809291908181526020018280546118b2906135dd565b80156118ff5780601f106118d4576101008083540402835291602001916118ff565b820191906000526020600020905b8154815290600101906020018083116118e257829003601f168201915b50505050509080600201549080600301805461191a906135dd565b80601f0160208091040260200160405190810160405280929190818152602001828054611946906135dd565b80156119935780601f1061196857610100808354040283529160200191611993565b820191906000526020600020905b81548152906001019060200180831161197657829003601f168201915b5050505050908060040180546119a8906135dd565b80601f01602080910402602001604051908101604052809291908181526020018280546119d4906135dd565b8015611a215780601f106119f657610100808354040283529160200191611a21565b820191906000526020600020905b815481529060010190602001808311611a0457829003601f168201915b505050505090806005018054611a36906135dd565b80601f0160208091040260200160405190810160405280929190818152602001828054611a62906135dd565b8015611aaf5780601f10611a8457610100808354040283529160200191611aaf565b820191906000526020600020905b815481529060010190602001808311611a9257829003601f168201915b505050505090806006018054611ac4906135dd565b80601f0160208091040260200160405190810160405280929190818152602001828054611af0906135dd565b8015611b3d5780601f10611b1257610100808354040283529160200191611b3d565b820191906000526020600020905b815481529060010190602001808311611b2057829003601f168201915b505050505090806007018054611b52906135dd565b80601f0160208091040260200160405190810160405280929190818152602001828054611b7e906135dd565b8015611bcb5780601f10611ba057610100808354040283529160200191611bcb565b820191906000526020600020905b815481529060010190602001808311611bae57829003601f168201915b5050505050908060080160009054906101000a900460ff16905089565b6000600c600083815260200190815260200160002060040160019054906101000a900460ff169050919050565b6000600160009054906101000a900473ffffffffffffffffffffffffffffffffffffffff1673ffffffffffffffffffffffffffffffffffffffff168273ffffffffffffffffffffffffffffffffffffffff161415611c765760019050611c7b565b600090505b919050565b600b602052806000526040600020600091509050806000015490806001015490806002018054611caf906135dd565b80601f0160208091040260200160405190810160405280929190818152602001828054611cdb906135dd565b8015611d285780601f10611cfd57610100808354040283529160200191611d28565b820191906000526020600020905b815481529060010190602001808311611d0b57829003601f168201915b505050505090806003015490806004018054611d43906135dd565b80601f0160208091040260200160405190810160405280929190818152602001828054611d6f906135dd565b8015611dbc5780601f10611d9157610100808354040283529160200191611dbc565b820191906000526020600020905b815481529060010190602001808311611d9f57829003601f168201915b505050505090806005015490806006018054611dd7906135dd565b80601f0160208091040260200160405190810160405280929190818152602001828054611e03906135dd565b8015611e505780601f10611e2557610100808354040283529160200191611e50565b820191906000526020600020905b815481529060010190602001808311611e3357829003601f168201915b505050505090806007018054611e65906135dd565b80601f0160208091040260200160405190810160405280929190818152602001828054611e91906135dd565b8015611ede5780601f10611eb357610100808354040283529160200191611ede565b820191906000526020600020905b815481529060010190602001808311611ec157829003601f168201915b5050505050908060080160009054906101000a900460ff16908060080160019054906101000a900473ffffffffffffffffffffffffffffffffffffffff16908060080160159054906101000a900460ff1690508b565b600960003373ffffffffffffffffffffffffffffffffffffffff1673ffffffffffffffffffffffffffffffffffffffff16815260200190815260200160002060009054906101000a900460ff1615611f8b57600080fd5b6001600960003373ffffffffffffffffffffffffffffffffffffffff1673ffffffffffffffffffffffffffffffffffffffff16815260200190815260200160002060006101000a81548160ff02191690831515021790555060026000815480929190611ff6906134ef565b91905055506008600060018152602001908152602001600020339080600181540180825580915050600190039060005260206000200160009091909190916101000a81548173ffffffffffffffffffffffffffffffffffffffff021916908373ffffffffffffffffffffffffffffffffffffffff1602179055503360076000600254815260200190815260200160002060006101000a81548173ffffffffffffffffffffffffffffffffffffffff021916908373ffffffffffffffffffffffffffffffffffffffff1602179055506040518061012001604052803373ffffffffffffffffffffffffffffffffffffffff16815260200188815260200187815260200186815260200185815260200184815260200183815260200182815260200160001515815250600660003373ffffffffffffffffffffffffffffffffffffffff1673ffffffffffffffffffffffffffffffffffffffff16815260200190815260200160002060008201518160000160006101000a81548173ffffffffffffffffffffffffffffffffffffffff021916908373ffffffffffffffffffffffffffffffffffffffff16021790555060208201518160010190805190602001906121bf9291906128cb565b506040820151816002015560608201518160030190805190602001906121e69291906128cb565b5060808201518160040190805190602001906122039291906128cb565b5060a08201518160050190805190602001906122209291906128cb565b5060c082015181600601908051906020019061223d9291906128cb565b5060e082015181600701908051906020019061225a9291906128cb565b506101008201518160080160006101000a81548160ff0219169083151502179055509050507f07ade3a6b537840d0ba5e5a01af123418d19d953f218ee7d476a7091c7f1246833888888888888886040516122bc98979695949392919061360f565b60405180910390a150505050505050565b600160009054906101000a900473ffffffffffffffffffffffffffffffffffffffff1673ffffffffffffffffffffffffffffffffffffffff163373ffffffffffffffffffffffffffffffffffffffff161461235f57336040517fda3840b60000000000000000000000000000000000000000000000000000000081526004016123569190613413565b60405180910390fd5b6001600b600083815260200190815260200160002060080160156101000a81548160ff02191690831515021790555050565b6000801515600c600084815260200190815260200160002060040160019054906101000a900460ff16151514156123cb57600090506128c6565b6004600c600084815260200190815260200160002060040160006101000a81548160ff0219169083600481111561240557612404612d0a565b5b0217905550600a6000600c600085815260200190815260200160002060020160009054906101000a900473ffffffffffffffffffffffffffffffffffffffff1673ffffffffffffffffffffffffffffffffffffffff1673ffffffffffffffffffffffffffffffffffffffff168152602001908152602001600020600c60008481526020019081526020016000206003015490806001815401808255809150506001900390600052602060002001600090919091909150556000600a6000600c600086815260200190815260200160002060010160009054906101000a900473ffffffffffffffffffffffffffffffffffffffff1673ffffffffffffffffffffffffffffffffffffffff1673ffffffffffffffffffffffffffffffffffffffff16815260200190815260200160002080549050905060005b818110156127d957600c600085815260200190815260200160002060030154600a6000600c600088815260200190815260200160002060010160009054906101000a900473ffffffffffffffffffffffffffffffffffffffff1673ffffffffffffffffffffffffffffffffffffffff1673ffffffffffffffffffffffffffffffffffffffff16815260200190815260200160002082815481106125e2576125e16136b7565b5b906000526020600020015414156127c657600a6000600c600087815260200190815260200160002060010160009054906101000a900473ffffffffffffffffffffffffffffffffffffffff1673ffffffffffffffffffffffffffffffffffffffff1673ffffffffffffffffffffffffffffffffffffffff16815260200190815260200160002060018361267591906136e6565b81548110612686576126856136b7565b5b9060005260206000200154600a6000600c600088815260200190815260200160002060010160009054906101000a900473ffffffffffffffffffffffffffffffffffffffff1673ffffffffffffffffffffffffffffffffffffffff1673ffffffffffffffffffffffffffffffffffffffff1681526020019081526020016000208281548110612718576127176136b7565b5b9060005260206000200181905550600a6000600c600087815260200190815260200160002060010160009054906101000a900473ffffffffffffffffffffffffffffffffffffffff1673ffffffffffffffffffffffffffffffffffffffff1673ffffffffffffffffffffffffffffffffffffffff1681526020019081526020016000208054806127ab576127aa61371a565b5b600190038181906000526020600020016000905590556127d9565b80806127d1906134ef565b91505061253c565b506000600b6000600c600087815260200190815260200160002060030154815260200190815260200160002060080160006101000a81548160ff021916908315150217905550600c600084815260200190815260200160002060020160009054906101000a900473ffffffffffffffffffffffffffffffffffffffff16600b6000600c600087815260200190815260200160002060030154815260200190815260200160002060080160016101000a81548173ffffffffffffffffffffffffffffffffffffffff021916908373ffffffffffffffffffffffffffffffffffffffff16021790555060019150505b919050565b8280546128d7906135dd565b90600052602060002090601f0160209004810192826128f95760008555612940565b82601f1061291257805160ff1916838001178555612940565b82800160010185558215612940579182015b8281111561293f578251825591602001919060010190612924565b5b50905061294d9190612951565b5090565b5b8082111561296a576000816000905550600101612952565b5090565b6000819050919050565b6129818161296e565b82525050565b600060208201905061299c6000830184612978565b92915050565b6000604051905090565b600080fd5b600080fd5b600073ffffffffffffffffffffffffffffffffffffffff82169050919050565b60006129e1826129b6565b9050919050565b6129f1816129d6565b81146129fc57600080fd5b50565b600081359050612a0e816129e8565b92915050565b600060208284031215612a2a57612a296129ac565b5b6000612a38848285016129ff565b91505092915050565b60008115159050919050565b612a5681612a41565b82525050565b6000602082019050612a716000830184612a4d565b92915050565b600081519050919050565b600082825260208201905092915050565b6000819050602082019050919050565b612aac8161296e565b82525050565b6000612abe8383612aa3565b60208301905092915050565b6000602082019050919050565b6000612ae282612a77565b612aec8185612a82565b9350612af783612a93565b8060005b83811015612b28578151612b0f8882612ab2565b9750612b1a83612aca565b925050600181019050612afb565b5085935050505092915050565b60006020820190508181036000830152612b4f8184612ad7565b905092915050565b612b608161296e565b8114612b6b57600080fd5b50565b600081359050612b7d81612b57565b92915050565b600060208284031215612b9957612b986129ac565b5b6000612ba784828501612b6e565b91505092915050565b600081519050919050565b600082825260208201905092915050565b6000819050602082019050919050565b612be5816129d6565b82525050565b6000612bf78383612bdc565b60208301905092915050565b6000602082019050919050565b6000612c1b82612bb0565b612c258185612bbb565b9350612c3083612bcc565b8060005b83811015612c61578151612c488882612beb565b9750612c5383612c03565b925050600181019050612c34565b5085935050505092915050565b60006020820190508181036000830152612c888184612c10565b905092915050565b6000612c9b826129b6565b9050919050565b612cab81612c90565b8114612cb657600080fd5b50565b600081359050612cc881612ca2565b92915050565b600060208284031215612ce457612ce36129ac565b5b6000612cf284828501612cb9565b91505092915050565b612d0481612c90565b82525050565b7f4e487b7100000000000000000000000000000000000000000000000000000000600052602160045260246000fd5b60058110612d4a57612d49612d0a565b5b50565b6000819050612d5b82612d39565b919050565b6000612d6b82612d4d565b9050919050565b612d7b81612d60565b82525050565b600060e082019050612d96600083018a612978565b612da36020830189612cfb565b612db06040830188612cfb565b612dbd6060830187612978565b612dca6080830186612d72565b612dd760a0830185612a4d565b612de460c0830184612978565b98975050505050505050565b600080fd5b600080fd5b6000601f19601f8301169050919050565b7f4e487b7100000000000000000000000000000000000000000000000000000000600052604160045260246000fd5b612e4382612dfa565b810181811067ffffffffffffffff82111715612e6257612e61612e0b565b5b80604052505050565b6000612e756129a2565b9050612e818282612e3a565b919050565b600067ffffffffffffffff821115612ea157612ea0612e0b565b5b612eaa82612dfa565b9050602081019050919050565b82818337600083830152505050565b6000612ed9612ed484612e86565b612e6b565b905082815260208101848484011115612ef557612ef4612df5565b5b612f00848285612eb7565b509392505050565b600082601f830112612f1d57612f1c612df0565b5b8135612f2d848260208601612ec6565b91505092915050565b600080600080600080600060e0888a031215612f5557612f546129ac565b5b6000612f638a828b01612b6e565b975050602088013567ffffffffffffffff811115612f8457612f836129b1565b5b612f908a828b01612f08565b9650506040612fa18a828b01612b6e565b955050606088013567ffffffffffffffff811115612fc257612fc16129b1565b5b612fce8a828b01612f08565b9450506080612fdf8a828b01612b6e565b93505060a088013567ffffffffffffffff81111561300057612fff6129b1565b5b61300c8a828b01612f08565b92505060c088013567ffffffffffffffff81111561302d5761302c6129b1565b5b6130398a828b01612f08565b91505092959891949750929550565b613051816129d6565b82525050565b600081519050919050565b600082825260208201905092915050565b60005b83811015613091578082015181840152602081019050613076565b838111156130a0576000848401525b50505050565b60006130b182613057565b6130bb8185613062565b93506130cb818560208601613073565b6130d481612dfa565b840191505092915050565b6000610120820190506130f5600083018c613048565b8181036020830152613107818b6130a6565b9050613116604083018a612978565b818103606083015261312881896130a6565b9050818103608083015261313c81886130a6565b905081810360a083015261315081876130a6565b905081810360c083015261316481866130a6565b905081810360e083015261317881856130a6565b9050613188610100830184612a4d565b9a9950505050505050505050565b6000610160820190506131ac600083018e612978565b6131b9602083018d612978565b81810360408301526131cb818c6130a6565b90506131da606083018b612978565b81810360808301526131ec818a6130a6565b90506131fb60a0830189612978565b81810360c083015261320d81886130a6565b905081810360e083015261322181876130a6565b9050613231610100830186612a4d565b61323f610120830185612cfb565b61324d610140830184612a4d565b9c9b505050505050505050505050565b600080600080600080600060e0888a03121561327c5761327b6129ac565b5b600088013567ffffffffffffffff81111561329a576132996129b1565b5b6132a68a828b01612f08565b97505060206132b78a828b01612b6e565b965050604088013567ffffffffffffffff8111156132d8576132d76129b1565b5b6132e48a828b01612f08565b955050606088013567ffffffffffffffff811115613305576133046129b1565b5b6133118a828b01612f08565b945050608088013567ffffffffffffffff811115613332576133316129b1565b5b61333e8a828b01612f08565b93505060a088013567ffffffffffffffff81111561335f5761335e6129b1565b5b61336b8a828b01612f08565b92505060c088013567ffffffffffffffff81111561338c5761338b6129b1565b5b6133988a828b01612f08565b91505092959891949750929550565b7f796f7520617265206e6f7420636f6e74726163744f776e657200000000000000600082015250565b60006133dd601983613062565b91506133e8826133a7565b602082019050919050565b6000602082019050818103600083015261340c816133d0565b9050919050565b60006020820190506134286000830184613048565b92915050565b7f5472616e73616374656420616d6f756e74206973206c6573736572207468616e60008201527f2063757272656e74204c616e6420707269636500000000000000000000000000602082015250565b600061348a603383613062565b91506134958261342e565b604082019050919050565b600060208201905081810360008301526134b98161347d565b9050919050565b7f4e487b7100000000000000000000000000000000000000000000000000000000600052601160045260246000fd5b60006134fa8261296e565b91507fffffffffffffffffffffffffffffffffffffffffffffffffffffffffffffffff82141561352d5761352c6134c0565b5b600182019050919050565b600060c08201905061354d6000830189612978565b818103602083015261355f81886130a6565b905061356e6040830187612978565b818103606083015261358081866130a6565b905061358f6080830185612978565b81810360a08301526135a181846130a6565b9050979650505050505050565b7f4e487b7100000000000000000000000000000000000000000000000000000000600052602260045260246000fd5b600060028204905060018216806135f557607f821691505b60208210811415613609576136086135ae565b5b50919050565b600061010082019050613625600083018b613048565b8181036020830152613637818a6130a6565b90506136466040830189612978565b818103606083015261365881886130a6565b9050818103608083015261366c81876130a6565b905081810360a083015261368081866130a6565b905081810360c083015261369481856130a6565b905081810360e08301526136a881846130a6565b90509998505050505050505050565b7f4e487b7100000000000000000000000000000000000000000000000000000000600052603260045260246000fd5b60006136f18261296e565b91506136fc8361296e565b92508282101561370f5761370e6134c0565b5b828203905092915050565b7f4e487b7100000000000000000000000000000000000000000000000000000000600052603160045260246000fdfea26469706673582212200d7bb229c5776a73290ecbfb9952978f374385ea6d0b9e570567c748f3b94e6464736f6c63430008080033",
  "linkReferences": {},
  "deployedLinkReferences": {}
}