{
  "_format": "hh-sol-artifact-1",
  "contractName": "Land",
  "sourceName": "contracts/Land.sol",
  "abi": [
    {
      "inputs": [],
      "stateMutability": "nonpayable",
      "type": "constructor"
    },
    {
      "inputs": [
        {
          "internalType": "address",
          "name": "msgSender",
          "type": "address"
        }
      ],
      "name": "NotGovernmentOfficial",
      "type": "error"
    },
    {
      "inputs": [],
      "name": "PaymentAlreadyCompleted",
      "type": "error"
    },
    {
      "anonymous": false,
      "inputs": [
        {
          "indexed": false,
          "internalType": "uint256",
          "name": "landID",
          "type": "uint256"
        }
      ],
      "name": "LandIsRequestedToBuy",
      "type": "event"
    },
    {
      "anonymous": false,
      "inputs": [
        {
          "indexed": false,
          "internalType": "uint256",
          "name": "_area",
          "type": "uint256"
        },
        {
          "indexed": false,
          "internalType": "string",
          "name": "_address",
          "type": "string"
        },
        {
          "indexed": false,
          "internalType": "uint256",
          "name": "landPrice",
          "type": "uint256"
        },
        {
          "indexed": false,
          "internalType": "string",
          "name": "_allLatiLongi",
          "type": "string"
        },
        {
          "indexed": false,
          "internalType": "uint256",
          "name": "_propertyPID",
          "type": "uint256"
        },
        {
          "indexed": false,
          "internalType": "string",
          "name": "_surveyNum",
          "type": "string"
        },
        {
          "indexed": false,
          "internalType": "string",
          "name": "_document",
          "type": "string"
        }
      ],
      "name": "NewLandAdded",
      "type": "event"
    },
    {
      "anonymous": false,
      "inputs": [
        {
          "indexed": false,
          "internalType": "address",
          "name": "",
          "type": "address"
        },
        {
          "indexed": false,
          "internalType": "string",
          "name": "_name",
          "type": "string"
        },
        {
          "indexed": false,
          "internalType": "uint256",
          "name": "_age",
          "type": "uint256"
        },
        {
          "indexed": false,
          "internalType": "string",
          "name": "_city",
          "type": "string"
        },
        {
          "indexed": false,
          "internalType": "string",
          "name": "_aadharNumber",
          "type": "string"
        },
        {
          "indexed": false,
          "internalType": "string",
          "name": "_panNumber",
          "type": "string"
        },
        {
          "indexed": false,
          "internalType": "string",
          "name": "_document",
          "type": "string"
        },
        {
          "indexed": false,
          "internalType": "string",
          "name": "_email",
          "type": "string"
        }
      ],
      "name": "NewUserRegistered",
      "type": "event"
    },
    {
      "anonymous": false,
      "inputs": [
        {
          "indexed": false,
          "internalType": "address",
          "name": "",
          "type": "address"
        }
      ],
      "name": "UserVerified",
      "type": "event"
    },
    {
      "inputs": [
        {
          "internalType": "uint256",
          "name": "",
          "type": "uint256"
        }
      ],
      "name": "LandRequestMapping",
      "outputs": [
        {
          "internalType": "uint256",
          "name": "reqId",
          "type": "uint256"
        },
        {
          "internalType": "address payable",
          "name": "sellerId",
          "type": "address"
        },
        {
          "internalType": "address payable",
          "name": "buyerId",
          "type": "address"
        },
        {
          "internalType": "uint256",
          "name": "landId",
          "type": "uint256"
        },
        {
          "internalType": "enum Land.reqStatus",
          "name": "requestStatus",
          "type": "uint8"
        },
        {
          "internalType": "bool",
          "name": "isPaymentDone",
          "type": "bool"
        },
        {
          "internalType": "uint256",
          "name": "requestTimestamp",
          "type": "uint256"
        }
      ],
      "stateMutability": "view",
      "type": "function"
    },
    {
      "inputs": [],
      "name": "ReturnAllLandList",
      "outputs": [
        {
          "internalType": "uint256[]",
          "name": "",
          "type": "uint256[]"
        }
      ],
      "stateMutability": "view",
      "type": "function"
    },
    {
      "inputs": [],
      "name": "ReturnAllUserList",
      "outputs": [
        {
          "internalType": "address[]",
          "name": "",
          "type": "address[]"
        }
      ],
      "stateMutability": "view",
      "type": "function"
    },
    {
      "inputs": [
        {
          "internalType": "address",
          "name": "",
          "type": "address"
        }
      ],
      "name": "UserMapping",
      "outputs": [
        {
          "internalType": "address",
          "name": "id",
          "type": "address"
        },
        {
          "internalType": "string",
          "name": "name",
          "type": "string"
        },
        {
          "internalType": "uint256",
          "name": "age",
          "type": "uint256"
        },
        {
          "internalType": "string",
          "name": "city",
          "type": "string"
        },
        {
          "internalType": "string",
          "name": "aadharNumber",
          "type": "string"
        },
        {
          "internalType": "string",
          "name": "panNumber",
          "type": "string"
        },
        {
          "internalType": "string",
          "name": "document",
          "type": "string"
        },
        {
          "internalType": "string",
          "name": "email",
          "type": "string"
        },
        {
          "internalType": "bool",
          "name": "isUserVerified",
          "type": "bool"
        }
      ],
      "stateMutability": "view",
      "type": "function"
    },
    {
      "inputs": [
        {
          "internalType": "uint256",
          "name": "_requestId",
          "type": "uint256"
        }
      ],
      "name": "acceptRequest",
      "outputs": [],
      "stateMutability": "nonpayable",
      "type": "function"
    },
    {
      "inputs": [
        {
          "internalType": "uint256",
          "name": "_area",
          "type": "uint256"
        },
        {
          "internalType": "string",
          "name": "_address",
          "type": "string"
        },
        {
          "internalType": "uint256",
          "name": "landPrice",
          "type": "uint256"
        },
        {
          "internalType": "string",
          "name": "_allLatiLongi",
          "type": "string"
        },
        {
          "internalType": "uint256",
          "name": "_propertyPID",
          "type": "uint256"
        },
        {
          "internalType": "string",
          "name": "_surveyNum",
          "type": "string"
        },
        {
          "internalType": "string",
          "name": "_document",
          "type": "string"
        }
      ],
      "name": "addLand",
      "outputs": [],
      "stateMutability": "nonpayable",
      "type": "function"
    },
    {
      "inputs": [
        {
          "internalType": "address",
          "name": "_addr",
          "type": "address"
        }
      ],
      "name": "changeContractOwner",
      "outputs": [],
      "stateMutability": "nonpayable",
      "type": "function"
    },
    {
      "inputs": [],
      "name": "documentId",
      "outputs": [
        {
          "internalType": "uint256",
          "name": "",
          "type": "uint256"
        }
      ],
      "stateMutability": "view",
      "type": "function"
    },
    {
      "inputs": [
        {
          "internalType": "address",
          "name": "_addr",
          "type": "address"
        }
      ],
      "name": "isContractOwner",
      "outputs": [
        {
          "internalType": "bool",
          "name": "",
          "type": "bool"
        }
      ],
      "stateMutability": "view",
      "type": "function"
    },
    {
      "inputs": [
        {
          "internalType": "uint256",
          "name": "id",
          "type": "uint256"
        }
      ],
      "name": "isLandVerified",
      "outputs": [
        {
          "internalType": "bool",
          "name": "",
          "type": "bool"
        }
      ],
      "stateMutability": "view",
      "type": "function"
    },
    {
      "inputs": [
        {
          "internalType": "address",
          "name": "_addr",
          "type": "address"
        }
      ],
      "name": "isUserRegistered",
      "outputs": [
        {
          "internalType": "bool",
          "name": "",
          "type": "bool"
        }
      ],
      "stateMutability": "view",
      "type": "function"
    },
    {
      "inputs": [
        {
          "internalType": "address",
          "name": "id",
          "type": "address"
        }
      ],
      "name": "isUserVerified",
      "outputs": [
        {
          "internalType": "bool",
          "name": "",
          "type": "bool"
        }
      ],
      "stateMutability": "view",
      "type": "function"
    },
    {
      "inputs": [
        {
          "internalType": "uint256",
          "name": "id",
          "type": "uint256"
        }
      ],
      "name": "landPrices",
      "outputs": [
        {
          "internalType": "uint256",
          "name": "",
          "type": "uint256"
        }
      ],
      "stateMutability": "view",
      "type": "function"
    },
    {
      "inputs": [
        {
          "internalType": "uint256",
          "name": "",
          "type": "uint256"
        }
      ],
      "name": "lands",
      "outputs": [
        {
          "internalType": "uint256",
          "name": "id",
          "type": "uint256"
        },
        {
          "internalType": "uint256",
          "name": "area",
          "type": "uint256"
        },
        {
          "internalType": "string",
          "name": "landAddress",
          "type": "string"
        },
        {
          "internalType": "uint256",
          "name": "landPrice",
          "type": "uint256"
        },
        {
          "internalType": "string",
          "name": "allLatitudeLongitude",
          "type": "string"
        },
        {
          "internalType": "uint256",
          "name": "propertyPID",
          "type": "uint256"
        },
        {
          "internalType": "string",
          "name": "physicalSurveyNumber",
          "type": "string"
        },
        {
          "internalType": "string",
          "name": "document",
          "type": "string"
        },
        {
          "internalType": "bool",
          "name": "isforSell",
          "type": "bool"
        },
        {
          "internalType": "address payable",
          "name": "ownerAddress",
          "type": "address"
        },
        {
          "internalType": "bool",
          "name": "isLandVerified",
          "type": "bool"
        }
      ],
      "stateMutability": "view",
      "type": "function"
    },
    {
      "inputs": [],
      "name": "landsCount",
      "outputs": [
        {
          "internalType": "uint256",
          "name": "",
          "type": "uint256"
        }
      ],
      "stateMutability": "view",
      "type": "function"
    },
    {
      "inputs": [
        {
          "internalType": "uint256",
          "name": "_requestId",
          "type": "uint256"
        }
      ],
      "name": "makePayment",
      "outputs": [],
      "stateMutability": "payable",
      "type": "function"
    },
    {
      "inputs": [
        {
          "internalType": "address payable",
          "name": "_reveiver",
          "type": "address"
        }
      ],
      "name": "makePaymentTestFun",
      "outputs": [],
      "stateMutability": "payable",
      "type": "function"
    },
    {
      "inputs": [
        {
          "internalType": "address",
          "name": "id",
          "type": "address"
        }
      ],
      "name": "myAllLands",
      "outputs": [
        {
          "internalType": "uint256[]",
          "name": "",
          "type": "uint256[]"
        }
      ],
      "stateMutability": "view",
      "type": "function"
    },
    {
      "inputs": [],
      "name": "myReceivedLandRequests",
      "outputs": [
        {
          "internalType": "uint256[]",
          "name": "",
          "type": "uint256[]"
        }
      ],
      "stateMutability": "view",
      "type": "function"
    },
    {
      "inputs": [],
      "name": "mySentLandRequests",
      "outputs": [
        {
          "internalType": "uint256[]",
          "name": "",
          "type": "uint256[]"
        }
      ],
      "stateMutability": "view",
      "type": "function"
    },
    {
      "inputs": [
        {
          "internalType": "string",
          "name": "_name",
          "type": "string"
        },
        {
          "internalType": "uint256",
          "name": "_age",
          "type": "uint256"
        },
        {
          "internalType": "string",
          "name": "_city",
          "type": "string"
        },
        {
          "internalType": "string",
          "name": "_aadharNumber",
          "type": "string"
        },
        {
          "internalType": "string",
          "name": "_panNumber",
          "type": "string"
        },
        {
          "internalType": "string",
          "name": "_document",
          "type": "string"
        },
        {
          "internalType": "string",
          "name": "_email",
          "type": "string"
        }
      ],
      "name": "registerUser",
      "outputs": [],
      "stateMutability": "nonpayable",
      "type": "function"
    },
    {
      "inputs": [
        {
          "internalType": "uint256",
          "name": "_requestId",
          "type": "uint256"
        }
      ],
      "name": "rejectRequest",
      "outputs": [],
      "stateMutability": "nonpayable",
      "type": "function"
    },
    {
      "inputs": [
        {
          "internalType": "uint256",
          "name": "id",
          "type": "uint256"
        }
      ],
      "name": "requesteStatus",
      "outputs": [
        {
          "internalType": "bool",
          "name": "",
          "type": "bool"
        }
      ],
      "stateMutability": "view",
      "type": "function"
    },
    {
      "inputs": [
        {
          "internalType": "uint256",
          "name": "_landId",
          "type": "uint256"
        }
      ],
      "name": "requestforBuy",
      "outputs": [],
      "stateMutability": "nonpayable",
      "type": "function"
    },
    {
      "inputs": [],
      "name": "returnPaymentDoneList",
      "outputs": [
        {
          "internalType": "uint256[]",
          "name": "",
          "type": "uint256[]"
        }
      ],
      "stateMutability": "view",
      "type": "function"
    },
    {
      "inputs": [],
      "name": "userCount",
      "outputs": [
        {
          "internalType": "uint256",
          "name": "",
          "type": "uint256"
        }
      ],
      "stateMutability": "view",
      "type": "function"
    },
    {
      "inputs": [
        {
          "internalType": "uint256",
          "name": "_id",
          "type": "uint256"
        }
      ],
      "name": "verifyLand",
      "outputs": [],
      "stateMutability": "nonpayable",
      "type": "function"
    },
    {
      "inputs": [
        {
          "internalType": "address",
          "name": "userWalletAddress",
          "type": "address"
        }
      ],
      "name": "verifyUser",
      "outputs": [],
      "stateMutability": "nonpayable",
      "type": "function"
    }
  ],
  "bytecode": "0x608060405273f39fd6e51aad88f6f4ce6ab8827279cfffb92266601160006101000a81548173ffffffffffffffffffffffffffffffffffffffff021916908373ffffffffffffffffffffffffffffffffffffffff16021790555034801561006557600080fd5b50600160008190555033600160006101000a81548173ffffffffffffffffffffffffffffffffffffffff021916908373ffffffffffffffffffffffffffffffffffffffff160217905550613796806100be6000396000f3fe6080604052600436106101b75760003560e01c8063995a8d96116100ec578063d3b368c01161008a578063de11768811610064578063de11768814610638578063e261f1e514610675578063edfbe247146106bc578063f9c43bdf146106e5576101b7565b8063d3b368c01461058d578063d61ff68c146105b6578063d8513de4146105fb576101b7565b8063ace417e0116100c6578063ace417e0146104a7578063b10a30ed146104e4578063ccfdc19b14610527578063d196ebf214610550576101b7565b8063995a8d96146104355780639c32e3b414610451578063a846fc8f1461047c576101b7565b80634ba1f09811610159578063553a998d11610133578063553a998d146103655780636cbf6cf81461039057806378f7c83f146103cd5780637bb2d6db146103f8576101b7565b80634ba1f098146102f75780634d813120146103205780635114cb5214610349576101b7565b806323393d771161019557806323393d771461024f5780632d7788db1461027a5780633ead67b5146102a3578063499701b2146102cc576101b7565b806307973ccf146101bc578063163f7522146101e75780631c9afd0f14610224575b600080fd5b3480156101c857600080fd5b506101d161070e565b6040516101de9190612989565b60405180910390f35b3480156101f357600080fd5b5061020e60048036038101906102099190612a16565b610714565b60405161021b9190612a5e565b60405180910390f35b34801561023057600080fd5b5061023961077b565b6040516102469190612989565b60405180910390f35b34801561025b57600080fd5b50610264610781565b6040516102719190612b37565b60405180910390f35b34801561028657600080fd5b506102a1600480360381019061029c9190612b85565b6107eb565b005b3480156102af57600080fd5b506102ca60048036038101906102c59190612a16565b61089b565b005b3480156102d857600080fd5b506102e161096f565b6040516102ee9190612b37565b60405180910390f35b34801561030357600080fd5b5061031e60048036038101906103199190612b85565b610a04565b005b34801561032c57600080fd5b5061034760048036038101906103429190612a16565b610ab4565b005b610363600480360381019061035e9190612b85565b610bdb565b005b34801561037157600080fd5b5061037a610eb5565b6040516103879190612c70565b60405180910390f35b34801561039c57600080fd5b506103b760048036038101906103b29190612b85565b610f55565b6040516103c49190612a5e565b60405180910390f35b3480156103d957600080fd5b506103e2610f82565b6040516103ef9190612989565b60405180910390f35b34801561040457600080fd5b5061041f600480360381019061041a9190612b85565b610f88565b60405161042c9190612989565b60405180910390f35b61044f600480360381019061044a9190612cd0565b610fa8565b005b34801561045d57600080fd5b50610466610ff2565b6040516104739190612b37565b60405180910390f35b34801561048857600080fd5b50610491611087565b60405161049e9190612b37565b60405180910390f35b3480156104b357600080fd5b506104ce60048036038101906104c99190612a16565b6110f1565b6040516104db9190612a5e565b60405180910390f35b3480156104f057600080fd5b5061050b60048036038101906105069190612b85565b61114a565b60405161051e9796959493929190612d83565b60405180910390f35b34801561053357600080fd5b5061054e60048036038101906105499190612f38565b6111e6565b005b34801561055c57600080fd5b5061057760048036038101906105729190612a16565b61146c565b6040516105849190612b37565b60405180910390f35b34801561059957600080fd5b506105b460048036038101906105af9190612b85565b611503565b005b3480156105c257600080fd5b506105dd60048036038101906105d89190612a16565b61183f565b6040516105f2999897969594939291906130e1565b60405180910390f35b34801561060757600080fd5b50610622600480360381019061061d9190612b85565b611bea565b60405161062f9190612a5e565b60405180910390f35b34801561064457600080fd5b5061065f600480360381019061065a9190612a16565b611c17565b60405161066c9190612a5e565b60405180910390f35b34801561068157600080fd5b5061069c60048036038101906106979190612b85565b611c82565b6040516106b39b9a99989796959493929190613198565b60405180910390f35b3480156106c857600080fd5b506106e360048036038101906106de919061325f565b611f36565b005b3480156106f157600080fd5b5061070c60048036038101906107079190612b85565b6122cf565b005b60025481565b6000600960008373ffffffffffffffffffffffffffffffffffffffff1673ffffffffffffffffffffffffffffffffffffffff16815260200190815260200160002060009054906101000a900460ff16156107715760019050610776565b600090505b919050565b60035481565b6060600f6000600181526020019081526020016000208054806020026020016040519081016040528092919081815260200182805480156107e157602002820191906000526020600020905b8154815260200190600101908083116107cd575b5050505050905090565b3373ffffffffffffffffffffffffffffffffffffffff16600c600083815260200190815260200160002060010160009054906101000a900473ffffffffffffffffffffffffffffffffffffffff1673ffffffffffffffffffffffffffffffffffffffff161461085957600080fd5b6002600c600083815260200190815260200160002060040160006101000a81548160ff0219169083600481111561089357610892612d0c565b5b021790555050565b600160009054906101000a900473ffffffffffffffffffffffffffffffffffffffff1673ffffffffffffffffffffffffffffffffffffffff163373ffffffffffffffffffffffffffffffffffffffff161461092b576040517f08c379a0000000000000000000000000000000000000000000000000000000008152600401610922906133f5565b60405180910390fd5b80600160006101000a81548173ffffffffffffffffffffffffffffffffffffffff021916908373ffffffffffffffffffffffffffffffffffffffff16021790555050565b6060600d60003373ffffffffffffffffffffffffffffffffffffffff1673ffffffffffffffffffffffffffffffffffffffff1681526020019081526020016000208054806020026020016040519081016040528092919081815260200182805480156109fa57602002820191906000526020600020905b8154815260200190600101908083116109e6575b5050505050905090565b3373ffffffffffffffffffffffffffffffffffffffff16600c600083815260200190815260200160002060010160009054906101000a900473ffffffffffffffffffffffffffffffffffffffff1673ffffffffffffffffffffffffffffffffffffffff1614610a7257600080fd5b6001600c600083815260200190815260200160002060040160006101000a81548160ff02191690836004811115610aac57610aab612d0c565b5b021790555050565b601160009054906101000a900473ffffffffffffffffffffffffffffffffffffffff1673ffffffffffffffffffffffffffffffffffffffff163373ffffffffffffffffffffffffffffffffffffffff1614610b4657336040517fda3840b6000000000000000000000000000000000000000000000000000000008152600401610b3d9190613415565b60405180910390fd5b6001600660008373ffffffffffffffffffffffffffffffffffffffff1673ffffffffffffffffffffffffffffffffffffffff16815260200190815260200160002060080160006101000a81548160ff0219169083151502179055507fa6625d2d26e786e2f473111bea4b2fcdbbf1863d883a2359989ce3a103d2972a81604051610bd09190613415565b60405180910390a150565b3373ffffffffffffffffffffffffffffffffffffffff16600c600083815260200190815260200160002060020160009054906101000a900473ffffffffffffffffffffffffffffffffffffffff1673ffffffffffffffffffffffffffffffffffffffff16148015610c93575060016004811115610c5b57610c5a612d0c565b5b600c600083815260200190815260200160002060040160009054906101000a900460ff166004811115610c9157610c90612d0c565b5b145b610c9c57600080fd5b60001515600c600083815260200190815260200160002060040160019054906101000a900460ff16151514610cfd576040517f9a3e7d1c00000000000000000000000000000000000000000000000000000000815260040160405180910390fd5b6003600c600083815260200190815260200160002060040160006101000a81548160ff02191690836004811115610d3757610d36612d0c565b5b0217905550600b6000600c600084815260200190815260200160002060030154815260200190815260200160002060030154341015610dab576040517f08c379a0000000000000000000000000000000000000000000000000000000008152600401610da2906134a2565b60405180910390fd5b600b6000600c600084815260200190815260200160002060030154815260200190815260200160002060080160019054906101000a900473ffffffffffffffffffffffffffffffffffffffff1673ffffffffffffffffffffffffffffffffffffffff166108fc349081150290604051600060405180830381858888f19350505050158015610e3d573d6000803e3d6000fd5b506001600c600083815260200190815260200160002060040160016101000a81548160ff0219169083151502179055506010600060018152602001908152602001600020819080600181540180825580915050600190039060005260206000200160009091909190915055610eb181612393565b5050565b60606008600060018152602001908152602001600020805480602002602001604051908101604052809291908181526020018280548015610f4b57602002820191906000526020600020905b8160009054906101000a900473ffffffffffffffffffffffffffffffffffffffff1673ffffffffffffffffffffffffffffffffffffffff1681526020019060010190808311610f01575b5050505050905090565b6000600b600083815260200190815260200160002060080160159054906101000a900460ff169050919050565b60045481565b6000600b6000838152602001908152602001600020600301549050919050565b8073ffffffffffffffffffffffffffffffffffffffff166108fc349081150290604051600060405180830381858888f19350505050158015610fee573d6000803e3d6000fd5b5050565b6060600e60003373ffffffffffffffffffffffffffffffffffffffff1673ffffffffffffffffffffffffffffffffffffffff16815260200190815260200160002080548060200260200160405190810160405280929190818152602001828054801561107d57602002820191906000526020600020905b815481526020019060010190808311611069575b5050505050905090565b606060106000600181526020019081526020016000208054806020026020016040519081016040528092919081815260200182805480156110e757602002820191906000526020600020905b8154815260200190600101908083116110d3575b5050505050905090565b6000600660008373ffffffffffffffffffffffffffffffffffffffff1673ffffffffffffffffffffffffffffffffffffffff16815260200190815260200160002060080160009054906101000a900460ff169050919050565b600c6020528060005260406000206000915090508060000154908060010160009054906101000a900473ffffffffffffffffffffffffffffffffffffffff16908060020160009054906101000a900473ffffffffffffffffffffffffffffffffffffffff16908060030154908060040160009054906101000a900460ff16908060040160019054906101000a900460ff16908060050154905087565b6111ef336110f1565b6111f857600080fd5b6003600081548092919061120b906134f1565b919050555060405180610160016040528060035481526020018881526020018781526020018681526020018581526020018481526020018381526020018281526020016000151581526020013373ffffffffffffffffffffffffffffffffffffffff16815260200160001515815250600b60006003548152602001908152602001600020600082015181600001556020820151816001015560408201518160020190805190602001906112bf9291906128cd565b506060820151816003015560808201518160040190805190602001906112e69291906128cd565b5060a0820151816005015560c082015181600601908051906020019061130d9291906128cd565b5060e082015181600701908051906020019061132a9291906128cd565b506101008201518160080160006101000a81548160ff0219169083151502179055506101208201518160080160016101000a81548173ffffffffffffffffffffffffffffffffffffffff021916908373ffffffffffffffffffffffffffffffffffffffff1602179055506101408201518160080160156101000a81548160ff021916908315150217905550905050600a60003373ffffffffffffffffffffffffffffffffffffffff1673ffffffffffffffffffffffffffffffffffffffff16815260200190815260200160002060035490806001815401808255809150506001900390600052602060002001600090919091909150557f0d0676fd5195c7f4534f522a94d5d64032b8d7153f9401d98530c85b8f199b148787878787878760405161145b979695949392919061353a565b60405180910390a150505050505050565b6060600a60008373ffffffffffffffffffffffffffffffffffffffff1673ffffffffffffffffffffffffffffffffffffffff1681526020019081526020016000208054806020026020016040519081016040528092919081815260200182805480156114f757602002820191906000526020600020905b8154815260200190600101908083116114e3575b50505050509050919050565b61150c336110f1565b801561151d575061151c81610f55565b5b61152657600080fd5b60056000815480929190611539906134f1565b91905055506040518060e001604052806005548152602001600b600084815260200190815260200160002060080160019054906101000a900473ffffffffffffffffffffffffffffffffffffffff1673ffffffffffffffffffffffffffffffffffffffff1681526020013373ffffffffffffffffffffffffffffffffffffffff168152602001828152602001600060048111156115d9576115d8612d0c565b5b815260200160001515815260200142815250600c600060055481526020019081526020016000206000820151816000015560208201518160010160006101000a81548173ffffffffffffffffffffffffffffffffffffffff021916908373ffffffffffffffffffffffffffffffffffffffff16021790555060408201518160020160006101000a81548173ffffffffffffffffffffffffffffffffffffffff021916908373ffffffffffffffffffffffffffffffffffffffff1602179055506060820151816003015560808201518160040160006101000a81548160ff021916908360048111156116cd576116cc612d0c565b5b021790555060a08201518160040160016101000a81548160ff02191690831515021790555060c08201518160050155905050600d6000600b600084815260200190815260200160002060080160019054906101000a900473ffffffffffffffffffffffffffffffffffffffff1673ffffffffffffffffffffffffffffffffffffffff1673ffffffffffffffffffffffffffffffffffffffff1681526020019081526020016000206005549080600181540180825580915050600190039060005260206000200160009091909190915055600e60003373ffffffffffffffffffffffffffffffffffffffff1673ffffffffffffffffffffffffffffffffffffffff16815260200190815260200160002060055490806001815401808255809150506001900390600052602060002001600090919091909150557ff913b9cb0629a4c667f7765a21dd9f5a9401db43947594658f40bae085fa8488816040516118349190612989565b60405180910390a150565b60066020528060005260406000206000915090508060000160009054906101000a900473ffffffffffffffffffffffffffffffffffffffff1690806001018054611888906135f4565b80601f01602080910402602001604051908101604052809291908181526020018280546118b4906135f4565b80156119015780601f106118d657610100808354040283529160200191611901565b820191906000526020600020905b8154815290600101906020018083116118e457829003601f168201915b50505050509080600201549080600301805461191c906135f4565b80601f0160208091040260200160405190810160405280929190818152602001828054611948906135f4565b80156119955780601f1061196a57610100808354040283529160200191611995565b820191906000526020600020905b81548152906001019060200180831161197857829003601f168201915b5050505050908060040180546119aa906135f4565b80601f01602080910402602001604051908101604052809291908181526020018280546119d6906135f4565b8015611a235780601f106119f857610100808354040283529160200191611a23565b820191906000526020600020905b815481529060010190602001808311611a0657829003601f168201915b505050505090806005018054611a38906135f4565b80601f0160208091040260200160405190810160405280929190818152602001828054611a64906135f4565b8015611ab15780601f10611a8657610100808354040283529160200191611ab1565b820191906000526020600020905b815481529060010190602001808311611a9457829003601f168201915b505050505090806006018054611ac6906135f4565b80601f0160208091040260200160405190810160405280929190818152602001828054611af2906135f4565b8015611b3f5780601f10611b1457610100808354040283529160200191611b3f565b820191906000526020600020905b815481529060010190602001808311611b2257829003601f168201915b505050505090806007018054611b54906135f4565b80601f0160208091040260200160405190810160405280929190818152602001828054611b80906135f4565b8015611bcd5780601f10611ba257610100808354040283529160200191611bcd565b820191906000526020600020905b815481529060010190602001808311611bb057829003601f168201915b5050505050908060080160009054906101000a900460ff16905089565b6000600c600083815260200190815260200160002060040160019054906101000a900460ff169050919050565b6000600160009054906101000a900473ffffffffffffffffffffffffffffffffffffffff1673ffffffffffffffffffffffffffffffffffffffff168273ffffffffffffffffffffffffffffffffffffffff161415611c785760019050611c7d565b600090505b919050565b600b602052806000526040600020600091509050806000015490806001015490806002018054611cb1906135f4565b80601f0160208091040260200160405190810160405280929190818152602001828054611cdd906135f4565b8015611d2a5780601f10611cff57610100808354040283529160200191611d2a565b820191906000526020600020905b815481529060010190602001808311611d0d57829003601f168201915b505050505090806003015490806004018054611d45906135f4565b80601f0160208091040260200160405190810160405280929190818152602001828054611d71906135f4565b8015611dbe5780601f10611d9357610100808354040283529160200191611dbe565b820191906000526020600020905b815481529060010190602001808311611da157829003601f168201915b505050505090806005015490806006018054611dd9906135f4565b80601f0160208091040260200160405190810160405280929190818152602001828054611e05906135f4565b8015611e525780601f10611e2757610100808354040283529160200191611e52565b820191906000526020600020905b815481529060010190602001808311611e3557829003601f168201915b505050505090806007018054611e67906135f4565b80601f0160208091040260200160405190810160405280929190818152602001828054611e93906135f4565b8015611ee05780601f10611eb557610100808354040283529160200191611ee0565b820191906000526020600020905b815481529060010190602001808311611ec357829003601f168201915b5050505050908060080160009054906101000a900460ff16908060080160019054906101000a900473ffffffffffffffffffffffffffffffffffffffff16908060080160159054906101000a900460ff1690508b565b600960003373ffffffffffffffffffffffffffffffffffffffff1673ffffffffffffffffffffffffffffffffffffffff16815260200190815260200160002060009054906101000a900460ff1615611f8d57600080fd5b6001600960003373ffffffffffffffffffffffffffffffffffffffff1673ffffffffffffffffffffffffffffffffffffffff16815260200190815260200160002060006101000a81548160ff02191690831515021790555060026000815480929190611ff8906134f1565b91905055506008600060018152602001908152602001600020339080600181540180825580915050600190039060005260206000200160009091909190916101000a81548173ffffffffffffffffffffffffffffffffffffffff021916908373ffffffffffffffffffffffffffffffffffffffff1602179055503360076000600254815260200190815260200160002060006101000a81548173ffffffffffffffffffffffffffffffffffffffff021916908373ffffffffffffffffffffffffffffffffffffffff1602179055506040518061012001604052803373ffffffffffffffffffffffffffffffffffffffff16815260200188815260200187815260200186815260200185815260200184815260200183815260200182815260200160001515815250600660003373ffffffffffffffffffffffffffffffffffffffff1673ffffffffffffffffffffffffffffffffffffffff16815260200190815260200160002060008201518160000160006101000a81548173ffffffffffffffffffffffffffffffffffffffff021916908373ffffffffffffffffffffffffffffffffffffffff16021790555060208201518160010190805190602001906121c19291906128cd565b506040820151816002015560608201518160030190805190602001906121e89291906128cd565b5060808201518160040190805190602001906122059291906128cd565b5060a08201518160050190805190602001906122229291906128cd565b5060c082015181600601908051906020019061223f9291906128cd565b5060e082015181600701908051906020019061225c9291906128cd565b506101008201518160080160006101000a81548160ff0219169083151502179055509050507f07ade3a6b537840d0ba5e5a01af123418d19d953f218ee7d476a7091c7f1246833888888888888886040516122be989796959493929190613626565b60405180910390a150505050505050565b601160009054906101000a900473ffffffffffffffffffffffffffffffffffffffff1673ffffffffffffffffffffffffffffffffffffffff163373ffffffffffffffffffffffffffffffffffffffff161461236157336040517fda3840b60000000000000000000000000000000000000000000000000000000081526004016123589190613415565b60405180910390fd5b6001600b600083815260200190815260200160002060080160156101000a81548160ff02191690831515021790555050565b6000801515600c600084815260200190815260200160002060040160019054906101000a900460ff16151514156123cd57600090506128c8565b6004600c600084815260200190815260200160002060040160006101000a81548160ff0219169083600481111561240757612406612d0c565b5b0217905550600a6000600c600085815260200190815260200160002060020160009054906101000a900473ffffffffffffffffffffffffffffffffffffffff1673ffffffffffffffffffffffffffffffffffffffff1673ffffffffffffffffffffffffffffffffffffffff168152602001908152602001600020600c60008481526020019081526020016000206003015490806001815401808255809150506001900390600052602060002001600090919091909150556000600a6000600c600086815260200190815260200160002060010160009054906101000a900473ffffffffffffffffffffffffffffffffffffffff1673ffffffffffffffffffffffffffffffffffffffff1673ffffffffffffffffffffffffffffffffffffffff16815260200190815260200160002080549050905060005b818110156127db57600c600085815260200190815260200160002060030154600a6000600c600088815260200190815260200160002060010160009054906101000a900473ffffffffffffffffffffffffffffffffffffffff1673ffffffffffffffffffffffffffffffffffffffff1673ffffffffffffffffffffffffffffffffffffffff16815260200190815260200160002082815481106125e4576125e36136ce565b5b906000526020600020015414156127c857600a6000600c600087815260200190815260200160002060010160009054906101000a900473ffffffffffffffffffffffffffffffffffffffff1673ffffffffffffffffffffffffffffffffffffffff1673ffffffffffffffffffffffffffffffffffffffff16815260200190815260200160002060018361267791906136fd565b81548110612688576126876136ce565b5b9060005260206000200154600a6000600c600088815260200190815260200160002060010160009054906101000a900473ffffffffffffffffffffffffffffffffffffffff1673ffffffffffffffffffffffffffffffffffffffff1673ffffffffffffffffffffffffffffffffffffffff168152602001908152602001600020828154811061271a576127196136ce565b5b9060005260206000200181905550600a6000600c600087815260200190815260200160002060010160009054906101000a900473ffffffffffffffffffffffffffffffffffffffff1673ffffffffffffffffffffffffffffffffffffffff1673ffffffffffffffffffffffffffffffffffffffff1681526020019081526020016000208054806127ad576127ac613731565b5b600190038181906000526020600020016000905590556127db565b80806127d3906134f1565b91505061253e565b506000600b6000600c600087815260200190815260200160002060030154815260200190815260200160002060080160006101000a81548160ff021916908315150217905550600c600084815260200190815260200160002060020160009054906101000a900473ffffffffffffffffffffffffffffffffffffffff16600b6000600c600087815260200190815260200160002060030154815260200190815260200160002060080160016101000a81548173ffffffffffffffffffffffffffffffffffffffff021916908373ffffffffffffffffffffffffffffffffffffffff16021790555060019150505b919050565b8280546128d9906135f4565b90600052602060002090601f0160209004810192826128fb5760008555612942565b82601f1061291457805160ff1916838001178555612942565b82800160010185558215612942579182015b82811115612941578251825591602001919060010190612926565b5b50905061294f9190612953565b5090565b5b8082111561296c576000816000905550600101612954565b5090565b6000819050919050565b61298381612970565b82525050565b600060208201905061299e600083018461297a565b92915050565b6000604051905090565b600080fd5b600080fd5b600073ffffffffffffffffffffffffffffffffffffffff82169050919050565b60006129e3826129b8565b9050919050565b6129f3816129d8565b81146129fe57600080fd5b50565b600081359050612a10816129ea565b92915050565b600060208284031215612a2c57612a2b6129ae565b5b6000612a3a84828501612a01565b91505092915050565b60008115159050919050565b612a5881612a43565b82525050565b6000602082019050612a736000830184612a4f565b92915050565b600081519050919050565b600082825260208201905092915050565b6000819050602082019050919050565b612aae81612970565b82525050565b6000612ac08383612aa5565b60208301905092915050565b6000602082019050919050565b6000612ae482612a79565b612aee8185612a84565b9350612af983612a95565b8060005b83811015612b2a578151612b118882612ab4565b9750612b1c83612acc565b925050600181019050612afd565b5085935050505092915050565b60006020820190508181036000830152612b518184612ad9565b905092915050565b612b6281612970565b8114612b6d57600080fd5b50565b600081359050612b7f81612b59565b92915050565b600060208284031215612b9b57612b9a6129ae565b5b6000612ba984828501612b70565b91505092915050565b600081519050919050565b600082825260208201905092915050565b6000819050602082019050919050565b612be7816129d8565b82525050565b6000612bf98383612bde565b60208301905092915050565b6000602082019050919050565b6000612c1d82612bb2565b612c278185612bbd565b9350612c3283612bce565b8060005b83811015612c63578151612c4a8882612bed565b9750612c5583612c05565b925050600181019050612c36565b5085935050505092915050565b60006020820190508181036000830152612c8a8184612c12565b905092915050565b6000612c9d826129b8565b9050919050565b612cad81612c92565b8114612cb857600080fd5b50565b600081359050612cca81612ca4565b92915050565b600060208284031215612ce657612ce56129ae565b5b6000612cf484828501612cbb565b91505092915050565b612d0681612c92565b82525050565b7f4e487b7100000000000000000000000000000000000000000000000000000000600052602160045260246000fd5b60058110612d4c57612d4b612d0c565b5b50565b6000819050612d5d82612d3b565b919050565b6000612d6d82612d4f565b9050919050565b612d7d81612d62565b82525050565b600060e082019050612d98600083018a61297a565b612da56020830189612cfd565b612db26040830188612cfd565b612dbf606083018761297a565b612dcc6080830186612d74565b612dd960a0830185612a4f565b612de660c083018461297a565b98975050505050505050565b600080fd5b600080fd5b6000601f19601f8301169050919050565b7f4e487b7100000000000000000000000000000000000000000000000000000000600052604160045260246000fd5b612e4582612dfc565b810181811067ffffffffffffffff82111715612e6457612e63612e0d565b5b80604052505050565b6000612e776129a4565b9050612e838282612e3c565b919050565b600067ffffffffffffffff821115612ea357612ea2612e0d565b5b612eac82612dfc565b9050602081019050919050565b82818337600083830152505050565b6000612edb612ed684612e88565b612e6d565b905082815260208101848484011115612ef757612ef6612df7565b5b612f02848285612eb9565b509392505050565b600082601f830112612f1f57612f1e612df2565b5b8135612f2f848260208601612ec8565b91505092915050565b600080600080600080600060e0888a031215612f5757612f566129ae565b5b6000612f658a828b01612b70565b975050602088013567ffffffffffffffff811115612f8657612f856129b3565b5b612f928a828b01612f0a565b9650506040612fa38a828b01612b70565b955050606088013567ffffffffffffffff811115612fc457612fc36129b3565b5b612fd08a828b01612f0a565b9450506080612fe18a828b01612b70565b93505060a088013567ffffffffffffffff811115613002576130016129b3565b5b61300e8a828b01612f0a565b92505060c088013567ffffffffffffffff81111561302f5761302e6129b3565b5b61303b8a828b01612f0a565b91505092959891949750929550565b613053816129d8565b82525050565b600081519050919050565b600082825260208201905092915050565b60005b83811015613093578082015181840152602081019050613078565b838111156130a2576000848401525b50505050565b60006130b382613059565b6130bd8185613064565b93506130cd818560208601613075565b6130d681612dfc565b840191505092915050565b6000610120820190506130f7600083018c61304a565b8181036020830152613109818b6130a8565b9050613118604083018a61297a565b818103606083015261312a81896130a8565b9050818103608083015261313e81886130a8565b905081810360a083015261315281876130a8565b905081810360c083015261316681866130a8565b905081810360e083015261317a81856130a8565b905061318a610100830184612a4f565b9a9950505050505050505050565b6000610160820190506131ae600083018e61297a565b6131bb602083018d61297a565b81810360408301526131cd818c6130a8565b90506131dc606083018b61297a565b81810360808301526131ee818a6130a8565b90506131fd60a083018961297a565b81810360c083015261320f81886130a8565b905081810360e083015261322381876130a8565b9050613233610100830186612a4f565b613241610120830185612cfd565b61324f610140830184612a4f565b9c9b505050505050505050505050565b600080600080600080600060e0888a03121561327e5761327d6129ae565b5b600088013567ffffffffffffffff81111561329c5761329b6129b3565b5b6132a88a828b01612f0a565b97505060206132b98a828b01612b70565b965050604088013567ffffffffffffffff8111156132da576132d96129b3565b5b6132e68a828b01612f0a565b955050606088013567ffffffffffffffff811115613307576133066129b3565b5b6133138a828b01612f0a565b945050608088013567ffffffffffffffff811115613334576133336129b3565b5b6133408a828b01612f0a565b93505060a088013567ffffffffffffffff811115613361576133606129b3565b5b61336d8a828b01612f0a565b92505060c088013567ffffffffffffffff81111561338e5761338d6129b3565b5b61339a8a828b01612f0a565b91505092959891949750929550565b7f796f7520617265206e6f7420636f6e74726163744f776e657200000000000000600082015250565b60006133df601983613064565b91506133ea826133a9565b602082019050919050565b6000602082019050818103600083015261340e816133d2565b9050919050565b600060208201905061342a600083018461304a565b92915050565b7f5472616e73616374656420616d6f756e74206973206c6573736572207468616e60008201527f2063757272656e74204c616e6420707269636500000000000000000000000000602082015250565b600061348c603383613064565b915061349782613430565b604082019050919050565b600060208201905081810360008301526134bb8161347f565b9050919050565b7f4e487b7100000000000000000000000000000000000000000000000000000000600052601160045260246000fd5b60006134fc82612970565b91507fffffffffffffffffffffffffffffffffffffffffffffffffffffffffffffffff82141561352f5761352e6134c2565b5b600182019050919050565b600060e08201905061354f600083018a61297a565b818103602083015261356181896130a8565b9050613570604083018861297a565b818103606083015261358281876130a8565b9050613591608083018661297a565b81810360a08301526135a381856130a8565b905081810360c08301526135b781846130a8565b905098975050505050505050565b7f4e487b7100000000000000000000000000000000000000000000000000000000600052602260045260246000fd5b6000600282049050600182168061360c57607f821691505b602082108114156136205761361f6135c5565b5b50919050565b60006101008201905061363c600083018b61304a565b818103602083015261364e818a6130a8565b905061365d604083018961297a565b818103606083015261366f81886130a8565b9050818103608083015261368381876130a8565b905081810360a083015261369781866130a8565b905081810360c08301526136ab81856130a8565b905081810360e08301526136bf81846130a8565b90509998505050505050505050565b7f4e487b7100000000000000000000000000000000000000000000000000000000600052603260045260246000fd5b600061370882612970565b915061371383612970565b925082821015613726576137256134c2565b5b828203905092915050565b7f4e487b7100000000000000000000000000000000000000000000000000000000600052603160045260246000fdfea264697066735822122088288320049801fbfe6b96417159fb0f470984536623424907098c67efc0090164736f6c63430008080033",
  "linkReferences": {},
  "deployedLinkReferences": {}
}