{
  "_format": "hh-sol-artifact-1",
  "contractName": "Land",
  "sourceName": "contracts/Land.sol",
  "abi": [
    {
      "inputs": [],
      "stateMutability": "nonpayable",
      "type": "constructor"
    },
    {
      "inputs": [
        {
          "internalType": "uint256",
          "name": "",
          "type": "uint256"
        }
      ],
      "name": "LandRequestMapping",
      "outputs": [
        {
          "internalType": "uint256",
          "name": "reqId",
          "type": "uint256"
        },
        {
          "internalType": "address payable",
          "name": "sellerId",
          "type": "address"
        },
        {
          "internalType": "address payable",
          "name": "buyerId",
          "type": "address"
        },
        {
          "internalType": "uint256",
          "name": "landId",
          "type": "uint256"
        },
        {
          "internalType": "enum Land.reqStatus",
          "name": "requestStatus",
          "type": "uint8"
        },
        {
          "internalType": "bool",
          "name": "isPaymentDone",
          "type": "bool"
        }
      ],
      "stateMutability": "view",
      "type": "function"
    },
    {
      "inputs": [],
      "name": "ReturnAllLandList",
      "outputs": [
        {
          "internalType": "uint256[]",
          "name": "",
          "type": "uint256[]"
        }
      ],
      "stateMutability": "view",
      "type": "function"
    },
    {
      "inputs": [],
      "name": "ReturnAllUserList",
      "outputs": [
        {
          "internalType": "address[]",
          "name": "",
          "type": "address[]"
        }
      ],
      "stateMutability": "view",
      "type": "function"
    },
    {
      "inputs": [
        {
          "internalType": "address",
          "name": "",
          "type": "address"
        }
      ],
      "name": "UserMapping",
      "outputs": [
        {
          "internalType": "address",
          "name": "id",
          "type": "address"
        },
        {
          "internalType": "string",
          "name": "name",
          "type": "string"
        },
        {
          "internalType": "uint256",
          "name": "age",
          "type": "uint256"
        },
        {
          "internalType": "string",
          "name": "city",
          "type": "string"
        },
        {
          "internalType": "string",
          "name": "aadharNumber",
          "type": "string"
        },
        {
          "internalType": "string",
          "name": "panNumber",
          "type": "string"
        },
        {
          "internalType": "string",
          "name": "document",
          "type": "string"
        },
        {
          "internalType": "string",
          "name": "email",
          "type": "string"
        },
        {
          "internalType": "bool",
          "name": "isUserVerified",
          "type": "bool"
        }
      ],
      "stateMutability": "view",
      "type": "function"
    },
    {
      "inputs": [
        {
          "internalType": "uint256",
          "name": "_requestId",
          "type": "uint256"
        }
      ],
      "name": "acceptRequest",
      "outputs": [],
      "stateMutability": "nonpayable",
      "type": "function"
    },
    {
      "inputs": [
        {
          "internalType": "uint256",
          "name": "_area",
          "type": "uint256"
        },
        {
          "internalType": "string",
          "name": "_address",
          "type": "string"
        },
        {
          "internalType": "uint256",
          "name": "landPrice",
          "type": "uint256"
        },
        {
          "internalType": "string",
          "name": "_allLatiLongi",
          "type": "string"
        },
        {
          "internalType": "uint256",
          "name": "_propertyPID",
          "type": "uint256"
        },
        {
          "internalType": "string",
          "name": "_surveyNum",
          "type": "string"
        },
        {
          "internalType": "string",
          "name": "_document",
          "type": "string"
        }
      ],
      "name": "addLand",
      "outputs": [],
      "stateMutability": "nonpayable",
      "type": "function"
    },
    {
      "inputs": [
        {
          "internalType": "address",
          "name": "_addr",
          "type": "address"
        }
      ],
      "name": "changeContractOwner",
      "outputs": [],
      "stateMutability": "nonpayable",
      "type": "function"
    },
    {
      "inputs": [],
      "name": "documentId",
      "outputs": [
        {
          "internalType": "uint256",
          "name": "",
          "type": "uint256"
        }
      ],
      "stateMutability": "view",
      "type": "function"
    },
    {
      "inputs": [
        {
          "internalType": "address",
          "name": "_addr",
          "type": "address"
        }
      ],
      "name": "isContractOwner",
      "outputs": [
        {
          "internalType": "bool",
          "name": "",
          "type": "bool"
        }
      ],
      "stateMutability": "view",
      "type": "function"
    },
    {
      "inputs": [
        {
          "internalType": "uint256",
          "name": "id",
          "type": "uint256"
        }
      ],
      "name": "isLandVerified",
      "outputs": [
        {
          "internalType": "bool",
          "name": "",
          "type": "bool"
        }
      ],
      "stateMutability": "view",
      "type": "function"
    },
    {
      "inputs": [
        {
          "internalType": "address",
          "name": "_addr",
          "type": "address"
        }
      ],
      "name": "isUserRegistered",
      "outputs": [
        {
          "internalType": "bool",
          "name": "",
          "type": "bool"
        }
      ],
      "stateMutability": "view",
      "type": "function"
    },
    {
      "inputs": [
        {
          "internalType": "address",
          "name": "id",
          "type": "address"
        }
      ],
      "name": "isUserVerified",
      "outputs": [
        {
          "internalType": "bool",
          "name": "",
          "type": "bool"
        }
      ],
      "stateMutability": "view",
      "type": "function"
    },
    {
      "inputs": [
        {
          "internalType": "uint256",
          "name": "id",
          "type": "uint256"
        }
      ],
      "name": "landPrices",
      "outputs": [
        {
          "internalType": "uint256",
          "name": "",
          "type": "uint256"
        }
      ],
      "stateMutability": "view",
      "type": "function"
    },
    {
      "inputs": [
        {
          "internalType": "uint256",
          "name": "",
          "type": "uint256"
        }
      ],
      "name": "lands",
      "outputs": [
        {
          "internalType": "uint256",
          "name": "id",
          "type": "uint256"
        },
        {
          "internalType": "uint256",
          "name": "area",
          "type": "uint256"
        },
        {
          "internalType": "string",
          "name": "landAddress",
          "type": "string"
        },
        {
          "internalType": "uint256",
          "name": "landPrice",
          "type": "uint256"
        },
        {
          "internalType": "string",
          "name": "allLatitudeLongitude",
          "type": "string"
        },
        {
          "internalType": "uint256",
          "name": "propertyPID",
          "type": "uint256"
        },
        {
          "internalType": "string",
          "name": "physicalSurveyNumber",
          "type": "string"
        },
        {
          "internalType": "string",
          "name": "document",
          "type": "string"
        },
        {
          "internalType": "bool",
          "name": "isforSell",
          "type": "bool"
        },
        {
          "internalType": "address payable",
          "name": "ownerAddress",
          "type": "address"
        },
        {
          "internalType": "bool",
          "name": "isLandVerified",
          "type": "bool"
        }
      ],
      "stateMutability": "view",
      "type": "function"
    },
    {
      "inputs": [],
      "name": "landsCount",
      "outputs": [
        {
          "internalType": "uint256",
          "name": "",
          "type": "uint256"
        }
      ],
      "stateMutability": "view",
      "type": "function"
    },
    {
      "inputs": [
        {
          "internalType": "uint256",
          "name": "_requestId",
          "type": "uint256"
        }
      ],
      "name": "makePayment",
      "outputs": [],
      "stateMutability": "payable",
      "type": "function"
    },
    {
      "inputs": [
        {
          "internalType": "address payable",
          "name": "_reveiver",
          "type": "address"
        }
      ],
      "name": "makePaymentTestFun",
      "outputs": [],
      "stateMutability": "payable",
      "type": "function"
    },
    {
      "inputs": [
        {
          "internalType": "address",
          "name": "id",
          "type": "address"
        }
      ],
      "name": "myAllLands",
      "outputs": [
        {
          "internalType": "uint256[]",
          "name": "",
          "type": "uint256[]"
        }
      ],
      "stateMutability": "view",
      "type": "function"
    },
    {
      "inputs": [],
      "name": "myReceivedLandRequests",
      "outputs": [
        {
          "internalType": "uint256[]",
          "name": "",
          "type": "uint256[]"
        }
      ],
      "stateMutability": "view",
      "type": "function"
    },
    {
      "inputs": [],
      "name": "mySentLandRequests",
      "outputs": [
        {
          "internalType": "uint256[]",
          "name": "",
          "type": "uint256[]"
        }
      ],
      "stateMutability": "view",
      "type": "function"
    },
    {
      "inputs": [
        {
          "internalType": "string",
          "name": "_name",
          "type": "string"
        },
        {
          "internalType": "uint256",
          "name": "_age",
          "type": "uint256"
        },
        {
          "internalType": "string",
          "name": "_city",
          "type": "string"
        },
        {
          "internalType": "string",
          "name": "_aadharNumber",
          "type": "string"
        },
        {
          "internalType": "string",
          "name": "_panNumber",
          "type": "string"
        },
        {
          "internalType": "string",
          "name": "_document",
          "type": "string"
        },
        {
          "internalType": "string",
          "name": "_email",
          "type": "string"
        }
      ],
      "name": "registerUser",
      "outputs": [],
      "stateMutability": "nonpayable",
      "type": "function"
    },
    {
      "inputs": [
        {
          "internalType": "uint256",
          "name": "_requestId",
          "type": "uint256"
        }
      ],
      "name": "rejectRequest",
      "outputs": [],
      "stateMutability": "nonpayable",
      "type": "function"
    },
    {
      "inputs": [
        {
          "internalType": "uint256",
          "name": "id",
          "type": "uint256"
        }
      ],
      "name": "requesteStatus",
      "outputs": [
        {
          "internalType": "bool",
          "name": "",
          "type": "bool"
        }
      ],
      "stateMutability": "view",
      "type": "function"
    },
    {
      "inputs": [
        {
          "internalType": "uint256",
          "name": "_landId",
          "type": "uint256"
        }
      ],
      "name": "requestforBuy",
      "outputs": [],
      "stateMutability": "nonpayable",
      "type": "function"
    },
    {
      "inputs": [],
      "name": "returnPaymentDoneList",
      "outputs": [
        {
          "internalType": "uint256[]",
          "name": "",
          "type": "uint256[]"
        }
      ],
      "stateMutability": "view",
      "type": "function"
    },
    {
      "inputs": [
        {
          "internalType": "uint256",
          "name": "_requestId",
          "type": "uint256"
        },
        {
          "internalType": "string",
          "name": "documentUrl",
          "type": "string"
        }
      ],
      "name": "transferOwnership",
      "outputs": [
        {
          "internalType": "bool",
          "name": "",
          "type": "bool"
        }
      ],
      "stateMutability": "nonpayable",
      "type": "function"
    },
    {
      "inputs": [],
      "name": "userCount",
      "outputs": [
        {
          "internalType": "uint256",
          "name": "",
          "type": "uint256"
        }
      ],
      "stateMutability": "view",
      "type": "function"
    },
    {
      "inputs": [
        {
          "internalType": "uint256",
          "name": "_id",
          "type": "uint256"
        }
      ],
      "name": "verifyLand",
      "outputs": [],
      "stateMutability": "nonpayable",
      "type": "function"
    },
    {
      "inputs": [
        {
          "internalType": "address",
          "name": "_userId",
          "type": "address"
        }
      ],
      "name": "verifyUser",
      "outputs": [],
      "stateMutability": "nonpayable",
      "type": "function"
    }
  ],
  "bytecode": "0x608060405234801561001057600080fd5b50600160008190555033600160006101000a81548173ffffffffffffffffffffffffffffffffffffffff021916908373ffffffffffffffffffffffffffffffffffffffff16021790555061339b806100696000396000f3fe6080604052600436106101c25760003560e01c8063995a8d96116100f7578063d3b368c011610095578063e261f1e511610064578063e261f1e51461067f578063edfbe247146106c6578063f9c43bdf146106ef578063fa02454914610718576101c2565b8063d3b368c014610597578063d61ff68c146105c0578063d8513de414610605578063de11768814610642576101c2565b8063ace417e0116100d1578063ace417e0146104b2578063b10a30ed146104ef578063ccfdc19b14610531578063d196ebf21461055a576101c2565b8063995a8d96146104405780639c32e3b41461045c578063a846fc8f14610487576101c2565b80634ba1f09811610164578063553a998d1161013e578063553a998d146103705780636cbf6cf81461039b57806378f7c83f146103d85780637bb2d6db14610403576101c2565b80634ba1f098146103025780634d8131201461032b5780635114cb5214610354576101c2565b806323393d77116101a057806323393d771461025a5780632d7788db146102855780633ead67b5146102ae578063499701b2146102d7576101c2565b806307973ccf146101c7578063163f7522146101f25780631c9afd0f1461022f575b600080fd5b3480156101d357600080fd5b506101dc610755565b6040516101e99190612720565b60405180910390f35b3480156101fe57600080fd5b50610219600480360381019061021491906127ad565b61075b565b60405161022691906127f5565b60405180910390f35b34801561023b57600080fd5b506102446107c2565b6040516102519190612720565b60405180910390f35b34801561026657600080fd5b5061026f6107c8565b60405161027c91906128ce565b60405180910390f35b34801561029157600080fd5b506102ac60048036038101906102a7919061291c565b610832565b005b3480156102ba57600080fd5b506102d560048036038101906102d091906127ad565b6108e2565b005b3480156102e357600080fd5b506102ec6109b6565b6040516102f991906128ce565b60405180910390f35b34801561030e57600080fd5b506103296004803603810190610324919061291c565b610a4b565b005b34801561033757600080fd5b50610352600480360381019061034d91906127ad565b610afb565b005b61036e6004803603810190610369919061291c565b610b59565b005b34801561037c57600080fd5b50610385610d59565b6040516103929190612a07565b60405180910390f35b3480156103a757600080fd5b506103c260048036038101906103bd919061291c565b610df9565b6040516103cf91906127f5565b60405180910390f35b3480156103e457600080fd5b506103ed610e26565b6040516103fa9190612720565b60405180910390f35b34801561040f57600080fd5b5061042a6004803603810190610425919061291c565b610e2c565b6040516104379190612720565b60405180910390f35b61045a60048036038101906104559190612a67565b610e4c565b005b34801561046857600080fd5b50610471610e96565b60405161047e91906128ce565b60405180910390f35b34801561049357600080fd5b5061049c610f2b565b6040516104a991906128ce565b60405180910390f35b3480156104be57600080fd5b506104d960048036038101906104d491906127ad565b610f95565b6040516104e691906127f5565b60405180910390f35b3480156104fb57600080fd5b506105166004803603810190610511919061291c565b610fee565b60405161052896959493929190612b1a565b60405180910390f35b34801561053d57600080fd5b5061055860048036038101906105539190612cc1565b611084565b005b34801561056657600080fd5b50610581600480360381019061057c91906127ad565b6112c7565b60405161058e91906128ce565b60405180910390f35b3480156105a357600080fd5b506105be60048036038101906105b9919061291c565b61135e565b005b3480156105cc57600080fd5b506105e760048036038101906105e291906127ad565b611653565b6040516105fc99989796959493929190612e6a565b60405180910390f35b34801561061157600080fd5b5061062c6004803603810190610627919061291c565b6119fe565b60405161063991906127f5565b60405180910390f35b34801561064e57600080fd5b50610669600480360381019061066491906127ad565b611a2b565b60405161067691906127f5565b60405180910390f35b34801561068b57600080fd5b506106a660048036038101906106a1919061291c565b611a96565b6040516106bd9b9a99989796959493929190612f21565b60405180910390f35b3480156106d257600080fd5b506106ed60048036038101906106e89190612fe8565b611d4a565b005b3480156106fb57600080fd5b506107166004803603810190610711919061291c565b61209e565b005b34801561072457600080fd5b5061073f600480360381019061073a9190613132565b6120d0565b60405161074c91906127f5565b60405180910390f35b60025481565b6000600960008373ffffffffffffffffffffffffffffffffffffffff1673ffffffffffffffffffffffffffffffffffffffff16815260200190815260200160002060009054906101000a900460ff16156107b857600190506107bd565b600090505b919050565b60035481565b6060600f60006001815260200190815260200160002080548060200260200160405190810160405280929190818152602001828054801561082857602002820191906000526020600020905b815481526020019060010190808311610814575b5050505050905090565b3373ffffffffffffffffffffffffffffffffffffffff16600c600083815260200190815260200160002060010160009054906101000a900473ffffffffffffffffffffffffffffffffffffffff1673ffffffffffffffffffffffffffffffffffffffff16146108a057600080fd5b6002600c600083815260200190815260200160002060040160006101000a81548160ff021916908360048111156108da576108d9612aa3565b5b021790555050565b600160009054906101000a900473ffffffffffffffffffffffffffffffffffffffff1673ffffffffffffffffffffffffffffffffffffffff163373ffffffffffffffffffffffffffffffffffffffff1614610972576040517f08c379a0000000000000000000000000000000000000000000000000000000008152600401610969906131da565b60405180910390fd5b80600160006101000a81548173ffffffffffffffffffffffffffffffffffffffff021916908373ffffffffffffffffffffffffffffffffffffffff16021790555050565b6060600d60003373ffffffffffffffffffffffffffffffffffffffff1673ffffffffffffffffffffffffffffffffffffffff168152602001908152602001600020805480602002602001604051908101604052809291908181526020018280548015610a4157602002820191906000526020600020905b815481526020019060010190808311610a2d575b5050505050905090565b3373ffffffffffffffffffffffffffffffffffffffff16600c600083815260200190815260200160002060010160009054906101000a900473ffffffffffffffffffffffffffffffffffffffff1673ffffffffffffffffffffffffffffffffffffffff1614610ab957600080fd5b6001600c600083815260200190815260200160002060040160006101000a81548160ff02191690836004811115610af357610af2612aa3565b5b021790555050565b6001600660008373ffffffffffffffffffffffffffffffffffffffff1673ffffffffffffffffffffffffffffffffffffffff16815260200190815260200160002060080160006101000a81548160ff02191690831515021790555050565b3373ffffffffffffffffffffffffffffffffffffffff16600c600083815260200190815260200160002060020160009054906101000a900473ffffffffffffffffffffffffffffffffffffffff1673ffffffffffffffffffffffffffffffffffffffff16148015610c11575060016004811115610bd957610bd8612aa3565b5b600c600083815260200190815260200160002060040160009054906101000a900460ff166004811115610c0f57610c0e612aa3565b5b145b610c1a57600080fd5b6003600c600083815260200190815260200160002060040160006101000a81548160ff02191690836004811115610c5457610c53612aa3565b5b0217905550600b6000600c600084815260200190815260200160002060030154815260200190815260200160002060080160019054906101000a900473ffffffffffffffffffffffffffffffffffffffff1673ffffffffffffffffffffffffffffffffffffffff166108fc349081150290604051600060405180830381858888f19350505050158015610ceb573d6000803e3d6000fd5b506001600c600083815260200190815260200160002060040160016101000a81548160ff021916908315150217905550601060006001815260200190815260200160002081908060018154018082558091505060019003906000526020600020016000909190919091505550565b60606008600060018152602001908152602001600020805480602002602001604051908101604052809291908181526020018280548015610def57602002820191906000526020600020905b8160009054906101000a900473ffffffffffffffffffffffffffffffffffffffff1673ffffffffffffffffffffffffffffffffffffffff1681526020019060010190808311610da5575b5050505050905090565b6000600b600083815260200190815260200160002060080160159054906101000a900460ff169050919050565b60045481565b6000600b6000838152602001908152602001600020600301549050919050565b8073ffffffffffffffffffffffffffffffffffffffff166108fc349081150290604051600060405180830381858888f19350505050158015610e92573d6000803e3d6000fd5b5050565b6060600e60003373ffffffffffffffffffffffffffffffffffffffff1673ffffffffffffffffffffffffffffffffffffffff168152602001908152602001600020805480602002602001604051908101604052809291908181526020018280548015610f2157602002820191906000526020600020905b815481526020019060010190808311610f0d575b5050505050905090565b60606010600060018152602001908152602001600020805480602002602001604051908101604052809291908181526020018280548015610f8b57602002820191906000526020600020905b815481526020019060010190808311610f77575b5050505050905090565b6000600660008373ffffffffffffffffffffffffffffffffffffffff1673ffffffffffffffffffffffffffffffffffffffff16815260200190815260200160002060080160009054906101000a900460ff169050919050565b600c6020528060005260406000206000915090508060000154908060010160009054906101000a900473ffffffffffffffffffffffffffffffffffffffff16908060020160009054906101000a900473ffffffffffffffffffffffffffffffffffffffff16908060030154908060040160009054906101000a900460ff16908060040160019054906101000a900460ff16905086565b61108d33610f95565b61109657600080fd5b600360008154809291906110a990613229565b919050555060405180610160016040528060035481526020018881526020018781526020018681526020018581526020018481526020018381526020018281526020016000151581526020013373ffffffffffffffffffffffffffffffffffffffff16815260200160001515815250600b600060035481526020019081526020016000206000820151816000015560208201518160010155604082015181600201908051906020019061115d929190612664565b50606082015181600301556080820151816004019080519060200190611184929190612664565b5060a0820151816005015560c08201518160060190805190602001906111ab929190612664565b5060e08201518160070190805190602001906111c8929190612664565b506101008201518160080160006101000a81548160ff0219169083151502179055506101208201518160080160016101000a81548173ffffffffffffffffffffffffffffffffffffffff021916908373ffffffffffffffffffffffffffffffffffffffff1602179055506101408201518160080160156101000a81548160ff021916908315150217905550905050600a60003373ffffffffffffffffffffffffffffffffffffffff1673ffffffffffffffffffffffffffffffffffffffff168152602001908152602001600020600354908060018154018082558091505060019003906000526020600020016000909190919091505550505050505050565b6060600a60008373ffffffffffffffffffffffffffffffffffffffff1673ffffffffffffffffffffffffffffffffffffffff16815260200190815260200160002080548060200260200160405190810160405280929190818152602001828054801561135257602002820191906000526020600020905b81548152602001906001019080831161133e575b50505050509050919050565b61136733610f95565b8015611378575061137781610df9565b5b61138157600080fd5b6005600081548092919061139490613229565b91905055506040518060c001604052806005548152602001600b600084815260200190815260200160002060080160019054906101000a900473ffffffffffffffffffffffffffffffffffffffff1673ffffffffffffffffffffffffffffffffffffffff1681526020013373ffffffffffffffffffffffffffffffffffffffff1681526020018281526020016000600481111561143457611433612aa3565b5b815260200160001515815250600c600060055481526020019081526020016000206000820151816000015560208201518160010160006101000a81548173ffffffffffffffffffffffffffffffffffffffff021916908373ffffffffffffffffffffffffffffffffffffffff16021790555060408201518160020160006101000a81548173ffffffffffffffffffffffffffffffffffffffff021916908373ffffffffffffffffffffffffffffffffffffffff1602179055506060820151816003015560808201518160040160006101000a81548160ff0219169083600481111561152257611521612aa3565b5b021790555060a08201518160040160016101000a81548160ff021916908315150217905550905050600d6000600b600084815260200190815260200160002060080160019054906101000a900473ffffffffffffffffffffffffffffffffffffffff1673ffffffffffffffffffffffffffffffffffffffff1673ffffffffffffffffffffffffffffffffffffffff1681526020019081526020016000206005549080600181540180825580915050600190039060005260206000200160009091909190915055600e60003373ffffffffffffffffffffffffffffffffffffffff1673ffffffffffffffffffffffffffffffffffffffff168152602001908152602001600020600554908060018154018082558091505060019003906000526020600020016000909190919091505550565b60066020528060005260406000206000915090508060000160009054906101000a900473ffffffffffffffffffffffffffffffffffffffff169080600101805461169c906132a1565b80601f01602080910402602001604051908101604052809291908181526020018280546116c8906132a1565b80156117155780601f106116ea57610100808354040283529160200191611715565b820191906000526020600020905b8154815290600101906020018083116116f857829003601f168201915b505050505090806002015490806003018054611730906132a1565b80601f016020809104026020016040519081016040528092919081815260200182805461175c906132a1565b80156117a95780601f1061177e576101008083540402835291602001916117a9565b820191906000526020600020905b81548152906001019060200180831161178c57829003601f168201915b5050505050908060040180546117be906132a1565b80601f01602080910402602001604051908101604052809291908181526020018280546117ea906132a1565b80156118375780601f1061180c57610100808354040283529160200191611837565b820191906000526020600020905b81548152906001019060200180831161181a57829003601f168201915b50505050509080600501805461184c906132a1565b80601f0160208091040260200160405190810160405280929190818152602001828054611878906132a1565b80156118c55780601f1061189a576101008083540402835291602001916118c5565b820191906000526020600020905b8154815290600101906020018083116118a857829003601f168201915b5050505050908060060180546118da906132a1565b80601f0160208091040260200160405190810160405280929190818152602001828054611906906132a1565b80156119535780601f1061192857610100808354040283529160200191611953565b820191906000526020600020905b81548152906001019060200180831161193657829003601f168201915b505050505090806007018054611968906132a1565b80601f0160208091040260200160405190810160405280929190818152602001828054611994906132a1565b80156119e15780601f106119b6576101008083540402835291602001916119e1565b820191906000526020600020905b8154815290600101906020018083116119c457829003601f168201915b5050505050908060080160009054906101000a900460ff16905089565b6000600c600083815260200190815260200160002060040160019054906101000a900460ff169050919050565b6000600160009054906101000a900473ffffffffffffffffffffffffffffffffffffffff1673ffffffffffffffffffffffffffffffffffffffff168273ffffffffffffffffffffffffffffffffffffffff161415611a8c5760019050611a91565b600090505b919050565b600b602052806000526040600020600091509050806000015490806001015490806002018054611ac5906132a1565b80601f0160208091040260200160405190810160405280929190818152602001828054611af1906132a1565b8015611b3e5780601f10611b1357610100808354040283529160200191611b3e565b820191906000526020600020905b815481529060010190602001808311611b2157829003601f168201915b505050505090806003015490806004018054611b59906132a1565b80601f0160208091040260200160405190810160405280929190818152602001828054611b85906132a1565b8015611bd25780601f10611ba757610100808354040283529160200191611bd2565b820191906000526020600020905b815481529060010190602001808311611bb557829003601f168201915b505050505090806005015490806006018054611bed906132a1565b80601f0160208091040260200160405190810160405280929190818152602001828054611c19906132a1565b8015611c665780601f10611c3b57610100808354040283529160200191611c66565b820191906000526020600020905b815481529060010190602001808311611c4957829003601f168201915b505050505090806007018054611c7b906132a1565b80601f0160208091040260200160405190810160405280929190818152602001828054611ca7906132a1565b8015611cf45780601f10611cc957610100808354040283529160200191611cf4565b820191906000526020600020905b815481529060010190602001808311611cd757829003601f168201915b5050505050908060080160009054906101000a900460ff16908060080160019054906101000a900473ffffffffffffffffffffffffffffffffffffffff16908060080160159054906101000a900460ff1690508b565b600960003373ffffffffffffffffffffffffffffffffffffffff1673ffffffffffffffffffffffffffffffffffffffff16815260200190815260200160002060009054906101000a900460ff1615611da157600080fd5b6001600960003373ffffffffffffffffffffffffffffffffffffffff1673ffffffffffffffffffffffffffffffffffffffff16815260200190815260200160002060006101000a81548160ff02191690831515021790555060026000815480929190611e0c90613229565b91905055506008600060018152602001908152602001600020339080600181540180825580915050600190039060005260206000200160009091909190916101000a81548173ffffffffffffffffffffffffffffffffffffffff021916908373ffffffffffffffffffffffffffffffffffffffff1602179055503360076000600254815260200190815260200160002060006101000a81548173ffffffffffffffffffffffffffffffffffffffff021916908373ffffffffffffffffffffffffffffffffffffffff1602179055506040518061012001604052803373ffffffffffffffffffffffffffffffffffffffff16815260200188815260200187815260200186815260200185815260200184815260200183815260200182815260200160001515815250600660003373ffffffffffffffffffffffffffffffffffffffff1673ffffffffffffffffffffffffffffffffffffffff16815260200190815260200160002060008201518160000160006101000a81548173ffffffffffffffffffffffffffffffffffffffff021916908373ffffffffffffffffffffffffffffffffffffffff1602179055506020820151816001019080519060200190611fd5929190612664565b50604082015181600201556060820151816003019080519060200190611ffc929190612664565b506080820151816004019080519060200190612019929190612664565b5060a0820151816005019080519060200190612036929190612664565b5060c0820151816006019080519060200190612053929190612664565b5060e0820151816007019080519060200190612070929190612664565b506101008201518160080160006101000a81548160ff02191690831515021790555090505050505050505050565b6001600b600083815260200190815260200160002060080160156101000a81548160ff02191690831515021790555050565b6000801515600c600085815260200190815260200160002060040160019054906101000a900460ff161515141561210a576000905061265e565b6004600081548092919061211d90613229565b91905055506004600c600085815260200190815260200160002060040160006101000a81548160ff0219169083600481111561215c5761215b612aa3565b5b0217905550600a6000600c600086815260200190815260200160002060020160009054906101000a900473ffffffffffffffffffffffffffffffffffffffff1673ffffffffffffffffffffffffffffffffffffffff1673ffffffffffffffffffffffffffffffffffffffff168152602001908152602001600020600c60008581526020019081526020016000206003015490806001815401808255809150506001900390600052602060002001600090919091909150556000600a6000600c600087815260200190815260200160002060010160009054906101000a900473ffffffffffffffffffffffffffffffffffffffff1673ffffffffffffffffffffffffffffffffffffffff1673ffffffffffffffffffffffffffffffffffffffff16815260200190815260200160002080549050905060005b8181101561253057600c600086815260200190815260200160002060030154600a6000600c600089815260200190815260200160002060010160009054906101000a900473ffffffffffffffffffffffffffffffffffffffff1673ffffffffffffffffffffffffffffffffffffffff1673ffffffffffffffffffffffffffffffffffffffff1681526020019081526020016000208281548110612339576123386132d3565b5b9060005260206000200154141561251d57600a6000600c600088815260200190815260200160002060010160009054906101000a900473ffffffffffffffffffffffffffffffffffffffff1673ffffffffffffffffffffffffffffffffffffffff1673ffffffffffffffffffffffffffffffffffffffff1681526020019081526020016000206001836123cc9190613302565b815481106123dd576123dc6132d3565b5b9060005260206000200154600a6000600c600089815260200190815260200160002060010160009054906101000a900473ffffffffffffffffffffffffffffffffffffffff1673ffffffffffffffffffffffffffffffffffffffff1673ffffffffffffffffffffffffffffffffffffffff168152602001908152602001600020828154811061246f5761246e6132d3565b5b9060005260206000200181905550600a6000600c600088815260200190815260200160002060010160009054906101000a900473ffffffffffffffffffffffffffffffffffffffff1673ffffffffffffffffffffffffffffffffffffffff1673ffffffffffffffffffffffffffffffffffffffff16815260200190815260200160002080548061250257612501613336565b5b60019003818190600052602060002001600090559055612530565b808061252890613229565b915050612293565b5082600b6000600c60008881526020019081526020016000206003015481526020019081526020016000206007019080519060200190612571929190612664565b506000600b6000600c600088815260200190815260200160002060030154815260200190815260200160002060080160006101000a81548160ff021916908315150217905550600c600085815260200190815260200160002060020160009054906101000a900473ffffffffffffffffffffffffffffffffffffffff16600b6000600c600088815260200190815260200160002060030154815260200190815260200160002060080160016101000a81548173ffffffffffffffffffffffffffffffffffffffff021916908373ffffffffffffffffffffffffffffffffffffffff16021790555060019150505b92915050565b828054612670906132a1565b90600052602060002090601f01602090048101928261269257600085556126d9565b82601f106126ab57805160ff19168380011785556126d9565b828001600101855582156126d9579182015b828111156126d85782518255916020019190600101906126bd565b5b5090506126e691906126ea565b5090565b5b808211156127035760008160009055506001016126eb565b5090565b6000819050919050565b61271a81612707565b82525050565b60006020820190506127356000830184612711565b92915050565b6000604051905090565b600080fd5b600080fd5b600073ffffffffffffffffffffffffffffffffffffffff82169050919050565b600061277a8261274f565b9050919050565b61278a8161276f565b811461279557600080fd5b50565b6000813590506127a781612781565b92915050565b6000602082840312156127c3576127c2612745565b5b60006127d184828501612798565b91505092915050565b60008115159050919050565b6127ef816127da565b82525050565b600060208201905061280a60008301846127e6565b92915050565b600081519050919050565b600082825260208201905092915050565b6000819050602082019050919050565b61284581612707565b82525050565b6000612857838361283c565b60208301905092915050565b6000602082019050919050565b600061287b82612810565b612885818561281b565b93506128908361282c565b8060005b838110156128c15781516128a8888261284b565b97506128b383612863565b925050600181019050612894565b5085935050505092915050565b600060208201905081810360008301526128e88184612870565b905092915050565b6128f981612707565b811461290457600080fd5b50565b600081359050612916816128f0565b92915050565b60006020828403121561293257612931612745565b5b600061294084828501612907565b91505092915050565b600081519050919050565b600082825260208201905092915050565b6000819050602082019050919050565b61297e8161276f565b82525050565b60006129908383612975565b60208301905092915050565b6000602082019050919050565b60006129b482612949565b6129be8185612954565b93506129c983612965565b8060005b838110156129fa5781516129e18882612984565b97506129ec8361299c565b9250506001810190506129cd565b5085935050505092915050565b60006020820190508181036000830152612a2181846129a9565b905092915050565b6000612a348261274f565b9050919050565b612a4481612a29565b8114612a4f57600080fd5b50565b600081359050612a6181612a3b565b92915050565b600060208284031215612a7d57612a7c612745565b5b6000612a8b84828501612a52565b91505092915050565b612a9d81612a29565b82525050565b7f4e487b7100000000000000000000000000000000000000000000000000000000600052602160045260246000fd5b60058110612ae357612ae2612aa3565b5b50565b6000819050612af482612ad2565b919050565b6000612b0482612ae6565b9050919050565b612b1481612af9565b82525050565b600060c082019050612b2f6000830189612711565b612b3c6020830188612a94565b612b496040830187612a94565b612b566060830186612711565b612b636080830185612b0b565b612b7060a08301846127e6565b979650505050505050565b600080fd5b600080fd5b6000601f19601f8301169050919050565b7f4e487b7100000000000000000000000000000000000000000000000000000000600052604160045260246000fd5b612bce82612b85565b810181811067ffffffffffffffff82111715612bed57612bec612b96565b5b80604052505050565b6000612c0061273b565b9050612c0c8282612bc5565b919050565b600067ffffffffffffffff821115612c2c57612c2b612b96565b5b612c3582612b85565b9050602081019050919050565b82818337600083830152505050565b6000612c64612c5f84612c11565b612bf6565b905082815260208101848484011115612c8057612c7f612b80565b5b612c8b848285612c42565b509392505050565b600082601f830112612ca857612ca7612b7b565b5b8135612cb8848260208601612c51565b91505092915050565b600080600080600080600060e0888a031215612ce057612cdf612745565b5b6000612cee8a828b01612907565b975050602088013567ffffffffffffffff811115612d0f57612d0e61274a565b5b612d1b8a828b01612c93565b9650506040612d2c8a828b01612907565b955050606088013567ffffffffffffffff811115612d4d57612d4c61274a565b5b612d598a828b01612c93565b9450506080612d6a8a828b01612907565b93505060a088013567ffffffffffffffff811115612d8b57612d8a61274a565b5b612d978a828b01612c93565b92505060c088013567ffffffffffffffff811115612db857612db761274a565b5b612dc48a828b01612c93565b91505092959891949750929550565b612ddc8161276f565b82525050565b600081519050919050565b600082825260208201905092915050565b60005b83811015612e1c578082015181840152602081019050612e01565b83811115612e2b576000848401525b50505050565b6000612e3c82612de2565b612e468185612ded565b9350612e56818560208601612dfe565b612e5f81612b85565b840191505092915050565b600061012082019050612e80600083018c612dd3565b8181036020830152612e92818b612e31565b9050612ea1604083018a612711565b8181036060830152612eb38189612e31565b90508181036080830152612ec78188612e31565b905081810360a0830152612edb8187612e31565b905081810360c0830152612eef8186612e31565b905081810360e0830152612f038185612e31565b9050612f136101008301846127e6565b9a9950505050505050505050565b600061016082019050612f37600083018e612711565b612f44602083018d612711565b8181036040830152612f56818c612e31565b9050612f65606083018b612711565b8181036080830152612f77818a612e31565b9050612f8660a0830189612711565b81810360c0830152612f988188612e31565b905081810360e0830152612fac8187612e31565b9050612fbc6101008301866127e6565b612fca610120830185612a94565b612fd86101408301846127e6565b9c9b505050505050505050505050565b600080600080600080600060e0888a03121561300757613006612745565b5b600088013567ffffffffffffffff8111156130255761302461274a565b5b6130318a828b01612c93565b97505060206130428a828b01612907565b965050604088013567ffffffffffffffff8111156130635761306261274a565b5b61306f8a828b01612c93565b955050606088013567ffffffffffffffff8111156130905761308f61274a565b5b61309c8a828b01612c93565b945050608088013567ffffffffffffffff8111156130bd576130bc61274a565b5b6130c98a828b01612c93565b93505060a088013567ffffffffffffffff8111156130ea576130e961274a565b5b6130f68a828b01612c93565b92505060c088013567ffffffffffffffff8111156131175761311661274a565b5b6131238a828b01612c93565b91505092959891949750929550565b6000806040838503121561314957613148612745565b5b600061315785828601612907565b925050602083013567ffffffffffffffff8111156131785761317761274a565b5b61318485828601612c93565b9150509250929050565b7f796f7520617265206e6f7420636f6e74726163744f776e657200000000000000600082015250565b60006131c4601983612ded565b91506131cf8261318e565b602082019050919050565b600060208201905081810360008301526131f3816131b7565b9050919050565b7f4e487b7100000000000000000000000000000000000000000000000000000000600052601160045260246000fd5b600061323482612707565b91507fffffffffffffffffffffffffffffffffffffffffffffffffffffffffffffffff821415613267576132666131fa565b5b600182019050919050565b7f4e487b7100000000000000000000000000000000000000000000000000000000600052602260045260246000fd5b600060028204905060018216806132b957607f821691505b602082108114156132cd576132cc613272565b5b50919050565b7f4e487b7100000000000000000000000000000000000000000000000000000000600052603260045260246000fd5b600061330d82612707565b915061331883612707565b92508282101561332b5761332a6131fa565b5b828203905092915050565b7f4e487b7100000000000000000000000000000000000000000000000000000000600052603160045260246000fdfea26469706673582212201b32d314767fae2d750e5f010aff62ff1ed5f53397b496f2760b02bdf95a6abd64736f6c63430008080033",
  "linkReferences": {},
  "deployedLinkReferences": {}
}