{
  "_format": "hh-sol-artifact-1",
  "contractName": "Landmint",
  "sourceName": "contracts/Landmint.sol",
  "abi": [
    {
      "inputs": [],
      "stateMutability": "nonpayable",
      "type": "constructor"
    },
    {
      "anonymous": false,
      "inputs": [
        {
          "indexed": true,
          "internalType": "address",
          "name": "owner",
          "type": "address"
        },
        {
          "indexed": true,
          "internalType": "address",
          "name": "approved",
          "type": "address"
        },
        {
          "indexed": true,
          "internalType": "uint256",
          "name": "tokenId",
          "type": "uint256"
        }
      ],
      "name": "Approval",
      "type": "event"
    },
    {
      "anonymous": false,
      "inputs": [
        {
          "indexed": true,
          "internalType": "address",
          "name": "owner",
          "type": "address"
        },
        {
          "indexed": true,
          "internalType": "address",
          "name": "operator",
          "type": "address"
        },
        {
          "indexed": false,
          "internalType": "bool",
          "name": "approved",
          "type": "bool"
        }
      ],
      "name": "ApprovalForAll",
      "type": "event"
    },
    {
      "anonymous": false,
      "inputs": [
        {
          "indexed": true,
          "internalType": "uint256",
          "name": "tokenId",
          "type": "uint256"
        }
      ],
      "name": "LandMinted",
      "type": "event"
    },
    {
      "anonymous": false,
      "inputs": [
        {
          "indexed": true,
          "internalType": "address",
          "name": "from",
          "type": "address"
        },
        {
          "indexed": true,
          "internalType": "address",
          "name": "to",
          "type": "address"
        },
        {
          "indexed": true,
          "internalType": "uint256",
          "name": "tokenId",
          "type": "uint256"
        }
      ],
      "name": "Transfer",
      "type": "event"
    },
    {
      "inputs": [
        {
          "internalType": "address",
          "name": "to",
          "type": "address"
        },
        {
          "internalType": "uint256",
          "name": "tokenId",
          "type": "uint256"
        }
      ],
      "name": "approve",
      "outputs": [],
      "stateMutability": "nonpayable",
      "type": "function"
    },
    {
      "inputs": [
        {
          "internalType": "address",
          "name": "owner",
          "type": "address"
        }
      ],
      "name": "balanceOf",
      "outputs": [
        {
          "internalType": "uint256",
          "name": "",
          "type": "uint256"
        }
      ],
      "stateMutability": "view",
      "type": "function"
    },
    {
      "inputs": [
        {
          "internalType": "uint256",
          "name": "tokenId",
          "type": "uint256"
        }
      ],
      "name": "getApproved",
      "outputs": [
        {
          "internalType": "address",
          "name": "",
          "type": "address"
        }
      ],
      "stateMutability": "view",
      "type": "function"
    },
    {
      "inputs": [],
      "name": "getTokenCounter",
      "outputs": [
        {
          "internalType": "uint256",
          "name": "",
          "type": "uint256"
        }
      ],
      "stateMutability": "view",
      "type": "function"
    },
    {
      "inputs": [
        {
          "internalType": "address",
          "name": "owner",
          "type": "address"
        },
        {
          "internalType": "address",
          "name": "operator",
          "type": "address"
        }
      ],
      "name": "isApprovedForAll",
      "outputs": [
        {
          "internalType": "bool",
          "name": "",
          "type": "bool"
        }
      ],
      "stateMutability": "view",
      "type": "function"
    },
    {
      "inputs": [],
      "name": "mintLand",
      "outputs": [],
      "stateMutability": "nonpayable",
      "type": "function"
    },
    {
      "inputs": [],
      "name": "name",
      "outputs": [
        {
          "internalType": "string",
          "name": "",
          "type": "string"
        }
      ],
      "stateMutability": "view",
      "type": "function"
    },
    {
      "inputs": [
        {
          "internalType": "uint256",
          "name": "tokenId",
          "type": "uint256"
        }
      ],
      "name": "ownerOf",
      "outputs": [
        {
          "internalType": "address",
          "name": "",
          "type": "address"
        }
      ],
      "stateMutability": "view",
      "type": "function"
    },
    {
      "inputs": [
        {
          "internalType": "address",
          "name": "from",
          "type": "address"
        },
        {
          "internalType": "address",
          "name": "to",
          "type": "address"
        },
        {
          "internalType": "uint256",
          "name": "tokenId",
          "type": "uint256"
        }
      ],
      "name": "safeTransferFrom",
      "outputs": [],
      "stateMutability": "nonpayable",
      "type": "function"
    },
    {
      "inputs": [
        {
          "internalType": "address",
          "name": "from",
          "type": "address"
        },
        {
          "internalType": "address",
          "name": "to",
          "type": "address"
        },
        {
          "internalType": "uint256",
          "name": "tokenId",
          "type": "uint256"
        },
        {
          "internalType": "bytes",
          "name": "data",
          "type": "bytes"
        }
      ],
      "name": "safeTransferFrom",
      "outputs": [],
      "stateMutability": "nonpayable",
      "type": "function"
    },
    {
      "inputs": [
        {
          "internalType": "address",
          "name": "operator",
          "type": "address"
        },
        {
          "internalType": "bool",
          "name": "approved",
          "type": "bool"
        }
      ],
      "name": "setApprovalForAll",
      "outputs": [],
      "stateMutability": "nonpayable",
      "type": "function"
    },
    {
      "inputs": [
        {
          "internalType": "bytes4",
          "name": "interfaceId",
          "type": "bytes4"
        }
      ],
      "name": "supportsInterface",
      "outputs": [
        {
          "internalType": "bool",
          "name": "",
          "type": "bool"
        }
      ],
      "stateMutability": "view",
      "type": "function"
    },
    {
      "inputs": [],
      "name": "symbol",
      "outputs": [
        {
          "internalType": "string",
          "name": "",
          "type": "string"
        }
      ],
      "stateMutability": "view",
      "type": "function"
    },
    {
      "inputs": [
        {
          "internalType": "uint256",
          "name": "tokenId",
          "type": "uint256"
        }
      ],
      "name": "tokenURI",
      "outputs": [
        {
          "internalType": "string",
          "name": "",
          "type": "string"
        }
      ],
      "stateMutability": "view",
      "type": "function"
    },
    {
      "inputs": [
        {
          "internalType": "address",
          "name": "from",
          "type": "address"
        },
        {
          "internalType": "address",
          "name": "to",
          "type": "address"
        },
        {
          "internalType": "uint256",
          "name": "tokenId",
          "type": "uint256"
        }
      ],
      "name": "transferFrom",
      "outputs": [],
      "stateMutability": "nonpayable",
      "type": "function"
    }
  ],
  "bytecode": "0x60806040523480156200001157600080fd5b506040518060400160405280600d81526020017f4c616e644d696e654173736574000000000000000000000000000000000000008152506040518060400160405280600381526020017f4c44410000000000000000000000000000000000000000000000000000000000815250816000908051906020019062000096929190620000c0565b508060019080519060200190620000af929190620000c0565b5050506000600681905550620001d5565b828054620000ce906200019f565b90600052602060002090601f016020900481019282620000f257600085556200013e565b82601f106200010d57805160ff19168380011785556200013e565b828001600101855582156200013e579182015b828111156200013d57825182559160200191906001019062000120565b5b5090506200014d919062000151565b5090565b5b808211156200016c57600081600090555060010162000152565b5090565b7f4e487b7100000000000000000000000000000000000000000000000000000000600052602260045260246000fd5b60006002820490506001821680620001b857607f821691505b60208210811415620001cf57620001ce62000170565b5b50919050565b61256b80620001e56000396000f3fe608060405234801561001057600080fd5b50600436106100f55760003560e01c80636e02007d11610097578063b88d4fde11610066578063b88d4fde14610284578063c87b56dd146102a0578063dbb5c0e3146102d0578063e985e9c5146102da576100f5565b80636e02007d146101fc57806370a082311461021a57806395d89b411461024a578063a22cb46514610268576100f5565b8063095ea7b3116100d3578063095ea7b31461017857806323b872dd1461019457806342842e0e146101b05780636352211e146101cc576100f5565b806301ffc9a7146100fa57806306fdde031461012a578063081812fc14610148575b600080fd5b610114600480360381019061010f91906116ca565b61030a565b6040516101219190611712565b60405180910390f35b6101326103ec565b60405161013f91906117c6565b60405180910390f35b610162600480360381019061015d919061181e565b61047e565b60405161016f919061188c565b60405180910390f35b610192600480360381019061018d91906118d3565b6104c4565b005b6101ae60048036038101906101a99190611913565b6105dc565b005b6101ca60048036038101906101c59190611913565b61063c565b005b6101e660048036038101906101e1919061181e565b61065c565b6040516101f3919061188c565b60405180910390f35b61020461070e565b6040516102119190611975565b60405180910390f35b610234600480360381019061022f9190611990565b610718565b6040516102419190611975565b60405180910390f35b6102526107d0565b60405161025f91906117c6565b60405180910390f35b610282600480360381019061027d91906119e9565b610862565b005b61029e60048036038101906102999190611b5e565b610878565b005b6102ba60048036038101906102b5919061181e565b6108da565b6040516102c791906117c6565b60405180910390f35b6102d8610942565b005b6102f460048036038101906102ef9190611be1565b610994565b6040516103019190611712565b60405180910390f35b60007f80ac58cd000000000000000000000000000000000000000000000000000000007bffffffffffffffffffffffffffffffffffffffffffffffffffffffff1916827bffffffffffffffffffffffffffffffffffffffffffffffffffffffff191614806103d557507f5b5e139f000000000000000000000000000000000000000000000000000000007bffffffffffffffffffffffffffffffffffffffffffffffffffffffff1916827bffffffffffffffffffffffffffffffffffffffffffffffffffffffff1916145b806103e557506103e482610a28565b5b9050919050565b6060600080546103fb90611c50565b80601f016020809104026020016040519081016040528092919081815260200182805461042790611c50565b80156104745780601f1061044957610100808354040283529160200191610474565b820191906000526020600020905b81548152906001019060200180831161045757829003601f168201915b5050505050905090565b600061048982610a92565b6004600083815260200190815260200160002060009054906101000a900473ffffffffffffffffffffffffffffffffffffffff169050919050565b60006104cf8261065c565b90508073ffffffffffffffffffffffffffffffffffffffff168373ffffffffffffffffffffffffffffffffffffffff161415610540576040517f08c379a000000000000000000000000000000000000000000000000000000000815260040161053790611cf4565b60405180910390fd5b8073ffffffffffffffffffffffffffffffffffffffff1661055f610add565b73ffffffffffffffffffffffffffffffffffffffff16148061058e575061058d81610588610add565b610994565b5b6105cd576040517f08c379a00000000000000000000000000000000000000000000000000000000081526004016105c490611d86565b60405180910390fd5b6105d78383610ae5565b505050565b6105ed6105e7610add565b82610b9e565b61062c576040517f08c379a000000000000000000000000000000000000000000000000000000000815260040161062390611e18565b60405180910390fd5b610637838383610c33565b505050565b61065783838360405180602001604052806000815250610878565b505050565b6000806002600084815260200190815260200160002060009054906101000a900473ffffffffffffffffffffffffffffffffffffffff169050600073ffffffffffffffffffffffffffffffffffffffff168173ffffffffffffffffffffffffffffffffffffffff161415610705576040517f08c379a00000000000000000000000000000000000000000000000000000000081526004016106fc90611e84565b60405180910390fd5b80915050919050565b6000600654905090565b60008073ffffffffffffffffffffffffffffffffffffffff168273ffffffffffffffffffffffffffffffffffffffff161415610789576040517f08c379a000000000000000000000000000000000000000000000000000000000815260040161078090611f16565b60405180910390fd5b600360008373ffffffffffffffffffffffffffffffffffffffff1673ffffffffffffffffffffffffffffffffffffffff168152602001908152602001600020549050919050565b6060600180546107df90611c50565b80601f016020809104026020016040519081016040528092919081815260200182805461080b90611c50565b80156108585780601f1061082d57610100808354040283529160200191610858565b820191906000526020600020905b81548152906001019060200180831161083b57829003601f168201915b5050505050905090565b61087461086d610add565b8383610e9a565b5050565b610889610883610add565b83610b9e565b6108c8576040517f08c379a00000000000000000000000000000000000000000000000000000000081526004016108bf90611e18565b60405180910390fd5b6108d484848484611007565b50505050565b60606108e582610a92565b60006108ef611063565b9050600081511161090f576040518060200160405280600081525061093a565b806109198461107a565b60405160200161092a929190611f72565b6040516020818303038152906040525b915050919050565b61094e336006546111db565b6006547fe113c92dc56b32007d40084498b4269ac8d6fc8b69fd45edfec3dfc41ca24ce060405160405180910390a2600160065461098c9190611fc5565b600681905550565b6000600560008473ffffffffffffffffffffffffffffffffffffffff1673ffffffffffffffffffffffffffffffffffffffff16815260200190815260200160002060008373ffffffffffffffffffffffffffffffffffffffff1673ffffffffffffffffffffffffffffffffffffffff16815260200190815260200160002060009054906101000a900460ff16905092915050565b60007f01ffc9a7000000000000000000000000000000000000000000000000000000007bffffffffffffffffffffffffffffffffffffffffffffffffffffffff1916827bffffffffffffffffffffffffffffffffffffffffffffffffffffffff1916149050919050565b610a9b816111f9565b610ada576040517f08c379a0000000000000000000000000000000000000000000000000000000008152600401610ad190611e84565b60405180910390fd5b50565b600033905090565b816004600083815260200190815260200160002060006101000a81548173ffffffffffffffffffffffffffffffffffffffff021916908373ffffffffffffffffffffffffffffffffffffffff160217905550808273ffffffffffffffffffffffffffffffffffffffff16610b588361065c565b73ffffffffffffffffffffffffffffffffffffffff167f8c5be1e5ebec7d5bd14f71427d1e84f3dd0314c0f7b2291e5b200ac8c7c3b92560405160405180910390a45050565b600080610baa8361065c565b90508073ffffffffffffffffffffffffffffffffffffffff168473ffffffffffffffffffffffffffffffffffffffff161480610bec5750610beb8185610994565b5b80610c2a57508373ffffffffffffffffffffffffffffffffffffffff16610c128461047e565b73ffffffffffffffffffffffffffffffffffffffff16145b91505092915050565b8273ffffffffffffffffffffffffffffffffffffffff16610c538261065c565b73ffffffffffffffffffffffffffffffffffffffff1614610ca9576040517f08c379a0000000000000000000000000000000000000000000000000000000008152600401610ca09061208d565b60405180910390fd5b600073ffffffffffffffffffffffffffffffffffffffff168273ffffffffffffffffffffffffffffffffffffffff161415610d19576040517f08c379a0000000000000000000000000000000000000000000000000000000008152600401610d109061211f565b60405180910390fd5b610d24838383611265565b610d2f600082610ae5565b6001600360008573ffffffffffffffffffffffffffffffffffffffff1673ffffffffffffffffffffffffffffffffffffffff1681526020019081526020016000206000828254610d7f919061213f565b925050819055506001600360008473ffffffffffffffffffffffffffffffffffffffff1673ffffffffffffffffffffffffffffffffffffffff1681526020019081526020016000206000828254610dd69190611fc5565b92505081905550816002600083815260200190815260200160002060006101000a81548173ffffffffffffffffffffffffffffffffffffffff021916908373ffffffffffffffffffffffffffffffffffffffff160217905550808273ffffffffffffffffffffffffffffffffffffffff168473ffffffffffffffffffffffffffffffffffffffff167fddf252ad1be2c89b69c2b068fc378daa952ba7f163c4a11628f55a4df523b3ef60405160405180910390a4610e9583838361126a565b505050565b8173ffffffffffffffffffffffffffffffffffffffff168373ffffffffffffffffffffffffffffffffffffffff161415610f09576040517f08c379a0000000000000000000000000000000000000000000000000000000008152600401610f00906121bf565b60405180910390fd5b80600560008573ffffffffffffffffffffffffffffffffffffffff1673ffffffffffffffffffffffffffffffffffffffff16815260200190815260200160002060008473ffffffffffffffffffffffffffffffffffffffff1673ffffffffffffffffffffffffffffffffffffffff16815260200190815260200160002060006101000a81548160ff0219169083151502179055508173ffffffffffffffffffffffffffffffffffffffff168373ffffffffffffffffffffffffffffffffffffffff167f17307eab39ab6107e8899845ad3d59bd9653f200f220920489ca2b5937696c3183604051610ffa9190611712565b60405180910390a3505050565b611012848484610c33565b61101e8484848461126f565b61105d576040517f08c379a000000000000000000000000000000000000000000000000000000000815260040161105490612251565b60405180910390fd5b50505050565b606060405180602001604052806000815250905090565b606060008214156110c2576040518060400160405280600181526020017f300000000000000000000000000000000000000000000000000000000000000081525090506111d6565b600082905060005b600082146110f45780806110dd90612271565b915050600a826110ed91906122e9565b91506110ca565b60008167ffffffffffffffff8111156111105761110f611a33565b5b6040519080825280601f01601f1916602001820160405280156111425781602001600182028036833780820191505090505b5090505b600085146111cf5760018261115b919061213f565b9150600a8561116a919061231a565b60306111769190611fc5565b60f81b81838151811061118c5761118b61234b565b5b60200101907effffffffffffffffffffffffffffffffffffffffffffffffffffffffffffff1916908160001a905350600a856111c891906122e9565b9450611146565b8093505050505b919050565b6111f5828260405180602001604052806000815250611406565b5050565b60008073ffffffffffffffffffffffffffffffffffffffff166002600084815260200190815260200160002060009054906101000a900473ffffffffffffffffffffffffffffffffffffffff1673ffffffffffffffffffffffffffffffffffffffff1614159050919050565b505050565b505050565b60006112908473ffffffffffffffffffffffffffffffffffffffff16611461565b156113f9578373ffffffffffffffffffffffffffffffffffffffff1663150b7a026112b9610add565b8786866040518563ffffffff1660e01b81526004016112db94939291906123cf565b602060405180830381600087803b1580156112f557600080fd5b505af192505050801561132657506040513d601f19601f820116820180604052508101906113239190612430565b60015b6113a9573d8060008114611356576040519150601f19603f3d011682016040523d82523d6000602084013e61135b565b606091505b506000815114156113a1576040517f08c379a000000000000000000000000000000000000000000000000000000000815260040161139890612251565b60405180910390fd5b805181602001fd5b63150b7a0260e01b7bffffffffffffffffffffffffffffffffffffffffffffffffffffffff1916817bffffffffffffffffffffffffffffffffffffffffffffffffffffffff1916149150506113fe565b600190505b949350505050565b6114108383611484565b61141d600084848461126f565b61145c576040517f08c379a000000000000000000000000000000000000000000000000000000000815260040161145390612251565b60405180910390fd5b505050565b6000808273ffffffffffffffffffffffffffffffffffffffff163b119050919050565b600073ffffffffffffffffffffffffffffffffffffffff168273ffffffffffffffffffffffffffffffffffffffff1614156114f4576040517f08c379a00000000000000000000000000000000000000000000000000000000081526004016114eb906124a9565b60405180910390fd5b6114fd816111f9565b1561153d576040517f08c379a000000000000000000000000000000000000000000000000000000000815260040161153490612515565b60405180910390fd5b61154960008383611265565b6001600360008473ffffffffffffffffffffffffffffffffffffffff1673ffffffffffffffffffffffffffffffffffffffff16815260200190815260200160002060008282546115999190611fc5565b92505081905550816002600083815260200190815260200160002060006101000a81548173ffffffffffffffffffffffffffffffffffffffff021916908373ffffffffffffffffffffffffffffffffffffffff160217905550808273ffffffffffffffffffffffffffffffffffffffff16600073ffffffffffffffffffffffffffffffffffffffff167fddf252ad1be2c89b69c2b068fc378daa952ba7f163c4a11628f55a4df523b3ef60405160405180910390a461165a6000838361126a565b5050565b6000604051905090565b600080fd5b600080fd5b60007fffffffff0000000000000000000000000000000000000000000000000000000082169050919050565b6116a781611672565b81146116b257600080fd5b50565b6000813590506116c48161169e565b92915050565b6000602082840312156116e0576116df611668565b5b60006116ee848285016116b5565b91505092915050565b60008115159050919050565b61170c816116f7565b82525050565b60006020820190506117276000830184611703565b92915050565b600081519050919050565b600082825260208201905092915050565b60005b8381101561176757808201518184015260208101905061174c565b83811115611776576000848401525b50505050565b6000601f19601f8301169050919050565b60006117988261172d565b6117a28185611738565b93506117b2818560208601611749565b6117bb8161177c565b840191505092915050565b600060208201905081810360008301526117e0818461178d565b905092915050565b6000819050919050565b6117fb816117e8565b811461180657600080fd5b50565b600081359050611818816117f2565b92915050565b60006020828403121561183457611833611668565b5b600061184284828501611809565b91505092915050565b600073ffffffffffffffffffffffffffffffffffffffff82169050919050565b60006118768261184b565b9050919050565b6118868161186b565b82525050565b60006020820190506118a1600083018461187d565b92915050565b6118b08161186b565b81146118bb57600080fd5b50565b6000813590506118cd816118a7565b92915050565b600080604083850312156118ea576118e9611668565b5b60006118f8858286016118be565b925050602061190985828601611809565b9150509250929050565b60008060006060848603121561192c5761192b611668565b5b600061193a868287016118be565b935050602061194b868287016118be565b925050604061195c86828701611809565b9150509250925092565b61196f816117e8565b82525050565b600060208201905061198a6000830184611966565b92915050565b6000602082840312156119a6576119a5611668565b5b60006119b4848285016118be565b91505092915050565b6119c6816116f7565b81146119d157600080fd5b50565b6000813590506119e3816119bd565b92915050565b60008060408385031215611a00576119ff611668565b5b6000611a0e858286016118be565b9250506020611a1f858286016119d4565b9150509250929050565b600080fd5b600080fd5b7f4e487b7100000000000000000000000000000000000000000000000000000000600052604160045260246000fd5b611a6b8261177c565b810181811067ffffffffffffffff82111715611a8a57611a89611a33565b5b80604052505050565b6000611a9d61165e565b9050611aa98282611a62565b919050565b600067ffffffffffffffff821115611ac957611ac8611a33565b5b611ad28261177c565b9050602081019050919050565b82818337600083830152505050565b6000611b01611afc84611aae565b611a93565b905082815260208101848484011115611b1d57611b1c611a2e565b5b611b28848285611adf565b509392505050565b600082601f830112611b4557611b44611a29565b5b8135611b55848260208601611aee565b91505092915050565b60008060008060808587031215611b7857611b77611668565b5b6000611b86878288016118be565b9450506020611b97878288016118be565b9350506040611ba887828801611809565b925050606085013567ffffffffffffffff811115611bc957611bc861166d565b5b611bd587828801611b30565b91505092959194509250565b60008060408385031215611bf857611bf7611668565b5b6000611c06858286016118be565b9250506020611c17858286016118be565b9150509250929050565b7f4e487b7100000000000000000000000000000000000000000000000000000000600052602260045260246000fd5b60006002820490506001821680611c6857607f821691505b60208210811415611c7c57611c7b611c21565b5b50919050565b7f4552433732313a20617070726f76616c20746f2063757272656e74206f776e6560008201527f7200000000000000000000000000000000000000000000000000000000000000602082015250565b6000611cde602183611738565b9150611ce982611c82565b604082019050919050565b60006020820190508181036000830152611d0d81611cd1565b9050919050565b7f4552433732313a20617070726f76652063616c6c6572206973206e6f7420746f60008201527f6b656e206f776e6572206e6f7220617070726f76656420666f7220616c6c0000602082015250565b6000611d70603e83611738565b9150611d7b82611d14565b604082019050919050565b60006020820190508181036000830152611d9f81611d63565b9050919050565b7f4552433732313a2063616c6c6572206973206e6f7420746f6b656e206f776e6560008201527f72206e6f7220617070726f766564000000000000000000000000000000000000602082015250565b6000611e02602e83611738565b9150611e0d82611da6565b604082019050919050565b60006020820190508181036000830152611e3181611df5565b9050919050565b7f4552433732313a20696e76616c696420746f6b656e2049440000000000000000600082015250565b6000611e6e601883611738565b9150611e7982611e38565b602082019050919050565b60006020820190508181036000830152611e9d81611e61565b9050919050565b7f4552433732313a2061646472657373207a65726f206973206e6f74206120766160008201527f6c6964206f776e65720000000000000000000000000000000000000000000000602082015250565b6000611f00602983611738565b9150611f0b82611ea4565b604082019050919050565b60006020820190508181036000830152611f2f81611ef3565b9050919050565b600081905092915050565b6000611f4c8261172d565b611f568185611f36565b9350611f66818560208601611749565b80840191505092915050565b6000611f7e8285611f41565b9150611f8a8284611f41565b91508190509392505050565b7f4e487b7100000000000000000000000000000000000000000000000000000000600052601160045260246000fd5b6000611fd0826117e8565b9150611fdb836117e8565b9250827fffffffffffffffffffffffffffffffffffffffffffffffffffffffffffffffff038211156120105761200f611f96565b5b828201905092915050565b7f4552433732313a207472616e736665722066726f6d20696e636f72726563742060008201527f6f776e6572000000000000000000000000000000000000000000000000000000602082015250565b6000612077602583611738565b91506120828261201b565b604082019050919050565b600060208201905081810360008301526120a68161206a565b9050919050565b7f4552433732313a207472616e7366657220746f20746865207a65726f2061646460008201527f7265737300000000000000000000000000000000000000000000000000000000602082015250565b6000612109602483611738565b9150612114826120ad565b604082019050919050565b60006020820190508181036000830152612138816120fc565b9050919050565b600061214a826117e8565b9150612155836117e8565b92508282101561216857612167611f96565b5b828203905092915050565b7f4552433732313a20617070726f766520746f2063616c6c657200000000000000600082015250565b60006121a9601983611738565b91506121b482612173565b602082019050919050565b600060208201905081810360008301526121d88161219c565b9050919050565b7f4552433732313a207472616e7366657220746f206e6f6e20455243373231526560008201527f63656976657220696d706c656d656e7465720000000000000000000000000000602082015250565b600061223b603283611738565b9150612246826121df565b604082019050919050565b6000602082019050818103600083015261226a8161222e565b9050919050565b600061227c826117e8565b91507fffffffffffffffffffffffffffffffffffffffffffffffffffffffffffffffff8214156122af576122ae611f96565b5b600182019050919050565b7f4e487b7100000000000000000000000000000000000000000000000000000000600052601260045260246000fd5b60006122f4826117e8565b91506122ff836117e8565b92508261230f5761230e6122ba565b5b828204905092915050565b6000612325826117e8565b9150612330836117e8565b9250826123405761233f6122ba565b5b828206905092915050565b7f4e487b7100000000000000000000000000000000000000000000000000000000600052603260045260246000fd5b600081519050919050565b600082825260208201905092915050565b60006123a18261237a565b6123ab8185612385565b93506123bb818560208601611749565b6123c48161177c565b840191505092915050565b60006080820190506123e4600083018761187d565b6123f1602083018661187d565b6123fe6040830185611966565b81810360608301526124108184612396565b905095945050505050565b60008151905061242a8161169e565b92915050565b60006020828403121561244657612445611668565b5b60006124548482850161241b565b91505092915050565b7f4552433732313a206d696e7420746f20746865207a65726f2061646472657373600082015250565b6000612493602083611738565b915061249e8261245d565b602082019050919050565b600060208201905081810360008301526124c281612486565b9050919050565b7f4552433732313a20746f6b656e20616c7265616479206d696e74656400000000600082015250565b60006124ff601c83611738565b915061250a826124c9565b602082019050919050565b6000602082019050818103600083015261252e816124f2565b905091905056fea26469706673582212201aae0c80d41edf352730f3b2a6b41944621037919fa8faebe194bc0b934f9a1364736f6c63430008080033",
  "linkReferences": {},
  "deployedLinkReferences": {}
}